{
	"src/My721.sol": {
		"RMB": {
			"abi": [
				{
					"inputs": [
						{
							"internalType": "string",
							"name": "name_",
							"type": "string"
						},
						{
							"internalType": "string",
							"name": "symbol_",
							"type": "string"
						},
						{
							"internalType": "string",
							"name": "baseURI_",
							"type": "string"
						}
					],
					"stateMutability": "nonpayable",
					"type": "constructor"
				},
				{
					"inputs": [
						{
							"internalType": "uint256",
							"name": "tokenId",
							"type": "uint256"
						},
						{
							"internalType": "address",
							"name": "from",
							"type": "address"
						}
					],
					"name": "NotOwnerOfTokenError",
					"type": "error"
				},
				{
					"inputs": [
						{
							"internalType": "address",
							"name": "sender",
							"type": "address"
						}
					],
					"name": "SenderIsNotOwnerError",
					"type": "error"
				},
				{
					"anonymous": false,
					"inputs": [
						{
							"indexed": true,
							"internalType": "address",
							"name": "owner",
							"type": "address"
						},
						{
							"indexed": true,
							"internalType": "address",
							"name": "approved",
							"type": "address"
						},
						{
							"indexed": true,
							"internalType": "uint256",
							"name": "tokenId",
							"type": "uint256"
						}
					],
					"name": "Approval",
					"type": "event"
				},
				{
					"anonymous": false,
					"inputs": [
						{
							"indexed": true,
							"internalType": "address",
							"name": "owner",
							"type": "address"
						},
						{
							"indexed": true,
							"internalType": "address",
							"name": "operator",
							"type": "address"
						},
						{
							"indexed": false,
							"internalType": "bool",
							"name": "approved",
							"type": "bool"
						}
					],
					"name": "ApprovalForAll",
					"type": "event"
				},
				{
					"anonymous": false,
					"inputs": [
						{
							"indexed": true,
							"internalType": "address",
							"name": "from",
							"type": "address"
						},
						{
							"indexed": true,
							"internalType": "address",
							"name": "to",
							"type": "address"
						},
						{
							"indexed": false,
							"internalType": "uint256",
							"name": "tokenId",
							"type": "uint256"
						},
						{
							"indexed": false,
							"internalType": "bytes",
							"name": "data",
							"type": "bytes"
						}
					],
					"name": "Received",
					"type": "event"
				},
				{
					"anonymous": false,
					"inputs": [
						{
							"indexed": true,
							"internalType": "address",
							"name": "from",
							"type": "address"
						},
						{
							"indexed": true,
							"internalType": "address",
							"name": "to",
							"type": "address"
						},
						{
							"indexed": true,
							"internalType": "uint256",
							"name": "tokenId",
							"type": "uint256"
						}
					],
					"name": "Transfer",
					"type": "event"
				},
				{
					"inputs": [
						{
							"internalType": "address",
							"name": "to",
							"type": "address"
						},
						{
							"internalType": "uint256",
							"name": "tokenId",
							"type": "uint256"
						}
					],
					"name": "approve",
					"outputs": [],
					"stateMutability": "nonpayable",
					"type": "function"
				},
				{
					"inputs": [
						{
							"internalType": "address",
							"name": "owner",
							"type": "address"
						}
					],
					"name": "balanceOf",
					"outputs": [
						{
							"internalType": "uint256",
							"name": "balance",
							"type": "uint256"
						}
					],
					"stateMutability": "view",
					"type": "function"
				},
				{
					"inputs": [
						{
							"internalType": "uint256",
							"name": "tokenId",
							"type": "uint256"
						}
					],
					"name": "getApproved",
					"outputs": [
						{
							"internalType": "address",
							"name": "operator",
							"type": "address"
						}
					],
					"stateMutability": "view",
					"type": "function"
				},
				{
					"inputs": [
						{
							"internalType": "address",
							"name": "owner",
							"type": "address"
						},
						{
							"internalType": "address",
							"name": "operator",
							"type": "address"
						}
					],
					"name": "isApprovedForAll",
					"outputs": [
						{
							"internalType": "bool",
							"name": "",
							"type": "bool"
						}
					],
					"stateMutability": "view",
					"type": "function"
				},
				{
					"inputs": [
						{
							"internalType": "address",
							"name": "to",
							"type": "address"
						}
					],
					"name": "isEOA",
					"outputs": [
						{
							"internalType": "bool",
							"name": "ret",
							"type": "bool"
						}
					],
					"stateMutability": "view",
					"type": "function"
				},
				{
					"inputs": [],
					"name": "mint",
					"outputs": [
						{
							"internalType": "uint256",
							"name": "",
							"type": "uint256"
						}
					],
					"stateMutability": "nonpayable",
					"type": "function"
				},
				{
					"inputs": [],
					"name": "minter",
					"outputs": [
						{
							"internalType": "address",
							"name": "",
							"type": "address"
						}
					],
					"stateMutability": "view",
					"type": "function"
				},
				{
					"inputs": [],
					"name": "name",
					"outputs": [
						{
							"internalType": "string",
							"name": "",
							"type": "string"
						}
					],
					"stateMutability": "view",
					"type": "function"
				},
				{
					"inputs": [
						{
							"internalType": "uint256",
							"name": "tokenId",
							"type": "uint256"
						}
					],
					"name": "ownerOf",
					"outputs": [
						{
							"internalType": "address",
							"name": "owner",
							"type": "address"
						}
					],
					"stateMutability": "view",
					"type": "function"
				},
				{
					"inputs": [
						{
							"internalType": "address",
							"name": "from",
							"type": "address"
						},
						{
							"internalType": "address",
							"name": "to",
							"type": "address"
						},
						{
							"internalType": "uint256",
							"name": "tokenId",
							"type": "uint256"
						}
					],
					"name": "safeTransferFrom",
					"outputs": [],
					"stateMutability": "nonpayable",
					"type": "function"
				},
				{
					"inputs": [
						{
							"internalType": "address",
							"name": "from",
							"type": "address"
						},
						{
							"internalType": "address",
							"name": "to",
							"type": "address"
						},
						{
							"internalType": "uint256",
							"name": "tokenId",
							"type": "uint256"
						},
						{
							"internalType": "bytes",
							"name": "data",
							"type": "bytes"
						}
					],
					"name": "safeTransferFrom",
					"outputs": [],
					"stateMutability": "nonpayable",
					"type": "function"
				},
				{
					"inputs": [
						{
							"internalType": "address",
							"name": "operator",
							"type": "address"
						},
						{
							"internalType": "bool",
							"name": "approved",
							"type": "bool"
						}
					],
					"name": "setApprovalForAll",
					"outputs": [],
					"stateMutability": "nonpayable",
					"type": "function"
				},
				{
					"inputs": [
						{
							"internalType": "bytes4",
							"name": "interfaceId",
							"type": "bytes4"
						}
					],
					"name": "supportsInterface",
					"outputs": [
						{
							"internalType": "bool",
							"name": "",
							"type": "bool"
						}
					],
					"stateMutability": "pure",
					"type": "function"
				},
				{
					"inputs": [],
					"name": "symbol",
					"outputs": [
						{
							"internalType": "string",
							"name": "",
							"type": "string"
						}
					],
					"stateMutability": "view",
					"type": "function"
				},
				{
					"inputs": [
						{
							"internalType": "uint256",
							"name": "index",
							"type": "uint256"
						}
					],
					"name": "tokenByIndex",
					"outputs": [
						{
							"internalType": "uint256",
							"name": "",
							"type": "uint256"
						}
					],
					"stateMutability": "view",
					"type": "function"
				},
				{
					"inputs": [
						{
							"internalType": "address",
							"name": "owner",
							"type": "address"
						},
						{
							"internalType": "uint256",
							"name": "index",
							"type": "uint256"
						}
					],
					"name": "tokenOfOwnerByIndex",
					"outputs": [
						{
							"internalType": "uint256",
							"name": "",
							"type": "uint256"
						}
					],
					"stateMutability": "view",
					"type": "function"
				},
				{
					"inputs": [
						{
							"internalType": "uint256",
							"name": "tokenId",
							"type": "uint256"
						}
					],
					"name": "tokenURI",
					"outputs": [
						{
							"internalType": "string",
							"name": "",
							"type": "string"
						}
					],
					"stateMutability": "view",
					"type": "function"
				},
				{
					"inputs": [],
					"name": "totalSupply",
					"outputs": [
						{
							"internalType": "uint256",
							"name": "",
							"type": "uint256"
						}
					],
					"stateMutability": "view",
					"type": "function"
				},
				{
					"inputs": [
						{
							"internalType": "address",
							"name": "from",
							"type": "address"
						},
						{
							"internalType": "address",
							"name": "to",
							"type": "address"
						},
						{
							"internalType": "uint256",
							"name": "tokenId",
							"type": "uint256"
						}
					],
					"name": "transferFrom",
					"outputs": [],
					"stateMutability": "nonpayable",
					"type": "function"
				}
			],
			"devdoc": {
				"events": {
					"Approval(address,address,uint256)": {
						"details": "Emitted when `owner` enables `approved` to manage the `tokenId` token."
					},
					"ApprovalForAll(address,address,bool)": {
						"details": "Emitted when `owner` enables or disables (`approved`) `operator` to manage all of its assets."
					},
					"Transfer(address,address,uint256)": {
						"details": "Emitted when `tokenId` token is transferred from `from` to `to`."
					}
				},
				"kind": "dev",
				"methods": {
					"approve(address,uint256)": {
						"details": "Gives permission to `to` to transfer `tokenId` token to another account. The approval is cleared when the token is transferred. Only a single account can be approved at a time, so approving the zero address clears previous approvals. Requirements: - The caller must own the token or be an approved operator. - `tokenId` must exist. Emits an {Approval} event."
					},
					"balanceOf(address)": {
						"details": "Returns the number of tokens in ``owner``'s account."
					},
					"getApproved(uint256)": {
						"details": "Returns the account approved for `tokenId` token. Requirements: - `tokenId` must exist."
					},
					"isApprovedForAll(address,address)": {
						"details": "Returns if the `operator` is allowed to manage all of the assets of `owner`. See {setApprovalForAll}"
					},
					"name()": {
						"details": "Returns the token collection name."
					},
					"ownerOf(uint256)": {
						"details": "Returns the owner of the `tokenId` token. Requirements: - `tokenId` must exist."
					},
					"safeTransferFrom(address,address,uint256)": {
						"details": "Safely transfers `tokenId` token from `from` to `to`, checking first that contract recipients are aware of the ERC721 protocol to prevent tokens from being forever locked. Requirements: - `from` cannot be the zero address. - `to` cannot be the zero address. - `tokenId` token must exist and be owned by `from`. - If the caller is not `from`, it must have been allowed to move this token by either {approve} or   {setApprovalForAll}. - If `to` refers to a smart contract, it must implement {IERC721Receiver-onERC721Received}, which is called upon   a safe transfer. Emits a {Transfer} event."
					},
					"safeTransferFrom(address,address,uint256,bytes)": {
						"details": "Safely transfers `tokenId` token from `from` to `to`. Requirements: - `from` cannot be the zero address. - `to` cannot be the zero address. - `tokenId` token must exist and be owned by `from`. - If the caller is not `from`, it must be approved to move this token by either {approve} or {setApprovalForAll}. - If `to` refers to a smart contract, it must implement {IERC721Receiver-onERC721Received}, which is called upon   a safe transfer. Emits a {Transfer} event."
					},
					"setApprovalForAll(address,bool)": {
						"details": "Approve or remove `operator` as an operator for the caller. Operators can call {transferFrom} or {safeTransferFrom} for any token owned by the caller. Requirements: - The `operator` cannot be the address zero. Emits an {ApprovalForAll} event."
					},
					"supportsInterface(bytes4)": {
						"details": "Returns true if this contract implements the interface defined by `interfaceId`. See the corresponding https://eips.ethereum.org/EIPS/eip-165#how-interfaces-are-identified[EIP section] to learn more about how these ids are created. This function call must use less than 30 000 gas."
					},
					"symbol()": {
						"details": "Returns the token collection symbol."
					},
					"tokenByIndex(uint256)": {
						"details": "Returns a token ID at a given `index` of all the tokens stored by the contract. Use along with {totalSupply} to enumerate all tokens."
					},
					"tokenOfOwnerByIndex(address,uint256)": {
						"details": "Returns a token ID owned by `owner` at a given `index` of its token list. Use along with {balanceOf} to enumerate all of ``owner``'s tokens."
					},
					"tokenURI(uint256)": {
						"details": "Returns the Uniform Resource Identifier (URI) for `tokenId` token."
					},
					"totalSupply()": {
						"details": "Returns the total amount of tokens stored by the contract."
					},
					"transferFrom(address,address,uint256)": {
						"details": "Transfers `tokenId` token from `from` to `to`. WARNING: Note that the caller is responsible to confirm that the recipient is capable of receiving ERC721 or else they may be permanently lost. Usage of {safeTransferFrom} prevents loss, though the caller must understand this adds an external call which potentially creates a reentrancy vulnerability. Requirements: - `from` cannot be the zero address. - `to` cannot be the zero address. - `tokenId` token must be owned by `from`. - If the caller is not `from`, it must be approved to move this token by either {approve} or {setApprovalForAll}. Emits a {Transfer} event."
					}
				},
				"version": 1
			},
			"evm": {
				"assembly": "    /* \"src/My721.sol\":544:12810  contract RMB is ... */\n  mstore(0x40, 0x80)\n    /* \"src/My721.sol\":1164:1391  constructor(string memory name_,string memory  symbol_, ... */\n  callvalue\n  dup1\n  iszero\n  tag_1\n  jumpi\n  0x00\n  dup1\n  revert\ntag_1:\n  pop\n  mload(0x40)\n  sub(codesize, bytecodeSize)\n  dup1\n  bytecodeSize\n  dup4\n  codecopy\n  dup2\n  dup2\n  add\n  0x40\n  mstore\n  dup2\n  add\n  swap1\n  tag_2\n  swap2\n  swap1\n  tag_3\n  jump\t// in\ntag_2:\n    /* \"src/My721.sol\":1290:1295  name_ */\n  dup3\n    /* \"src/My721.sol\":1282:1287  _name */\n  0x00\n    /* \"src/My721.sol\":1282:1295  _name = name_ */\n  swap1\n  dup2\n  tag_6\n  swap2\n  swap1\n  tag_7\n  jump\t// in\ntag_6:\n  pop\n    /* \"src/My721.sol\":1316:1323  symbol_ */\n  dup2\n    /* \"src/My721.sol\":1306:1313  _symbol */\n  0x01\n    /* \"src/My721.sol\":1306:1323  _symbol = symbol_ */\n  swap1\n  dup2\n  tag_8\n  swap2\n  swap1\n  tag_7\n  jump\t// in\ntag_8:\n  pop\n    /* \"src/My721.sol\":1345:1353  baseURI_ */\n  dup1\n    /* \"src/My721.sol\":1334:1342  _baseURI */\n  0x02\n    /* \"src/My721.sol\":1334:1353  _baseURI = baseURI_ */\n  swap1\n  dup2\n  tag_9\n  swap2\n  swap1\n  tag_7\n  jump\t// in\ntag_9:\n  pop\n    /* \"src/My721.sol\":1373:1383  msg.sender */\n  caller\n    /* \"src/My721.sol\":1364:1370  minter */\n  0x03\n  0x00\n    /* \"src/My721.sol\":1364:1383  minter = msg.sender */\n  0x0100\n  exp\n  dup2\n  sload\n  dup2\n  0xffffffffffffffffffffffffffffffffffffffff\n  mul\n  not\n  and\n  swap1\n  dup4\n  0xffffffffffffffffffffffffffffffffffffffff\n  and\n  mul\n  or\n  swap1\n  sstore\n  pop\n    /* \"src/My721.sol\":1164:1391  constructor(string memory name_,string memory  symbol_, ... */\n  pop\n  pop\n  pop\n    /* \"src/My721.sol\":544:12810  contract RMB is ... */\n  jump(tag_10)\n    /* \"#utility.yul\":7:82   */\ntag_11:\n    /* \"#utility.yul\":40:46   */\n  0x00\n    /* \"#utility.yul\":73:75   */\n  0x40\n    /* \"#utility.yul\":67:76   */\n  mload\n    /* \"#utility.yul\":57:76   */\n  swap1\n  pop\n    /* \"#utility.yul\":7:82   */\n  swap1\n  jump\t// out\n    /* \"#utility.yul\":88:205   */\ntag_12:\n    /* \"#utility.yul\":197:198   */\n  0x00\n    /* \"#utility.yul\":194:195   */\n  dup1\n    /* \"#utility.yul\":187:199   */\n  revert\n    /* \"#utility.yul\":211:328   */\ntag_13:\n    /* \"#utility.yul\":320:321   */\n  0x00\n    /* \"#utility.yul\":317:318   */\n  dup1\n    /* \"#utility.yul\":310:322   */\n  revert\n    /* \"#utility.yul\":334:451   */\ntag_14:\n    /* \"#utility.yul\":443:444   */\n  0x00\n    /* \"#utility.yul\":440:441   */\n  dup1\n    /* \"#utility.yul\":433:445   */\n  revert\n    /* \"#utility.yul\":457:574   */\ntag_15:\n    /* \"#utility.yul\":566:567   */\n  0x00\n    /* \"#utility.yul\":563:564   */\n  dup1\n    /* \"#utility.yul\":556:568   */\n  revert\n    /* \"#utility.yul\":580:682   */\ntag_16:\n    /* \"#utility.yul\":621:627   */\n  0x00\n    /* \"#utility.yul\":672:674   */\n  0x1f\n    /* \"#utility.yul\":668:675   */\n  not\n    /* \"#utility.yul\":663:665   */\n  0x1f\n    /* \"#utility.yul\":656:661   */\n  dup4\n    /* \"#utility.yul\":652:666   */\n  add\n    /* \"#utility.yul\":648:676   */\n  and\n    /* \"#utility.yul\":638:676   */\n  swap1\n  pop\n    /* \"#utility.yul\":580:682   */\n  swap2\n  swap1\n  pop\n  jump\t// out\n    /* \"#utility.yul\":688:868   */\ntag_17:\n    /* \"#utility.yul\":736:813   */\n  0x4e487b7100000000000000000000000000000000000000000000000000000000\n    /* \"#utility.yul\":733:734   */\n  0x00\n    /* \"#utility.yul\":726:814   */\n  mstore\n    /* \"#utility.yul\":833:837   */\n  0x41\n    /* \"#utility.yul\":830:831   */\n  0x04\n    /* \"#utility.yul\":823:838   */\n  mstore\n    /* \"#utility.yul\":857:861   */\n  0x24\n    /* \"#utility.yul\":854:855   */\n  0x00\n    /* \"#utility.yul\":847:862   */\n  revert\n    /* \"#utility.yul\":874:1155   */\ntag_18:\n    /* \"#utility.yul\":957:984   */\n  tag_52\n    /* \"#utility.yul\":979:983   */\n  dup3\n    /* \"#utility.yul\":957:984   */\n  tag_16\n  jump\t// in\ntag_52:\n    /* \"#utility.yul\":949:955   */\n  dup2\n    /* \"#utility.yul\":945:985   */\n  add\n    /* \"#utility.yul\":1087:1093   */\n  dup2\n    /* \"#utility.yul\":1075:1085   */\n  dup2\n    /* \"#utility.yul\":1072:1094   */\n  lt\n    /* \"#utility.yul\":1051:1069   */\n  0xffffffffffffffff\n    /* \"#utility.yul\":1039:1049   */\n  dup3\n    /* \"#utility.yul\":1036:1070   */\n  gt\n    /* \"#utility.yul\":1033:1095   */\n  or\n    /* \"#utility.yul\":1030:1118   */\n  iszero\n  tag_53\n  jumpi\n    /* \"#utility.yul\":1098:1116   */\n  tag_54\n  tag_17\n  jump\t// in\ntag_54:\n    /* \"#utility.yul\":1030:1118   */\ntag_53:\n    /* \"#utility.yul\":1138:1148   */\n  dup1\n    /* \"#utility.yul\":1134:1136   */\n  0x40\n    /* \"#utility.yul\":1127:1149   */\n  mstore\n    /* \"#utility.yul\":917:1155   */\n  pop\n    /* \"#utility.yul\":874:1155   */\n  pop\n  pop\n  jump\t// out\n    /* \"#utility.yul\":1161:1290   */\ntag_19:\n    /* \"#utility.yul\":1195:1201   */\n  0x00\n    /* \"#utility.yul\":1222:1242   */\n  tag_56\n  tag_11\n  jump\t// in\ntag_56:\n    /* \"#utility.yul\":1212:1242   */\n  swap1\n  pop\n    /* \"#utility.yul\":1251:1284   */\n  tag_57\n    /* \"#utility.yul\":1279:1283   */\n  dup3\n    /* \"#utility.yul\":1271:1277   */\n  dup3\n    /* \"#utility.yul\":1251:1284   */\n  tag_18\n  jump\t// in\ntag_57:\n    /* \"#utility.yul\":1161:1290   */\n  swap2\n  swap1\n  pop\n  jump\t// out\n    /* \"#utility.yul\":1296:1604   */\ntag_20:\n    /* \"#utility.yul\":1358:1362   */\n  0x00\n    /* \"#utility.yul\":1448:1466   */\n  0xffffffffffffffff\n    /* \"#utility.yul\":1440:1446   */\n  dup3\n    /* \"#utility.yul\":1437:1467   */\n  gt\n    /* \"#utility.yul\":1434:1490   */\n  iszero\n  tag_59\n  jumpi\n    /* \"#utility.yul\":1470:1488   */\n  tag_60\n  tag_17\n  jump\t// in\ntag_60:\n    /* \"#utility.yul\":1434:1490   */\ntag_59:\n    /* \"#utility.yul\":1508:1537   */\n  tag_61\n    /* \"#utility.yul\":1530:1536   */\n  dup3\n    /* \"#utility.yul\":1508:1537   */\n  tag_16\n  jump\t// in\ntag_61:\n    /* \"#utility.yul\":1500:1537   */\n  swap1\n  pop\n    /* \"#utility.yul\":1592:1596   */\n  0x20\n    /* \"#utility.yul\":1586:1590   */\n  dup2\n    /* \"#utility.yul\":1582:1597   */\n  add\n    /* \"#utility.yul\":1574:1597   */\n  swap1\n  pop\n    /* \"#utility.yul\":1296:1604   */\n  swap2\n  swap1\n  pop\n  jump\t// out\n    /* \"#utility.yul\":1610:1749   */\ntag_21:\n    /* \"#utility.yul\":1699:1705   */\n  dup3\n    /* \"#utility.yul\":1694:1697   */\n  dup2\n    /* \"#utility.yul\":1689:1692   */\n  dup4\n    /* \"#utility.yul\":1683:1706   */\n  mcopy\n    /* \"#utility.yul\":1740:1741   */\n  0x00\n    /* \"#utility.yul\":1731:1737   */\n  dup4\n    /* \"#utility.yul\":1726:1729   */\n  dup4\n    /* \"#utility.yul\":1722:1738   */\n  add\n    /* \"#utility.yul\":1715:1742   */\n  mstore\n    /* \"#utility.yul\":1610:1749   */\n  pop\n  pop\n  pop\n  jump\t// out\n    /* \"#utility.yul\":1755:2189   */\ntag_22:\n    /* \"#utility.yul\":1844:1849   */\n  0x00\n    /* \"#utility.yul\":1869:1935   */\n  tag_64\n    /* \"#utility.yul\":1885:1934   */\n  tag_65\n    /* \"#utility.yul\":1927:1933   */\n  dup5\n    /* \"#utility.yul\":1885:1934   */\n  tag_20\n  jump\t// in\ntag_65:\n    /* \"#utility.yul\":1869:1935   */\n  tag_19\n  jump\t// in\ntag_64:\n    /* \"#utility.yul\":1860:1935   */\n  swap1\n  pop\n    /* \"#utility.yul\":1958:1964   */\n  dup3\n    /* \"#utility.yul\":1951:1956   */\n  dup2\n    /* \"#utility.yul\":1944:1965   */\n  mstore\n    /* \"#utility.yul\":1996:2000   */\n  0x20\n    /* \"#utility.yul\":1989:1994   */\n  dup2\n    /* \"#utility.yul\":1985:2001   */\n  add\n    /* \"#utility.yul\":2034:2037   */\n  dup5\n    /* \"#utility.yul\":2025:2031   */\n  dup5\n    /* \"#utility.yul\":2020:2023   */\n  dup5\n    /* \"#utility.yul\":2016:2032   */\n  add\n    /* \"#utility.yul\":2013:2038   */\n  gt\n    /* \"#utility.yul\":2010:2122   */\n  iszero\n  tag_66\n  jumpi\n    /* \"#utility.yul\":2041:2120   */\n  tag_67\n  tag_15\n  jump\t// in\ntag_67:\n    /* \"#utility.yul\":2010:2122   */\ntag_66:\n    /* \"#utility.yul\":2131:2183   */\n  tag_68\n    /* \"#utility.yul\":2176:2182   */\n  dup5\n    /* \"#utility.yul\":2171:2174   */\n  dup3\n    /* \"#utility.yul\":2166:2169   */\n  dup6\n    /* \"#utility.yul\":2131:2183   */\n  tag_21\n  jump\t// in\ntag_68:\n    /* \"#utility.yul\":1850:2189   */\n  pop\n    /* \"#utility.yul\":1755:2189   */\n  swap4\n  swap3\n  pop\n  pop\n  pop\n  jump\t// out\n    /* \"#utility.yul\":2209:2564   */\ntag_23:\n    /* \"#utility.yul\":2276:2281   */\n  0x00\n    /* \"#utility.yul\":2325:2328   */\n  dup3\n    /* \"#utility.yul\":2318:2322   */\n  0x1f\n    /* \"#utility.yul\":2310:2316   */\n  dup4\n    /* \"#utility.yul\":2306:2323   */\n  add\n    /* \"#utility.yul\":2302:2329   */\n  slt\n    /* \"#utility.yul\":2292:2414   */\n  tag_70\n  jumpi\n    /* \"#utility.yul\":2333:2412   */\n  tag_71\n  tag_14\n  jump\t// in\ntag_71:\n    /* \"#utility.yul\":2292:2414   */\ntag_70:\n    /* \"#utility.yul\":2443:2449   */\n  dup2\n    /* \"#utility.yul\":2437:2450   */\n  mload\n    /* \"#utility.yul\":2468:2558   */\n  tag_72\n    /* \"#utility.yul\":2554:2557   */\n  dup5\n    /* \"#utility.yul\":2546:2552   */\n  dup3\n    /* \"#utility.yul\":2539:2543   */\n  0x20\n    /* \"#utility.yul\":2531:2537   */\n  dup7\n    /* \"#utility.yul\":2527:2544   */\n  add\n    /* \"#utility.yul\":2468:2558   */\n  tag_22\n  jump\t// in\ntag_72:\n    /* \"#utility.yul\":2459:2558   */\n  swap2\n  pop\n    /* \"#utility.yul\":2282:2564   */\n  pop\n    /* \"#utility.yul\":2209:2564   */\n  swap3\n  swap2\n  pop\n  pop\n  jump\t// out\n    /* \"#utility.yul\":2570:3752   */\ntag_3:\n    /* \"#utility.yul\":2688:2694   */\n  0x00\n    /* \"#utility.yul\":2696:2702   */\n  dup1\n    /* \"#utility.yul\":2704:2710   */\n  0x00\n    /* \"#utility.yul\":2753:2755   */\n  0x60\n    /* \"#utility.yul\":2741:2750   */\n  dup5\n    /* \"#utility.yul\":2732:2739   */\n  dup7\n    /* \"#utility.yul\":2728:2751   */\n  sub\n    /* \"#utility.yul\":2724:2756   */\n  slt\n    /* \"#utility.yul\":2721:2840   */\n  iszero\n  tag_74\n  jumpi\n    /* \"#utility.yul\":2759:2838   */\n  tag_75\n  tag_12\n  jump\t// in\ntag_75:\n    /* \"#utility.yul\":2721:2840   */\ntag_74:\n    /* \"#utility.yul\":2900:2901   */\n  0x00\n    /* \"#utility.yul\":2889:2898   */\n  dup5\n    /* \"#utility.yul\":2885:2902   */\n  add\n    /* \"#utility.yul\":2879:2903   */\n  mload\n    /* \"#utility.yul\":2930:2948   */\n  0xffffffffffffffff\n    /* \"#utility.yul\":2922:2928   */\n  dup2\n    /* \"#utility.yul\":2919:2949   */\n  gt\n    /* \"#utility.yul\":2916:3033   */\n  iszero\n  tag_76\n  jumpi\n    /* \"#utility.yul\":2952:3031   */\n  tag_77\n  tag_13\n  jump\t// in\ntag_77:\n    /* \"#utility.yul\":2916:3033   */\ntag_76:\n    /* \"#utility.yul\":3057:3131   */\n  tag_78\n    /* \"#utility.yul\":3123:3130   */\n  dup7\n    /* \"#utility.yul\":3114:3120   */\n  dup3\n    /* \"#utility.yul\":3103:3112   */\n  dup8\n    /* \"#utility.yul\":3099:3121   */\n  add\n    /* \"#utility.yul\":3057:3131   */\n  tag_23\n  jump\t// in\ntag_78:\n    /* \"#utility.yul\":3047:3131   */\n  swap4\n  pop\n    /* \"#utility.yul\":2850:3141   */\n  pop\n    /* \"#utility.yul\":3201:3203   */\n  0x20\n    /* \"#utility.yul\":3190:3199   */\n  dup5\n    /* \"#utility.yul\":3186:3204   */\n  add\n    /* \"#utility.yul\":3180:3205   */\n  mload\n    /* \"#utility.yul\":3232:3250   */\n  0xffffffffffffffff\n    /* \"#utility.yul\":3224:3230   */\n  dup2\n    /* \"#utility.yul\":3221:3251   */\n  gt\n    /* \"#utility.yul\":3218:3335   */\n  iszero\n  tag_79\n  jumpi\n    /* \"#utility.yul\":3254:3333   */\n  tag_80\n  tag_13\n  jump\t// in\ntag_80:\n    /* \"#utility.yul\":3218:3335   */\ntag_79:\n    /* \"#utility.yul\":3359:3433   */\n  tag_81\n    /* \"#utility.yul\":3425:3432   */\n  dup7\n    /* \"#utility.yul\":3416:3422   */\n  dup3\n    /* \"#utility.yul\":3405:3414   */\n  dup8\n    /* \"#utility.yul\":3401:3423   */\n  add\n    /* \"#utility.yul\":3359:3433   */\n  tag_23\n  jump\t// in\ntag_81:\n    /* \"#utility.yul\":3349:3433   */\n  swap3\n  pop\n    /* \"#utility.yul\":3151:3443   */\n  pop\n    /* \"#utility.yul\":3503:3505   */\n  0x40\n    /* \"#utility.yul\":3492:3501   */\n  dup5\n    /* \"#utility.yul\":3488:3506   */\n  add\n    /* \"#utility.yul\":3482:3507   */\n  mload\n    /* \"#utility.yul\":3534:3552   */\n  0xffffffffffffffff\n    /* \"#utility.yul\":3526:3532   */\n  dup2\n    /* \"#utility.yul\":3523:3553   */\n  gt\n    /* \"#utility.yul\":3520:3637   */\n  iszero\n  tag_82\n  jumpi\n    /* \"#utility.yul\":3556:3635   */\n  tag_83\n  tag_13\n  jump\t// in\ntag_83:\n    /* \"#utility.yul\":3520:3637   */\ntag_82:\n    /* \"#utility.yul\":3661:3735   */\n  tag_84\n    /* \"#utility.yul\":3727:3734   */\n  dup7\n    /* \"#utility.yul\":3718:3724   */\n  dup3\n    /* \"#utility.yul\":3707:3716   */\n  dup8\n    /* \"#utility.yul\":3703:3725   */\n  add\n    /* \"#utility.yul\":3661:3735   */\n  tag_23\n  jump\t// in\ntag_84:\n    /* \"#utility.yul\":3651:3735   */\n  swap2\n  pop\n    /* \"#utility.yul\":3453:3745   */\n  pop\n    /* \"#utility.yul\":2570:3752   */\n  swap3\n  pop\n  swap3\n  pop\n  swap3\n  jump\t// out\n    /* \"#utility.yul\":3758:3857   */\ntag_24:\n    /* \"#utility.yul\":3810:3816   */\n  0x00\n    /* \"#utility.yul\":3844:3849   */\n  dup2\n    /* \"#utility.yul\":3838:3850   */\n  mload\n    /* \"#utility.yul\":3828:3850   */\n  swap1\n  pop\n    /* \"#utility.yul\":3758:3857   */\n  swap2\n  swap1\n  pop\n  jump\t// out\n    /* \"#utility.yul\":3863:4043   */\ntag_25:\n    /* \"#utility.yul\":3911:3988   */\n  0x4e487b7100000000000000000000000000000000000000000000000000000000\n    /* \"#utility.yul\":3908:3909   */\n  0x00\n    /* \"#utility.yul\":3901:3989   */\n  mstore\n    /* \"#utility.yul\":4008:4012   */\n  0x22\n    /* \"#utility.yul\":4005:4006   */\n  0x04\n    /* \"#utility.yul\":3998:4013   */\n  mstore\n    /* \"#utility.yul\":4032:4036   */\n  0x24\n    /* \"#utility.yul\":4029:4030   */\n  0x00\n    /* \"#utility.yul\":4022:4037   */\n  revert\n    /* \"#utility.yul\":4049:4369   */\ntag_26:\n    /* \"#utility.yul\":4093:4099   */\n  0x00\n    /* \"#utility.yul\":4130:4131   */\n  0x02\n    /* \"#utility.yul\":4124:4128   */\n  dup3\n    /* \"#utility.yul\":4120:4132   */\n  div\n    /* \"#utility.yul\":4110:4132   */\n  swap1\n  pop\n    /* \"#utility.yul\":4177:4178   */\n  0x01\n    /* \"#utility.yul\":4171:4175   */\n  dup3\n    /* \"#utility.yul\":4167:4179   */\n  and\n    /* \"#utility.yul\":4198:4216   */\n  dup1\n    /* \"#utility.yul\":4188:4269   */\n  tag_88\n  jumpi\n    /* \"#utility.yul\":4254:4258   */\n  0x7f\n    /* \"#utility.yul\":4246:4252   */\n  dup3\n    /* \"#utility.yul\":4242:4259   */\n  and\n    /* \"#utility.yul\":4232:4259   */\n  swap2\n  pop\n    /* \"#utility.yul\":4188:4269   */\ntag_88:\n    /* \"#utility.yul\":4316:4318   */\n  0x20\n    /* \"#utility.yul\":4308:4314   */\n  dup3\n    /* \"#utility.yul\":4305:4319   */\n  lt\n    /* \"#utility.yul\":4285:4303   */\n  dup2\n    /* \"#utility.yul\":4282:4320   */\n  sub\n    /* \"#utility.yul\":4279:4363   */\n  tag_89\n  jumpi\n    /* \"#utility.yul\":4335:4353   */\n  tag_90\n  tag_25\n  jump\t// in\ntag_90:\n    /* \"#utility.yul\":4279:4363   */\ntag_89:\n    /* \"#utility.yul\":4100:4369   */\n  pop\n    /* \"#utility.yul\":4049:4369   */\n  swap2\n  swap1\n  pop\n  jump\t// out\n    /* \"#utility.yul\":4375:4516   */\ntag_27:\n    /* \"#utility.yul\":4424:4428   */\n  0x00\n    /* \"#utility.yul\":4447:4450   */\n  dup2\n    /* \"#utility.yul\":4439:4450   */\n  swap1\n  pop\n    /* \"#utility.yul\":4470:4473   */\n  dup2\n    /* \"#utility.yul\":4467:4468   */\n  0x00\n    /* \"#utility.yul\":4460:4474   */\n  mstore\n    /* \"#utility.yul\":4504:4508   */\n  0x20\n    /* \"#utility.yul\":4501:4502   */\n  0x00\n    /* \"#utility.yul\":4491:4509   */\n  keccak256\n    /* \"#utility.yul\":4483:4509   */\n  swap1\n  pop\n    /* \"#utility.yul\":4375:4516   */\n  swap2\n  swap1\n  pop\n  jump\t// out\n    /* \"#utility.yul\":4522:4615   */\ntag_28:\n    /* \"#utility.yul\":4559:4565   */\n  0x00\n    /* \"#utility.yul\":4606:4608   */\n  0x20\n    /* \"#utility.yul\":4601:4603   */\n  0x1f\n    /* \"#utility.yul\":4594:4599   */\n  dup4\n    /* \"#utility.yul\":4590:4604   */\n  add\n    /* \"#utility.yul\":4586:4609   */\n  div\n    /* \"#utility.yul\":4576:4609   */\n  swap1\n  pop\n    /* \"#utility.yul\":4522:4615   */\n  swap2\n  swap1\n  pop\n  jump\t// out\n    /* \"#utility.yul\":4621:4728   */\ntag_29:\n    /* \"#utility.yul\":4665:4673   */\n  0x00\n    /* \"#utility.yul\":4715:4720   */\n  dup3\n    /* \"#utility.yul\":4709:4713   */\n  dup3\n    /* \"#utility.yul\":4705:4721   */\n  shl\n    /* \"#utility.yul\":4684:4721   */\n  swap1\n  pop\n    /* \"#utility.yul\":4621:4728   */\n  swap3\n  swap2\n  pop\n  pop\n  jump\t// out\n    /* \"#utility.yul\":4734:5127   */\ntag_30:\n    /* \"#utility.yul\":4803:4809   */\n  0x00\n    /* \"#utility.yul\":4853:4854   */\n  0x08\n    /* \"#utility.yul\":4841:4851   */\n  dup4\n    /* \"#utility.yul\":4837:4855   */\n  mul\n    /* \"#utility.yul\":4876:4973   */\n  tag_95\n    /* \"#utility.yul\":4906:4972   */\n  0xffffffffffffffffffffffffffffffffffffffffffffffffffffffffffffffff\n    /* \"#utility.yul\":4895:4904   */\n  dup3\n    /* \"#utility.yul\":4876:4973   */\n  tag_29\n  jump\t// in\ntag_95:\n    /* \"#utility.yul\":4994:5033   */\n  tag_96\n    /* \"#utility.yul\":5024:5032   */\n  dup7\n    /* \"#utility.yul\":5013:5022   */\n  dup4\n    /* \"#utility.yul\":4994:5033   */\n  tag_29\n  jump\t// in\ntag_96:\n    /* \"#utility.yul\":4982:5033   */\n  swap6\n  pop\n    /* \"#utility.yul\":5066:5070   */\n  dup1\n    /* \"#utility.yul\":5062:5071   */\n  not\n    /* \"#utility.yul\":5055:5060   */\n  dup5\n    /* \"#utility.yul\":5051:5072   */\n  and\n    /* \"#utility.yul\":5042:5072   */\n  swap4\n  pop\n    /* \"#utility.yul\":5115:5119   */\n  dup1\n    /* \"#utility.yul\":5105:5113   */\n  dup7\n    /* \"#utility.yul\":5101:5120   */\n  and\n    /* \"#utility.yul\":5094:5099   */\n  dup5\n    /* \"#utility.yul\":5091:5121   */\n  or\n    /* \"#utility.yul\":5081:5121   */\n  swap3\n  pop\n    /* \"#utility.yul\":4810:5127   */\n  pop\n  pop\n    /* \"#utility.yul\":4734:5127   */\n  swap4\n  swap3\n  pop\n  pop\n  pop\n  jump\t// out\n    /* \"#utility.yul\":5133:5210   */\ntag_31:\n    /* \"#utility.yul\":5170:5177   */\n  0x00\n    /* \"#utility.yul\":5199:5204   */\n  dup2\n    /* \"#utility.yul\":5188:5204   */\n  swap1\n  pop\n    /* \"#utility.yul\":5133:5210   */\n  swap2\n  swap1\n  pop\n  jump\t// out\n    /* \"#utility.yul\":5216:5276   */\ntag_32:\n    /* \"#utility.yul\":5244:5247   */\n  0x00\n    /* \"#utility.yul\":5265:5270   */\n  dup2\n    /* \"#utility.yul\":5258:5270   */\n  swap1\n  pop\n    /* \"#utility.yul\":5216:5276   */\n  swap2\n  swap1\n  pop\n  jump\t// out\n    /* \"#utility.yul\":5282:5424   */\ntag_33:\n    /* \"#utility.yul\":5332:5341   */\n  0x00\n    /* \"#utility.yul\":5365:5418   */\n  tag_100\n    /* \"#utility.yul\":5383:5417   */\n  tag_101\n    /* \"#utility.yul\":5392:5416   */\n  tag_102\n    /* \"#utility.yul\":5410:5415   */\n  dup5\n    /* \"#utility.yul\":5392:5416   */\n  tag_31\n  jump\t// in\ntag_102:\n    /* \"#utility.yul\":5383:5417   */\n  tag_32\n  jump\t// in\ntag_101:\n    /* \"#utility.yul\":5365:5418   */\n  tag_31\n  jump\t// in\ntag_100:\n    /* \"#utility.yul\":5352:5418   */\n  swap1\n  pop\n    /* \"#utility.yul\":5282:5424   */\n  swap2\n  swap1\n  pop\n  jump\t// out\n    /* \"#utility.yul\":5430:5505   */\ntag_34:\n    /* \"#utility.yul\":5473:5476   */\n  0x00\n    /* \"#utility.yul\":5494:5499   */\n  dup2\n    /* \"#utility.yul\":5487:5499   */\n  swap1\n  pop\n    /* \"#utility.yul\":5430:5505   */\n  swap2\n  swap1\n  pop\n  jump\t// out\n    /* \"#utility.yul\":5511:5780   */\ntag_35:\n    /* \"#utility.yul\":5621:5660   */\n  tag_105\n    /* \"#utility.yul\":5652:5659   */\n  dup4\n    /* \"#utility.yul\":5621:5660   */\n  tag_33\n  jump\t// in\ntag_105:\n    /* \"#utility.yul\":5682:5773   */\n  tag_106\n    /* \"#utility.yul\":5731:5772   */\n  tag_107\n    /* \"#utility.yul\":5755:5771   */\n  dup3\n    /* \"#utility.yul\":5731:5772   */\n  tag_34\n  jump\t// in\ntag_107:\n    /* \"#utility.yul\":5723:5729   */\n  dup5\n    /* \"#utility.yul\":5716:5720   */\n  dup5\n    /* \"#utility.yul\":5710:5721   */\n  sload\n    /* \"#utility.yul\":5682:5773   */\n  tag_30\n  jump\t// in\ntag_106:\n    /* \"#utility.yul\":5676:5680   */\n  dup3\n    /* \"#utility.yul\":5669:5774   */\n  sstore\n    /* \"#utility.yul\":5587:5780   */\n  pop\n    /* \"#utility.yul\":5511:5780   */\n  pop\n  pop\n  pop\n  jump\t// out\n    /* \"#utility.yul\":5786:5859   */\ntag_36:\n    /* \"#utility.yul\":5831:5834   */\n  0x00\n    /* \"#utility.yul\":5786:5859   */\n  swap1\n  jump\t// out\n    /* \"#utility.yul\":5865:6054   */\ntag_37:\n    /* \"#utility.yul\":5942:5974   */\n  tag_110\n  tag_36\n  jump\t// in\ntag_110:\n    /* \"#utility.yul\":5983:6048   */\n  tag_111\n    /* \"#utility.yul\":6041:6047   */\n  dup2\n    /* \"#utility.yul\":6033:6039   */\n  dup5\n    /* \"#utility.yul\":6027:6031   */\n  dup5\n    /* \"#utility.yul\":5983:6048   */\n  tag_35\n  jump\t// in\ntag_111:\n    /* \"#utility.yul\":5918:6054   */\n  pop\n    /* \"#utility.yul\":5865:6054   */\n  pop\n  pop\n  jump\t// out\n    /* \"#utility.yul\":6060:6246   */\ntag_38:\n    /* \"#utility.yul\":6120:6240   */\ntag_113:\n    /* \"#utility.yul\":6137:6140   */\n  dup2\n    /* \"#utility.yul\":6130:6135   */\n  dup2\n    /* \"#utility.yul\":6127:6141   */\n  lt\n    /* \"#utility.yul\":6120:6240   */\n  iszero\n  tag_115\n  jumpi\n    /* \"#utility.yul\":6191:6230   */\n  tag_116\n    /* \"#utility.yul\":6228:6229   */\n  0x00\n    /* \"#utility.yul\":6221:6226   */\n  dup3\n    /* \"#utility.yul\":6191:6230   */\n  tag_37\n  jump\t// in\ntag_116:\n    /* \"#utility.yul\":6164:6165   */\n  0x01\n    /* \"#utility.yul\":6157:6162   */\n  dup2\n    /* \"#utility.yul\":6153:6166   */\n  add\n    /* \"#utility.yul\":6144:6166   */\n  swap1\n  pop\n    /* \"#utility.yul\":6120:6240   */\n  jump(tag_113)\ntag_115:\n    /* \"#utility.yul\":6060:6246   */\n  pop\n  pop\n  jump\t// out\n    /* \"#utility.yul\":6252:6795   */\ntag_39:\n    /* \"#utility.yul\":6353:6355   */\n  0x1f\n    /* \"#utility.yul\":6348:6351   */\n  dup3\n    /* \"#utility.yul\":6345:6356   */\n  gt\n    /* \"#utility.yul\":6342:6788   */\n  iszero\n  tag_118\n  jumpi\n    /* \"#utility.yul\":6387:6425   */\n  tag_119\n    /* \"#utility.yul\":6419:6424   */\n  dup2\n    /* \"#utility.yul\":6387:6425   */\n  tag_27\n  jump\t// in\ntag_119:\n    /* \"#utility.yul\":6471:6500   */\n  tag_120\n    /* \"#utility.yul\":6489:6499   */\n  dup5\n    /* \"#utility.yul\":6471:6500   */\n  tag_28\n  jump\t// in\ntag_120:\n    /* \"#utility.yul\":6461:6469   */\n  dup2\n    /* \"#utility.yul\":6457:6501   */\n  add\n    /* \"#utility.yul\":6654:6656   */\n  0x20\n    /* \"#utility.yul\":6642:6652   */\n  dup6\n    /* \"#utility.yul\":6639:6657   */\n  lt\n    /* \"#utility.yul\":6636:6685   */\n  iszero\n  tag_121\n  jumpi\n    /* \"#utility.yul\":6675:6683   */\n  dup2\n    /* \"#utility.yul\":6660:6683   */\n  swap1\n  pop\n    /* \"#utility.yul\":6636:6685   */\ntag_121:\n    /* \"#utility.yul\":6698:6778   */\n  tag_122\n    /* \"#utility.yul\":6754:6776   */\n  tag_123\n    /* \"#utility.yul\":6772:6775   */\n  dup6\n    /* \"#utility.yul\":6754:6776   */\n  tag_28\n  jump\t// in\ntag_123:\n    /* \"#utility.yul\":6744:6752   */\n  dup4\n    /* \"#utility.yul\":6740:6777   */\n  add\n    /* \"#utility.yul\":6727:6738   */\n  dup3\n    /* \"#utility.yul\":6698:6778   */\n  tag_38\n  jump\t// in\ntag_122:\n    /* \"#utility.yul\":6357:6788   */\n  pop\n  pop\n    /* \"#utility.yul\":6342:6788   */\ntag_118:\n    /* \"#utility.yul\":6252:6795   */\n  pop\n  pop\n  pop\n  jump\t// out\n    /* \"#utility.yul\":6801:6918   */\ntag_40:\n    /* \"#utility.yul\":6855:6863   */\n  0x00\n    /* \"#utility.yul\":6905:6910   */\n  dup3\n    /* \"#utility.yul\":6899:6903   */\n  dup3\n    /* \"#utility.yul\":6895:6911   */\n  shr\n    /* \"#utility.yul\":6874:6911   */\n  swap1\n  pop\n    /* \"#utility.yul\":6801:6918   */\n  swap3\n  swap2\n  pop\n  pop\n  jump\t// out\n    /* \"#utility.yul\":6924:7093   */\ntag_41:\n    /* \"#utility.yul\":6968:6974   */\n  0x00\n    /* \"#utility.yul\":7001:7052   */\n  tag_126\n    /* \"#utility.yul\":7049:7050   */\n  0x00\n    /* \"#utility.yul\":7045:7051   */\n  not\n    /* \"#utility.yul\":7037:7042   */\n  dup5\n    /* \"#utility.yul\":7034:7035   */\n  0x08\n    /* \"#utility.yul\":7030:7043   */\n  mul\n    /* \"#utility.yul\":7001:7052   */\n  tag_40\n  jump\t// in\ntag_126:\n    /* \"#utility.yul\":6997:7053   */\n  not\n    /* \"#utility.yul\":7082:7086   */\n  dup1\n    /* \"#utility.yul\":7076:7080   */\n  dup4\n    /* \"#utility.yul\":7072:7087   */\n  and\n    /* \"#utility.yul\":7062:7087   */\n  swap2\n  pop\n    /* \"#utility.yul\":6975:7093   */\n  pop\n    /* \"#utility.yul\":6924:7093   */\n  swap3\n  swap2\n  pop\n  pop\n  jump\t// out\n    /* \"#utility.yul\":7098:7393   */\ntag_42:\n    /* \"#utility.yul\":7174:7178   */\n  0x00\n    /* \"#utility.yul\":7320:7349   */\n  tag_128\n    /* \"#utility.yul\":7345:7348   */\n  dup4\n    /* \"#utility.yul\":7339:7343   */\n  dup4\n    /* \"#utility.yul\":7320:7349   */\n  tag_41\n  jump\t// in\ntag_128:\n    /* \"#utility.yul\":7312:7349   */\n  swap2\n  pop\n    /* \"#utility.yul\":7382:7385   */\n  dup3\n    /* \"#utility.yul\":7379:7380   */\n  0x02\n    /* \"#utility.yul\":7375:7386   */\n  mul\n    /* \"#utility.yul\":7369:7373   */\n  dup3\n    /* \"#utility.yul\":7366:7387   */\n  or\n    /* \"#utility.yul\":7358:7387   */\n  swap1\n  pop\n    /* \"#utility.yul\":7098:7393   */\n  swap3\n  swap2\n  pop\n  pop\n  jump\t// out\n    /* \"#utility.yul\":7398:8793   */\ntag_7:\n    /* \"#utility.yul\":7515:7552   */\n  tag_130\n    /* \"#utility.yul\":7548:7551   */\n  dup3\n    /* \"#utility.yul\":7515:7552   */\n  tag_24\n  jump\t// in\ntag_130:\n    /* \"#utility.yul\":7617:7635   */\n  0xffffffffffffffff\n    /* \"#utility.yul\":7609:7615   */\n  dup2\n    /* \"#utility.yul\":7606:7636   */\n  gt\n    /* \"#utility.yul\":7603:7659   */\n  iszero\n  tag_131\n  jumpi\n    /* \"#utility.yul\":7639:7657   */\n  tag_132\n  tag_17\n  jump\t// in\ntag_132:\n    /* \"#utility.yul\":7603:7659   */\ntag_131:\n    /* \"#utility.yul\":7683:7721   */\n  tag_133\n    /* \"#utility.yul\":7715:7719   */\n  dup3\n    /* \"#utility.yul\":7709:7720   */\n  sload\n    /* \"#utility.yul\":7683:7721   */\n  tag_26\n  jump\t// in\ntag_133:\n    /* \"#utility.yul\":7768:7835   */\n  tag_134\n    /* \"#utility.yul\":7828:7834   */\n  dup3\n    /* \"#utility.yul\":7820:7826   */\n  dup3\n    /* \"#utility.yul\":7814:7818   */\n  dup6\n    /* \"#utility.yul\":7768:7835   */\n  tag_39\n  jump\t// in\ntag_134:\n    /* \"#utility.yul\":7862:7863   */\n  0x00\n    /* \"#utility.yul\":7886:7890   */\n  0x20\n    /* \"#utility.yul\":7873:7890   */\n  swap1\n  pop\n    /* \"#utility.yul\":7918:7920   */\n  0x1f\n    /* \"#utility.yul\":7910:7916   */\n  dup4\n    /* \"#utility.yul\":7907:7921   */\n  gt\n    /* \"#utility.yul\":7935:7936   */\n  0x01\n    /* \"#utility.yul\":7930:8548   */\n  dup2\n  eq\n  tag_136\n  jumpi\n    /* \"#utility.yul\":8592:8593   */\n  0x00\n    /* \"#utility.yul\":8609:8615   */\n  dup5\n    /* \"#utility.yul\":8606:8683   */\n  iszero\n  tag_137\n  jumpi\n    /* \"#utility.yul\":8658:8667   */\n  dup3\n    /* \"#utility.yul\":8653:8656   */\n  dup8\n    /* \"#utility.yul\":8649:8668   */\n  add\n    /* \"#utility.yul\":8643:8669   */\n  mload\n    /* \"#utility.yul\":8634:8669   */\n  swap1\n  pop\n    /* \"#utility.yul\":8606:8683   */\ntag_137:\n    /* \"#utility.yul\":8709:8776   */\n  tag_138\n    /* \"#utility.yul\":8769:8775   */\n  dup6\n    /* \"#utility.yul\":8762:8767   */\n  dup3\n    /* \"#utility.yul\":8709:8776   */\n  tag_42\n  jump\t// in\ntag_138:\n    /* \"#utility.yul\":8703:8707   */\n  dup7\n    /* \"#utility.yul\":8696:8777   */\n  sstore\n    /* \"#utility.yul\":8565:8787   */\n  pop\n    /* \"#utility.yul\":7900:8787   */\n  jump(tag_135)\n    /* \"#utility.yul\":7930:8548   */\ntag_136:\n    /* \"#utility.yul\":7982:7986   */\n  0x1f\n    /* \"#utility.yul\":7978:7987   */\n  not\n    /* \"#utility.yul\":7970:7976   */\n  dup5\n    /* \"#utility.yul\":7966:7988   */\n  and\n    /* \"#utility.yul\":8016:8053   */\n  tag_139\n    /* \"#utility.yul\":8048:8052   */\n  dup7\n    /* \"#utility.yul\":8016:8053   */\n  tag_27\n  jump\t// in\ntag_139:\n    /* \"#utility.yul\":8075:8076   */\n  0x00\n    /* \"#utility.yul\":8089:8297   */\ntag_140:\n    /* \"#utility.yul\":8103:8110   */\n  dup3\n    /* \"#utility.yul\":8100:8101   */\n  dup2\n    /* \"#utility.yul\":8097:8111   */\n  lt\n    /* \"#utility.yul\":8089:8297   */\n  iszero\n  tag_142\n  jumpi\n    /* \"#utility.yul\":8182:8191   */\n  dup5\n    /* \"#utility.yul\":8177:8180   */\n  dup10\n    /* \"#utility.yul\":8173:8192   */\n  add\n    /* \"#utility.yul\":8167:8193   */\n  mload\n    /* \"#utility.yul\":8159:8165   */\n  dup3\n    /* \"#utility.yul\":8152:8194   */\n  sstore\n    /* \"#utility.yul\":8233:8234   */\n  0x01\n    /* \"#utility.yul\":8225:8231   */\n  dup3\n    /* \"#utility.yul\":8221:8235   */\n  add\n    /* \"#utility.yul\":8211:8235   */\n  swap2\n  pop\n    /* \"#utility.yul\":8280:8282   */\n  0x20\n    /* \"#utility.yul\":8269:8278   */\n  dup6\n    /* \"#utility.yul\":8265:8283   */\n  add\n    /* \"#utility.yul\":8252:8283   */\n  swap5\n  pop\n    /* \"#utility.yul\":8126:8130   */\n  0x20\n    /* \"#utility.yul\":8123:8124   */\n  dup2\n    /* \"#utility.yul\":8119:8131   */\n  add\n    /* \"#utility.yul\":8114:8131   */\n  swap1\n  pop\n    /* \"#utility.yul\":8089:8297   */\n  jump(tag_140)\ntag_142:\n    /* \"#utility.yul\":8325:8331   */\n  dup7\n    /* \"#utility.yul\":8316:8323   */\n  dup4\n    /* \"#utility.yul\":8313:8332   */\n  lt\n    /* \"#utility.yul\":8310:8489   */\n  iszero\n  tag_143\n  jumpi\n    /* \"#utility.yul\":8383:8392   */\n  dup5\n    /* \"#utility.yul\":8378:8381   */\n  dup10\n    /* \"#utility.yul\":8374:8393   */\n  add\n    /* \"#utility.yul\":8368:8394   */\n  mload\n    /* \"#utility.yul\":8426:8474   */\n  tag_144\n    /* \"#utility.yul\":8468:8472   */\n  0x1f\n    /* \"#utility.yul\":8460:8466   */\n  dup10\n    /* \"#utility.yul\":8456:8473   */\n  and\n    /* \"#utility.yul\":8445:8454   */\n  dup3\n    /* \"#utility.yul\":8426:8474   */\n  tag_41\n  jump\t// in\ntag_144:\n    /* \"#utility.yul\":8418:8424   */\n  dup4\n    /* \"#utility.yul\":8411:8475   */\n  sstore\n    /* \"#utility.yul\":8333:8489   */\n  pop\n    /* \"#utility.yul\":8310:8489   */\ntag_143:\n    /* \"#utility.yul\":8535:8536   */\n  0x01\n    /* \"#utility.yul\":8531:8532   */\n  0x02\n    /* \"#utility.yul\":8523:8529   */\n  dup9\n    /* \"#utility.yul\":8519:8533   */\n  mul\n    /* \"#utility.yul\":8515:8537   */\n  add\n    /* \"#utility.yul\":8509:8513   */\n  dup9\n    /* \"#utility.yul\":8502:8538   */\n  sstore\n    /* \"#utility.yul\":7937:8548   */\n  pop\n  pop\n  pop\n    /* \"#utility.yul\":7900:8787   */\ntag_135:\n  pop\n    /* \"#utility.yul\":7490:8793   */\n  pop\n  pop\n  pop\n    /* \"#utility.yul\":7398:8793   */\n  pop\n  pop\n  jump\t// out\n    /* \"src/My721.sol\":544:12810  contract RMB is ... */\ntag_10:\n  dataSize(sub_0)\n  dup1\n  dataOffset(sub_0)\n  0x00\n  codecopy\n  0x00\n  return\nstop\n\nsub_0: assembly {\n        /* \"src/My721.sol\":544:12810  contract RMB is ... */\n      mstore(0x40, 0x80)\n      callvalue\n      dup1\n      iszero\n      tag_1\n      jumpi\n      0x00\n      dup1\n      revert\n    tag_1:\n      pop\n      jumpi(tag_2, lt(calldatasize, 0x04))\n      shr(0xe0, calldataload(0x00))\n      dup1\n      0x2f745c59\n      gt\n      tag_22\n      jumpi\n      dup1\n      0x95d89b41\n      gt\n      tag_23\n      jumpi\n      dup1\n      0x95d89b41\n      eq\n      tag_17\n      jumpi\n      dup1\n      0xa22cb465\n      eq\n      tag_18\n      jumpi\n      dup1\n      0xb88d4fde\n      eq\n      tag_19\n      jumpi\n      dup1\n      0xc87b56dd\n      eq\n      tag_20\n      jumpi\n      dup1\n      0xe985e9c5\n      eq\n      tag_21\n      jumpi\n      jump(tag_2)\n    tag_23:\n      dup1\n      0x2f745c59\n      eq\n      tag_12\n      jumpi\n      dup1\n      0x42842e0e\n      eq\n      tag_13\n      jumpi\n      dup1\n      0x4f6ccce7\n      eq\n      tag_14\n      jumpi\n      dup1\n      0x6352211e\n      eq\n      tag_15\n      jumpi\n      dup1\n      0x70a08231\n      eq\n      tag_16\n      jumpi\n      jump(tag_2)\n    tag_22:\n      dup1\n      0x081812fc\n      gt\n      tag_24\n      jumpi\n      dup1\n      0x081812fc\n      eq\n      tag_7\n      jumpi\n      dup1\n      0x095ea7b3\n      eq\n      tag_8\n      jumpi\n      dup1\n      0x1249c58b\n      eq\n      tag_9\n      jumpi\n      dup1\n      0x18160ddd\n      eq\n      tag_10\n      jumpi\n      dup1\n      0x23b872dd\n      eq\n      tag_11\n      jumpi\n      jump(tag_2)\n    tag_24:\n      dup1\n      0x01ffc9a7\n      eq\n      tag_3\n      jumpi\n      dup1\n      0x049cbc21\n      eq\n      tag_4\n      jumpi\n      dup1\n      0x06fdde03\n      eq\n      tag_5\n      jumpi\n      dup1\n      0x07546172\n      eq\n      tag_6\n      jumpi\n    tag_2:\n      0x00\n      dup1\n      revert\n        /* \"src/My721.sol\":2470:2815  function supportsInterface(bytes4 interfaceId) public pure   returns (bool){... */\n    tag_3:\n      tag_25\n      0x04\n      dup1\n      calldatasize\n      sub\n      dup2\n      add\n      swap1\n      tag_26\n      swap2\n      swap1\n      tag_27\n      jump\t// in\n    tag_26:\n      tag_28\n      jump\t// in\n    tag_25:\n      mload(0x40)\n      tag_29\n      swap2\n      swap1\n      tag_30\n      jump\t// in\n    tag_29:\n      mload(0x40)\n      dup1\n      swap2\n      sub\n      swap1\n      return\n        /* \"src/My721.sol\":4548:4692  function isEOA(address to) public view returns (bool ret){... */\n    tag_4:\n      tag_31\n      0x04\n      dup1\n      calldatasize\n      sub\n      dup2\n      add\n      swap1\n      tag_32\n      swap2\n      swap1\n      tag_33\n      jump\t// in\n    tag_32:\n      tag_34\n      jump\t// in\n    tag_31:\n      mload(0x40)\n      tag_35\n      swap2\n      swap1\n      tag_30\n      jump\t// in\n    tag_35:\n      mload(0x40)\n      dup1\n      swap2\n      sub\n      swap1\n      return\n        /* \"src/My721.sol\":1957:2041  function name() external view returns (string memory){... */\n    tag_5:\n      tag_36\n      tag_37\n      jump\t// in\n    tag_36:\n      mload(0x40)\n      tag_38\n      swap2\n      swap1\n      tag_39\n      jump\t// in\n    tag_38:\n      mload(0x40)\n      dup1\n      swap2\n      sub\n      swap1\n      return\n        /* \"src/My721.sol\":803:824  address public minter */\n    tag_6:\n      tag_40\n      tag_41\n      jump\t// in\n    tag_40:\n      mload(0x40)\n      tag_42\n      swap2\n      swap1\n      tag_43\n      jump\t// in\n    tag_42:\n      mload(0x40)\n      dup1\n      swap2\n      sub\n      swap1\n      return\n        /* \"src/My721.sol\":11361:11490  function getApproved(uint256 tokenId) external view returns (address operator){... */\n    tag_7:\n      tag_44\n      0x04\n      dup1\n      calldatasize\n      sub\n      dup2\n      add\n      swap1\n      tag_45\n      swap2\n      swap1\n      tag_46\n      jump\t// in\n    tag_45:\n      tag_47\n      jump\t// in\n    tag_44:\n      mload(0x40)\n      tag_48\n      swap2\n      swap1\n      tag_43\n      jump\t// in\n    tag_48:\n      mload(0x40)\n      dup1\n      swap2\n      sub\n      swap1\n      return\n        /* \"src/My721.sol\":9825:10125  function approve(address to, uint256 tokenId) external{... */\n    tag_8:\n      tag_49\n      0x04\n      dup1\n      calldatasize\n      sub\n      dup2\n      add\n      swap1\n      tag_50\n      swap2\n      swap1\n      tag_51\n      jump\t// in\n    tag_50:\n      tag_52\n      jump\t// in\n    tag_49:\n      stop\n        /* \"src/My721.sol\":1552:1877  function mint() onlyCreator external returns (uint256) {... */\n    tag_9:\n      tag_53\n      tag_54\n      jump\t// in\n    tag_53:\n      mload(0x40)\n      tag_55\n      swap2\n      swap1\n      tag_56\n      jump\t// in\n    tag_55:\n      mload(0x40)\n      dup1\n      swap2\n      sub\n      swap1\n      return\n        /* \"src/My721.sol\":11927:12021  function totalSupply() external view returns (uint256){... */\n    tag_10:\n      tag_57\n      tag_58\n      jump\t// in\n    tag_57:\n      mload(0x40)\n      tag_59\n      swap2\n      swap1\n      tag_56\n      jump\t// in\n    tag_59:\n      mload(0x40)\n      dup1\n      swap2\n      sub\n      swap1\n      return\n        /* \"src/My721.sol\":6867:6990  function transferFrom(address from, address to, uint256 tokenId) external {... */\n    tag_11:\n      tag_60\n      0x04\n      dup1\n      calldatasize\n      sub\n      dup2\n      add\n      swap1\n      tag_61\n      swap2\n      swap1\n      tag_62\n      jump\t// in\n    tag_61:\n      tag_63\n      jump\t// in\n    tag_60:\n      stop\n        /* \"src/My721.sol\":12209:12454  function tokenOfOwnerByIndex(address owner, uint256 index) external view returns (uint256){... */\n    tag_12:\n      tag_64\n      0x04\n      dup1\n      calldatasize\n      sub\n      dup2\n      add\n      swap1\n      tag_65\n      swap2\n      swap1\n      tag_51\n      jump\t// in\n    tag_65:\n      tag_66\n      jump\t// in\n    tag_64:\n      mload(0x40)\n      tag_67\n      swap2\n      swap1\n      tag_56\n      jump\t// in\n    tag_67:\n      mload(0x40)\n      dup1\n      swap2\n      sub\n      swap1\n      return\n        /* \"src/My721.sol\":5786:6041  function safeTransferFrom(address from, address to, uint256 tokenId) external{... */\n    tag_13:\n      tag_68\n      0x04\n      dup1\n      calldatasize\n      sub\n      dup2\n      add\n      swap1\n      tag_69\n      swap2\n      swap1\n      tag_62\n      jump\t// in\n    tag_69:\n      tag_70\n      jump\t// in\n    tag_68:\n      stop\n        /* \"src/My721.sol\":12635:12803  function tokenByIndex(uint256 index) external view returns (uint256){... */\n    tag_14:\n      tag_71\n      0x04\n      dup1\n      calldatasize\n      sub\n      dup2\n      add\n      swap1\n      tag_72\n      swap2\n      swap1\n      tag_46\n      jump\t// in\n    tag_72:\n      tag_73\n      jump\t// in\n    tag_71:\n      mload(0x40)\n      tag_74\n      swap2\n      swap1\n      tag_56\n      jump\t// in\n    tag_74:\n      mload(0x40)\n      dup1\n      swap2\n      sub\n      swap1\n      return\n        /* \"src/My721.sol\":3554:3670  function ownerOf(uint256 tokenId) external view returns (address owner){... */\n    tag_15:\n      tag_75\n      0x04\n      dup1\n      calldatasize\n      sub\n      dup2\n      add\n      swap1\n      tag_76\n      swap2\n      swap1\n      tag_46\n      jump\t// in\n    tag_76:\n      tag_77\n      jump\t// in\n    tag_75:\n      mload(0x40)\n      tag_78\n      swap2\n      swap1\n      tag_43\n      jump\t// in\n    tag_78:\n      mload(0x40)\n      dup1\n      swap2\n      sub\n      swap1\n      return\n        /* \"src/My721.sol\":3279:3403  function balanceOf(address owner) external view returns (uint256 balance){... */\n    tag_16:\n      tag_79\n      0x04\n      dup1\n      calldatasize\n      sub\n      dup2\n      add\n      swap1\n      tag_80\n      swap2\n      swap1\n      tag_33\n      jump\t// in\n    tag_80:\n      tag_81\n      jump\t// in\n    tag_79:\n      mload(0x40)\n      tag_82\n      swap2\n      swap1\n      tag_56\n      jump\t// in\n    tag_82:\n      mload(0x40)\n      dup1\n      swap2\n      sub\n      swap1\n      return\n        /* \"src/My721.sol\":2117:2205  function symbol() external view returns (string memory){... */\n    tag_17:\n      tag_83\n      tag_84\n      jump\t// in\n    tag_83:\n      mload(0x40)\n      tag_85\n      swap2\n      swap1\n      tag_39\n      jump\t// in\n    tag_85:\n      mload(0x40)\n      dup1\n      swap2\n      sub\n      swap1\n      return\n        /* \"src/My721.sol\":10463:11202  function setApprovalForAll(address operator, bool approved) external{... */\n    tag_18:\n      tag_86\n      0x04\n      dup1\n      calldatasize\n      sub\n      dup2\n      add\n      swap1\n      tag_87\n      swap2\n      swap1\n      tag_88\n      jump\t// in\n    tag_87:\n      tag_89\n      jump\t// in\n    tag_86:\n      stop\n        /* \"src/My721.sol\":4262:4540  function safeTransferFrom(address from, address to, uint256 tokenId, bytes calldata data) external{... */\n    tag_19:\n      tag_90\n      0x04\n      dup1\n      calldatasize\n      sub\n      dup2\n      add\n      swap1\n      tag_91\n      swap2\n      swap1\n      tag_92\n      jump\t// in\n    tag_91:\n      tag_93\n      jump\t// in\n    tag_90:\n      stop\n        /* \"src/My721.sol\":2315:2462  function tokenURI(uint256 tokenId) external view returns (string memory){... */\n    tag_20:\n      tag_94\n      0x04\n      dup1\n      calldatasize\n      sub\n      dup2\n      add\n      swap1\n      tag_95\n      swap2\n      swap1\n      tag_46\n      jump\t// in\n    tag_95:\n      tag_96\n      jump\t// in\n    tag_94:\n      mload(0x40)\n      tag_97\n      swap2\n      swap1\n      tag_39\n      jump\t// in\n    tag_97:\n      mload(0x40)\n      dup1\n      swap2\n      sub\n      swap1\n      return\n        /* \"src/My721.sol\":11646:11822  function isApprovedForAll(address owner, address operator) external view returns (bool){... */\n    tag_21:\n      tag_98\n      0x04\n      dup1\n      calldatasize\n      sub\n      dup2\n      add\n      swap1\n      tag_99\n      swap2\n      swap1\n      tag_100\n      jump\t// in\n    tag_99:\n      tag_101\n      jump\t// in\n    tag_98:\n      mload(0x40)\n      tag_102\n      swap2\n      swap1\n      tag_30\n      jump\t// in\n    tag_102:\n      mload(0x40)\n      dup1\n      swap2\n      sub\n      swap1\n      return\n        /* \"src/My721.sol\":2470:2815  function supportsInterface(bytes4 interfaceId) public pure   returns (bool){... */\n    tag_28:\n        /* \"src/My721.sol\":2540:2544  bool */\n      0x00\n        /* \"src/My721.sol\":2578:2603  type(IERC165).interfaceId */\n      0x01ffc9a700000000000000000000000000000000000000000000000000000000\n        /* \"src/My721.sol\":2563:2603  interfaceId == type(IERC165).interfaceId */\n      not(0xffffffffffffffffffffffffffffffffffffffffffffffffffffffff)\n      and\n        /* \"src/My721.sol\":2563:2574  interfaceId */\n      dup3\n        /* \"src/My721.sol\":2563:2603  interfaceId == type(IERC165).interfaceId */\n      not(0xffffffffffffffffffffffffffffffffffffffffffffffffffffffff)\n      and\n      eq\n        /* \"src/My721.sol\":2563:2673  interfaceId == type(IERC165).interfaceId ... */\n      dup1\n      tag_104\n      jumpi\n      pop\n        /* \"src/My721.sol\":2640:2673  type(IERC721Metadata).interfaceId */\n      0x5b5e139f00000000000000000000000000000000000000000000000000000000\n        /* \"src/My721.sol\":2625:2673  interfaceId == type(IERC721Metadata).interfaceId */\n      not(0xffffffffffffffffffffffffffffffffffffffffffffffffffffffff)\n      and\n        /* \"src/My721.sol\":2625:2636  interfaceId */\n      dup3\n        /* \"src/My721.sol\":2625:2673  interfaceId == type(IERC721Metadata).interfaceId */\n      not(0xffffffffffffffffffffffffffffffffffffffffffffffffffffffff)\n      and\n      eq\n        /* \"src/My721.sol\":2563:2673  interfaceId == type(IERC165).interfaceId ... */\n    tag_104:\n        /* \"src/My721.sol\":2563:2734  interfaceId == type(IERC165).interfaceId ... */\n      dup1\n      tag_105\n      jumpi\n      pop\n        /* \"src/My721.sol\":2709:2734  type(IERC721).interfaceId */\n      0x80ac58cd00000000000000000000000000000000000000000000000000000000\n        /* \"src/My721.sol\":2694:2734  interfaceId == type(IERC721).interfaceId */\n      not(0xffffffffffffffffffffffffffffffffffffffffffffffffffffffff)\n      and\n        /* \"src/My721.sol\":2694:2705  interfaceId */\n      dup3\n        /* \"src/My721.sol\":2694:2734  interfaceId == type(IERC721).interfaceId */\n      not(0xffffffffffffffffffffffffffffffffffffffffffffffffffffffff)\n      and\n      eq\n        /* \"src/My721.sol\":2563:2734  interfaceId == type(IERC165).interfaceId ... */\n    tag_105:\n        /* \"src/My721.sol\":2563:2806  interfaceId == type(IERC165).interfaceId ... */\n      dup1\n      tag_106\n      jumpi\n      pop\n        /* \"src/My721.sol\":2771:2806  type(IERC721Enumerable).interfaceId */\n      0x780e9d6300000000000000000000000000000000000000000000000000000000\n        /* \"src/My721.sol\":2756:2806  interfaceId == type(IERC721Enumerable).interfaceId */\n      not(0xffffffffffffffffffffffffffffffffffffffffffffffffffffffff)\n      and\n        /* \"src/My721.sol\":2756:2767  interfaceId */\n      dup3\n        /* \"src/My721.sol\":2756:2806  interfaceId == type(IERC721Enumerable).interfaceId */\n      not(0xffffffffffffffffffffffffffffffffffffffffffffffffffffffff)\n      and\n      eq\n        /* \"src/My721.sol\":2563:2806  interfaceId == type(IERC165).interfaceId ... */\n    tag_106:\n        /* \"src/My721.sol\":2556:2806  return interfaceId == type(IERC165).interfaceId ... */\n      swap1\n      pop\n        /* \"src/My721.sol\":2470:2815  function supportsInterface(bytes4 interfaceId) public pure   returns (bool){... */\n      swap2\n      swap1\n      pop\n      jump\t// out\n        /* \"src/My721.sol\":4548:4692  function isEOA(address to) public view returns (bool ret){... */\n    tag_34:\n        /* \"src/My721.sol\":4596:4604  bool ret */\n      0x00\n        /* \"src/My721.sol\":4668:4670  to */\n      dup2\n        /* \"src/My721.sol\":4656:4671  extcodesize(to) */\n      extcodesize\n        /* \"src/My721.sol\":4649:4672  iszero(extcodesize(to)) */\n      iszero\n        /* \"src/My721.sol\":4642:4672  ret := iszero(extcodesize(to)) */\n      swap1\n      pop\n        /* \"src/My721.sol\":4548:4692  function isEOA(address to) public view returns (bool ret){... */\n      swap2\n      swap1\n      pop\n      jump\t// out\n        /* \"src/My721.sol\":1957:2041  function name() external view returns (string memory){... */\n    tag_37:\n        /* \"src/My721.sol\":1996:2009  string memory */\n      0x60\n        /* \"src/My721.sol\":2028:2033  _name */\n      0x00\n        /* \"src/My721.sol\":2021:2033  return _name */\n      dup1\n      sload\n      tag_109\n      swap1\n      tag_110\n      jump\t// in\n    tag_109:\n      dup1\n      0x1f\n      add\n      0x20\n      dup1\n      swap2\n      div\n      mul\n      0x20\n      add\n      mload(0x40)\n      swap1\n      dup2\n      add\n      0x40\n      mstore\n      dup1\n      swap3\n      swap2\n      swap1\n      dup2\n      dup2\n      mstore\n      0x20\n      add\n      dup3\n      dup1\n      sload\n      tag_111\n      swap1\n      tag_110\n      jump\t// in\n    tag_111:\n      dup1\n      iszero\n      tag_112\n      jumpi\n      dup1\n      0x1f\n      lt\n      tag_113\n      jumpi\n      0x0100\n      dup1\n      dup4\n      sload\n      div\n      mul\n      dup4\n      mstore\n      swap2\n      0x20\n      add\n      swap2\n      jump(tag_112)\n    tag_113:\n      dup3\n      add\n      swap2\n      swap1\n      0x00\n      mstore\n      keccak256(0x00, 0x20)\n      swap1\n    tag_114:\n      dup2\n      sload\n      dup2\n      mstore\n      swap1\n      0x01\n      add\n      swap1\n      0x20\n      add\n      dup1\n      dup4\n      gt\n      tag_114\n      jumpi\n      dup3\n      swap1\n      sub\n      0x1f\n      and\n      dup3\n      add\n      swap2\n    tag_112:\n      pop\n      pop\n      pop\n      pop\n      pop\n      swap1\n      pop\n        /* \"src/My721.sol\":1957:2041  function name() external view returns (string memory){... */\n      swap1\n      jump\t// out\n        /* \"src/My721.sol\":803:824  address public minter */\n    tag_41:\n      0x03\n      0x00\n      swap1\n      sload\n      swap1\n      0x0100\n      exp\n      swap1\n      div\n      0xffffffffffffffffffffffffffffffffffffffff\n      and\n      dup2\n      jump\t// out\n        /* \"src/My721.sol\":11361:11490  function getApproved(uint256 tokenId) external view returns (address operator){... */\n    tag_47:\n        /* \"src/My721.sol\":11422:11438  address operator */\n      0x00\n        /* \"src/My721.sol\":11461:11473  tokenSpender */\n      0x06\n        /* \"src/My721.sol\":11461:11482  tokenSpender[tokenId] */\n      0x00\n        /* \"src/My721.sol\":11474:11481  tokenId */\n      dup4\n        /* \"src/My721.sol\":11461:11482  tokenSpender[tokenId] */\n      dup2\n      mstore\n      0x20\n      add\n      swap1\n      dup2\n      mstore\n      0x20\n      add\n      0x00\n      keccak256\n      0x00\n      swap1\n      sload\n      swap1\n      0x0100\n      exp\n      swap1\n      div\n      0xffffffffffffffffffffffffffffffffffffffff\n      and\n        /* \"src/My721.sol\":11454:11482  return tokenSpender[tokenId] */\n      swap1\n      pop\n        /* \"src/My721.sol\":11361:11490  function getApproved(uint256 tokenId) external view returns (address operator){... */\n      swap2\n      swap1\n      pop\n      jump\t// out\n        /* \"src/My721.sol\":9825:10125  function approve(address to, uint256 tokenId) external{... */\n    tag_52:\n        /* \"src/My721.sol\":9918:9920  to */\n      dup2\n        /* \"src/My721.sol\":9893:9920  tokenSpender[tokenId] == to */\n      0xffffffffffffffffffffffffffffffffffffffff\n      and\n        /* \"src/My721.sol\":9893:9905  tokenSpender */\n      0x06\n        /* \"src/My721.sol\":9893:9914  tokenSpender[tokenId] */\n      0x00\n        /* \"src/My721.sol\":9906:9913  tokenId */\n      dup4\n        /* \"src/My721.sol\":9893:9914  tokenSpender[tokenId] */\n      dup2\n      mstore\n      0x20\n      add\n      swap1\n      dup2\n      mstore\n      0x20\n      add\n      0x00\n      keccak256\n      0x00\n      swap1\n      sload\n      swap1\n      0x0100\n      exp\n      swap1\n      div\n      0xffffffffffffffffffffffffffffffffffffffff\n      and\n        /* \"src/My721.sol\":9893:9920  tokenSpender[tokenId] == to */\n      0xffffffffffffffffffffffffffffffffffffffff\n      and\n      sub\n        /* \"src/My721.sol\":9890:9979  if(tokenSpender[tokenId] == to){... */\n      tag_117\n      jumpi\n        /* \"src/My721.sol\":9936:9967  revert(\"token is Approved yet\") */\n      mload(0x40)\n      0x08c379a000000000000000000000000000000000000000000000000000000000\n      dup2\n      mstore\n      0x04\n      add\n      tag_118\n      swap1\n      tag_119\n      jump\t// in\n    tag_118:\n      mload(0x40)\n      dup1\n      swap2\n      sub\n      swap1\n      revert\n        /* \"src/My721.sol\":9890:9979  if(tokenSpender[tokenId] == to){... */\n    tag_117:\n        /* \"src/My721.sol\":10015:10017  to */\n      dup2\n        /* \"src/My721.sol\":9991:10003  tokenSpender */\n      0x06\n        /* \"src/My721.sol\":9991:10012  tokenSpender[tokenId] */\n      0x00\n        /* \"src/My721.sol\":10004:10011  tokenId */\n      dup4\n        /* \"src/My721.sol\":9991:10012  tokenSpender[tokenId] */\n      dup2\n      mstore\n      0x20\n      add\n      swap1\n      dup2\n      mstore\n      0x20\n      add\n      0x00\n      keccak256\n      0x00\n        /* \"src/My721.sol\":9991:10017  tokenSpender[tokenId] = to */\n      0x0100\n      exp\n      dup2\n      sload\n      dup2\n      0xffffffffffffffffffffffffffffffffffffffff\n      mul\n      not\n      and\n      swap1\n      dup4\n      0xffffffffffffffffffffffffffffffffffffffff\n      and\n      mul\n      or\n      swap1\n      sstore\n      pop\n        /* \"src/My721.sol\":10028:10038  allowences */\n      0x08\n        /* \"src/My721.sol\":10028:10050  allowences[msg.sender] */\n      0x00\n        /* \"src/My721.sol\":10039:10049  msg.sender */\n      caller\n        /* \"src/My721.sol\":10028:10050  allowences[msg.sender] */\n      0xffffffffffffffffffffffffffffffffffffffff\n      and\n      0xffffffffffffffffffffffffffffffffffffffff\n      and\n      dup2\n      mstore\n      0x20\n      add\n      swap1\n      dup2\n      mstore\n      0x20\n      add\n      0x00\n      keccak256\n        /* \"src/My721.sol\":10028:10054  allowences[msg.sender][to] */\n      0x00\n        /* \"src/My721.sol\":10051:10053  to */\n      dup4\n        /* \"src/My721.sol\":10028:10054  allowences[msg.sender][to] */\n      0xffffffffffffffffffffffffffffffffffffffff\n      and\n      0xffffffffffffffffffffffffffffffffffffffff\n      and\n      dup2\n      mstore\n      0x20\n      add\n      swap1\n      dup2\n      mstore\n      0x20\n      add\n      0x00\n      keccak256\n        /* \"src/My721.sol\":10060:10067  tokenId */\n      dup2\n        /* \"src/My721.sol\":10028:10068  allowences[msg.sender][to].push(tokenId) */\n      swap1\n      dup1\n      0x01\n      dup2\n      sload\n      add\n      dup1\n      dup3\n      sstore\n      dup1\n      swap2\n      pop\n      pop\n      0x01\n      swap1\n      sub\n      swap1\n      0x00\n      mstore\n      keccak256(0x00, 0x20)\n      add\n      0x00\n      swap1\n      swap2\n      swap1\n      swap2\n      swap1\n      swap2\n      pop\n      sstore\n        /* \"src/My721.sol\":10109:10116  tokenId */\n      dup1\n        /* \"src/My721.sol\":10105:10107  to */\n      dup3\n        /* \"src/My721.sol\":10084:10117  Approval(msg.sender, to, tokenId) */\n      0xffffffffffffffffffffffffffffffffffffffff\n      and\n        /* \"src/My721.sol\":10093:10103  msg.sender */\n      caller\n        /* \"src/My721.sol\":10084:10117  Approval(msg.sender, to, tokenId) */\n      0xffffffffffffffffffffffffffffffffffffffff\n      and\n      0x8c5be1e5ebec7d5bd14f71427d1e84f3dd0314c0f7b2291e5b200ac8c7c3b925\n      mload(0x40)\n      mload(0x40)\n      dup1\n      swap2\n      sub\n      swap1\n      log4\n        /* \"src/My721.sol\":9825:10125  function approve(address to, uint256 tokenId) external{... */\n      pop\n      pop\n      jump\t// out\n        /* \"src/My721.sol\":1552:1877  function mint() onlyCreator external returns (uint256) {... */\n    tag_54:\n        /* \"src/My721.sol\":1598:1605  uint256 */\n      0x00\n        /* \"src/My721.sol\":1450:1456  minter */\n      0x03\n      0x00\n      swap1\n      sload\n      swap1\n      0x0100\n      exp\n      swap1\n      div\n      0xffffffffffffffffffffffffffffffffffffffff\n      and\n        /* \"src/My721.sol\":1436:1456  msg.sender != minter */\n      0xffffffffffffffffffffffffffffffffffffffff\n      and\n        /* \"src/My721.sol\":1436:1446  msg.sender */\n      caller\n        /* \"src/My721.sol\":1436:1456  msg.sender != minter */\n      0xffffffffffffffffffffffffffffffffffffffff\n      and\n      eq\n        /* \"src/My721.sol\":1433:1525  if(msg.sender != minter){... */\n      tag_122\n      jumpi\n        /* \"src/My721.sol\":1502:1512  msg.sender */\n      caller\n        /* \"src/My721.sol\":1480:1513  SenderIsNotOwnerError(msg.sender) */\n      mload(0x40)\n      0x4c1cda0d00000000000000000000000000000000000000000000000000000000\n      dup2\n      mstore\n      0x04\n      add\n      tag_123\n      swap2\n      swap1\n      tag_43\n      jump\t// in\n    tag_123:\n      mload(0x40)\n      dup1\n      swap2\n      sub\n      swap1\n      revert\n        /* \"src/My721.sol\":1433:1525  if(msg.sender != minter){... */\n    tag_122:\n        /* \"src/My721.sol\":1618:1633  uint256 tokenId */\n      0x00\n        /* \"src/My721.sol\":1636:1643  _tokens */\n      0x04\n        /* \"src/My721.sol\":1636:1650  _tokens.length */\n      dup1\n      sload\n      swap1\n      pop\n        /* \"src/My721.sol\":1618:1650  uint256 tokenId = _tokens.length */\n      swap1\n      pop\n        /* \"src/My721.sol\":1700:1701  0 */\n      0x00\n        /* \"src/My721.sol\":1669:1702  tokenOwner[tokenId] == address(0) */\n      0xffffffffffffffffffffffffffffffffffffffff\n      and\n        /* \"src/My721.sol\":1669:1679  tokenOwner */\n      0x05\n        /* \"src/My721.sol\":1669:1688  tokenOwner[tokenId] */\n      0x00\n        /* \"src/My721.sol\":1680:1687  tokenId */\n      dup4\n        /* \"src/My721.sol\":1669:1688  tokenOwner[tokenId] */\n      dup2\n      mstore\n      0x20\n      add\n      swap1\n      dup2\n      mstore\n      0x20\n      add\n      0x00\n      keccak256\n      0x00\n      swap1\n      sload\n      swap1\n      0x0100\n      exp\n      swap1\n      div\n      0xffffffffffffffffffffffffffffffffffffffff\n      and\n        /* \"src/My721.sol\":1669:1702  tokenOwner[tokenId] == address(0) */\n      0xffffffffffffffffffffffffffffffffffffffff\n      and\n      eq\n        /* \"src/My721.sol\":1661:1721  require(tokenOwner[tokenId] == address(0), \"tokenId exists\") */\n      tag_125\n      jumpi\n      mload(0x40)\n      0x08c379a000000000000000000000000000000000000000000000000000000000\n      dup2\n      mstore\n      0x04\n      add\n      tag_126\n      swap1\n      tag_127\n      jump\t// in\n    tag_126:\n      mload(0x40)\n      dup1\n      swap2\n      sub\n      swap1\n      revert\n    tag_125:\n        /* \"src/My721.sol\":1754:1764  msg.sender */\n      caller\n        /* \"src/My721.sol\":1732:1742  tokenOwner */\n      0x05\n        /* \"src/My721.sol\":1732:1751  tokenOwner[tokenId] */\n      0x00\n        /* \"src/My721.sol\":1743:1750  tokenId */\n      dup4\n        /* \"src/My721.sol\":1732:1751  tokenOwner[tokenId] */\n      dup2\n      mstore\n      0x20\n      add\n      swap1\n      dup2\n      mstore\n      0x20\n      add\n      0x00\n      keccak256\n      0x00\n        /* \"src/My721.sol\":1732:1764  tokenOwner[tokenId] = msg.sender */\n      0x0100\n      exp\n      dup2\n      sload\n      dup2\n      0xffffffffffffffffffffffffffffffffffffffff\n      mul\n      not\n      and\n      swap1\n      dup4\n      0xffffffffffffffffffffffffffffffffffffffff\n      and\n      mul\n      or\n      swap1\n      sstore\n      pop\n        /* \"src/My721.sol\":1775:1786  ownerTokens */\n      0x07\n        /* \"src/My721.sol\":1775:1798  ownerTokens[msg.sender] */\n      0x00\n        /* \"src/My721.sol\":1787:1797  msg.sender */\n      caller\n        /* \"src/My721.sol\":1775:1798  ownerTokens[msg.sender] */\n      0xffffffffffffffffffffffffffffffffffffffff\n      and\n      0xffffffffffffffffffffffffffffffffffffffff\n      and\n      dup2\n      mstore\n      0x20\n      add\n      swap1\n      dup2\n      mstore\n      0x20\n      add\n      0x00\n      keccak256\n        /* \"src/My721.sol\":1804:1811  tokenId */\n      dup2\n        /* \"src/My721.sol\":1775:1812  ownerTokens[msg.sender].push(tokenId) */\n      swap1\n      dup1\n      0x01\n      dup2\n      sload\n      add\n      dup1\n      dup3\n      sstore\n      dup1\n      swap2\n      pop\n      pop\n      0x01\n      swap1\n      sub\n      swap1\n      0x00\n      mstore\n      keccak256(0x00, 0x20)\n      add\n      0x00\n      swap1\n      swap2\n      swap1\n      swap2\n      swap1\n      swap2\n      pop\n      sstore\n        /* \"src/My721.sol\":1823:1830  _tokens */\n      0x04\n        /* \"src/My721.sol\":1836:1843  tokenId */\n      dup2\n        /* \"src/My721.sol\":1823:1844  _tokens.push(tokenId) */\n      swap1\n      dup1\n      0x01\n      dup2\n      sload\n      add\n      dup1\n      dup3\n      sstore\n      dup1\n      swap2\n      pop\n      pop\n      0x01\n      swap1\n      sub\n      swap1\n      0x00\n      mstore\n      keccak256(0x00, 0x20)\n      add\n      0x00\n      swap1\n      swap2\n      swap1\n      swap2\n      swap1\n      swap2\n      pop\n      sstore\n        /* \"src/My721.sol\":1862:1869  tokenId */\n      dup1\n        /* \"src/My721.sol\":1855:1869  return tokenId */\n      swap2\n      pop\n      pop\n        /* \"src/My721.sol\":1552:1877  function mint() onlyCreator external returns (uint256) {... */\n      swap1\n      jump\t// out\n        /* \"src/My721.sol\":11927:12021  function totalSupply() external view returns (uint256){... */\n    tag_58:\n        /* \"src/My721.sol\":11973:11980  uint256 */\n      0x00\n        /* \"src/My721.sol\":11999:12006  _tokens */\n      0x04\n        /* \"src/My721.sol\":11999:12013  _tokens.length */\n      dup1\n      sload\n      swap1\n      pop\n        /* \"src/My721.sol\":11992:12013  return _tokens.length */\n      swap1\n      pop\n        /* \"src/My721.sol\":11927:12021  function totalSupply() external view returns (uint256){... */\n      swap1\n      jump\t// out\n        /* \"src/My721.sol\":6867:6990  function transferFrom(address from, address to, uint256 tokenId) external {... */\n    tag_63:\n        /* \"src/My721.sol\":6952:6982  _transferFrom(from,to,tokenId) */\n      tag_132\n        /* \"src/My721.sol\":6966:6970  from */\n      dup4\n        /* \"src/My721.sol\":6971:6973  to */\n      dup4\n        /* \"src/My721.sol\":6974:6981  tokenId */\n      dup4\n        /* \"src/My721.sol\":6952:6965  _transferFrom */\n      tag_133\n        /* \"src/My721.sol\":6952:6982  _transferFrom(from,to,tokenId) */\n      jump\t// in\n    tag_132:\n        /* \"src/My721.sol\":6867:6990  function transferFrom(address from, address to, uint256 tokenId) external {... */\n      pop\n      pop\n      pop\n      jump\t// out\n        /* \"src/My721.sol\":12209:12454  function tokenOfOwnerByIndex(address owner, uint256 index) external view returns (uint256){... */\n    tag_66:\n        /* \"src/My721.sol\":12291:12298  uint256 */\n      0x00\n        /* \"src/My721.sol\":12310:12334  uint256[] storage tokens */\n      dup1\n        /* \"src/My721.sol\":12337:12348  ownerTokens */\n      0x07\n        /* \"src/My721.sol\":12337:12355  ownerTokens[owner] */\n      0x00\n        /* \"src/My721.sol\":12349:12354  owner */\n      dup6\n        /* \"src/My721.sol\":12337:12355  ownerTokens[owner] */\n      0xffffffffffffffffffffffffffffffffffffffff\n      and\n      0xffffffffffffffffffffffffffffffffffffffff\n      and\n      dup2\n      mstore\n      0x20\n      add\n      swap1\n      dup2\n      mstore\n      0x20\n      add\n      0x00\n      keccak256\n        /* \"src/My721.sol\":12310:12355  uint256[] storage tokens = ownerTokens[owner] */\n      swap1\n      pop\n        /* \"src/My721.sol\":12382:12388  tokens */\n      dup1\n        /* \"src/My721.sol\":12382:12395  tokens.length */\n      dup1\n      sload\n      swap1\n      pop\n        /* \"src/My721.sol\":12374:12379  index */\n      dup4\n        /* \"src/My721.sol\":12374:12395  index < tokens.length */\n      lt\n        /* \"src/My721.sol\":12366:12415  require(index < tokens.length, \"index too large\") */\n      tag_135\n      jumpi\n      mload(0x40)\n      0x08c379a000000000000000000000000000000000000000000000000000000000\n      dup2\n      mstore\n      0x04\n      add\n      tag_136\n      swap1\n      tag_137\n      jump\t// in\n    tag_136:\n      mload(0x40)\n      dup1\n      swap2\n      sub\n      swap1\n      revert\n    tag_135:\n        /* \"src/My721.sol\":12433:12439  tokens */\n      dup1\n        /* \"src/My721.sol\":12440:12445  index */\n      dup4\n        /* \"src/My721.sol\":12433:12446  tokens[index] */\n      dup2\n      sload\n      dup2\n      lt\n      tag_138\n      jumpi\n      tag_139\n      tag_140\n      jump\t// in\n    tag_139:\n    tag_138:\n      swap1\n      0x00\n      mstore\n      keccak256(0x00, 0x20)\n      add\n      sload\n        /* \"src/My721.sol\":12426:12446  return tokens[index] */\n      swap2\n      pop\n      pop\n        /* \"src/My721.sol\":12209:12454  function tokenOfOwnerByIndex(address owner, uint256 index) external view returns (uint256){... */\n      swap3\n      swap2\n      pop\n      pop\n      jump\t// out\n        /* \"src/My721.sol\":5786:6041  function safeTransferFrom(address from, address to, uint256 tokenId) external{... */\n    tag_70:\n        /* \"src/My721.sol\":5878:5925  _checkERC721Receiver(from,to,tokenId,bytes(\"\")) */\n      tag_143\n        /* \"src/My721.sol\":5899:5903  from */\n      dup4\n        /* \"src/My721.sol\":5904:5906  to */\n      dup4\n        /* \"src/My721.sol\":5907:5914  tokenId */\n      dup4\n        /* \"src/My721.sol\":5915:5924  bytes(\"\") */\n      mload(0x40)\n      dup1\n      0x20\n      add\n      0x40\n      mstore\n      dup1\n      0x00\n      dup2\n      mstore\n      pop\n        /* \"src/My721.sol\":5878:5898  _checkERC721Receiver */\n      tag_144\n        /* \"src/My721.sol\":5878:5925  _checkERC721Receiver(from,to,tokenId,bytes(\"\")) */\n      jump\t// in\n    tag_143:\n        /* \"src/My721.sol\":5874:5990  if(!_checkERC721Receiver(from,to,tokenId,bytes(\"\"))){... */\n      tag_145\n      jumpi\n        /* \"src/My721.sol\":5941:5978  revert(\"_checkERC721Receiver failed\") */\n      mload(0x40)\n      0x08c379a000000000000000000000000000000000000000000000000000000000\n      dup2\n      mstore\n      0x04\n      add\n      tag_146\n      swap1\n      tag_147\n      jump\t// in\n    tag_146:\n      mload(0x40)\n      dup1\n      swap2\n      sub\n      swap1\n      revert\n        /* \"src/My721.sol\":5874:5990  if(!_checkERC721Receiver(from,to,tokenId,bytes(\"\"))){... */\n    tag_145:\n        /* \"src/My721.sol\":6000:6030  _transferFrom(from,to,tokenId) */\n      tag_148\n        /* \"src/My721.sol\":6014:6018  from */\n      dup4\n        /* \"src/My721.sol\":6019:6021  to */\n      dup4\n        /* \"src/My721.sol\":6022:6029  tokenId */\n      dup4\n        /* \"src/My721.sol\":6000:6013  _transferFrom */\n      tag_133\n        /* \"src/My721.sol\":6000:6030  _transferFrom(from,to,tokenId) */\n      jump\t// in\n    tag_148:\n        /* \"src/My721.sol\":5786:6041  function safeTransferFrom(address from, address to, uint256 tokenId) external{... */\n      pop\n      pop\n      pop\n      jump\t// out\n        /* \"src/My721.sol\":12635:12803  function tokenByIndex(uint256 index) external view returns (uint256){... */\n    tag_73:\n        /* \"src/My721.sol\":12695:12702  uint256 */\n      0x00\n        /* \"src/My721.sol\":12730:12737  _tokens */\n      0x04\n        /* \"src/My721.sol\":12730:12744  _tokens.length */\n      dup1\n      sload\n      swap1\n      pop\n        /* \"src/My721.sol\":12722:12727  index */\n      dup3\n        /* \"src/My721.sol\":12722:12744  index < _tokens.length */\n      lt\n        /* \"src/My721.sol\":12714:12763  require(index < _tokens.length,\"index too large\") */\n      tag_150\n      jumpi\n      mload(0x40)\n      0x08c379a000000000000000000000000000000000000000000000000000000000\n      dup2\n      mstore\n      0x04\n      add\n      tag_151\n      swap1\n      tag_137\n      jump\t// in\n    tag_151:\n      mload(0x40)\n      dup1\n      swap2\n      sub\n      swap1\n      revert\n    tag_150:\n        /* \"src/My721.sol\":12781:12788  _tokens */\n      0x04\n        /* \"src/My721.sol\":12789:12794  index */\n      dup3\n        /* \"src/My721.sol\":12781:12795  _tokens[index] */\n      dup2\n      sload\n      dup2\n      lt\n      tag_152\n      jumpi\n      tag_153\n      tag_140\n      jump\t// in\n    tag_153:\n    tag_152:\n      swap1\n      0x00\n      mstore\n      keccak256(0x00, 0x20)\n      add\n      sload\n        /* \"src/My721.sol\":12774:12795  return _tokens[index] */\n      swap1\n      pop\n        /* \"src/My721.sol\":12635:12803  function tokenByIndex(uint256 index) external view returns (uint256){... */\n      swap2\n      swap1\n      pop\n      jump\t// out\n        /* \"src/My721.sol\":3554:3670  function ownerOf(uint256 tokenId) external view returns (address owner){... */\n    tag_77:\n        /* \"src/My721.sol\":3611:3624  address owner */\n      0x00\n        /* \"src/My721.sol\":3643:3653  tokenOwner */\n      0x05\n        /* \"src/My721.sol\":3643:3662  tokenOwner[tokenId] */\n      0x00\n        /* \"src/My721.sol\":3654:3661  tokenId */\n      dup4\n        /* \"src/My721.sol\":3643:3662  tokenOwner[tokenId] */\n      dup2\n      mstore\n      0x20\n      add\n      swap1\n      dup2\n      mstore\n      0x20\n      add\n      0x00\n      keccak256\n      0x00\n      swap1\n      sload\n      swap1\n      0x0100\n      exp\n      swap1\n      div\n      0xffffffffffffffffffffffffffffffffffffffff\n      and\n        /* \"src/My721.sol\":3636:3662  return tokenOwner[tokenId] */\n      swap1\n      pop\n        /* \"src/My721.sol\":3554:3670  function ownerOf(uint256 tokenId) external view returns (address owner){... */\n      swap2\n      swap1\n      pop\n      jump\t// out\n        /* \"src/My721.sol\":3279:3403  function balanceOf(address owner) external view returns (uint256 balance){... */\n    tag_81:\n        /* \"src/My721.sol\":3336:3351  uint256 balance */\n      0x00\n        /* \"src/My721.sol\":3370:3381  ownerTokens */\n      0x07\n        /* \"src/My721.sol\":3370:3388  ownerTokens[owner] */\n      0x00\n        /* \"src/My721.sol\":3382:3387  owner */\n      dup4\n        /* \"src/My721.sol\":3370:3388  ownerTokens[owner] */\n      0xffffffffffffffffffffffffffffffffffffffff\n      and\n      0xffffffffffffffffffffffffffffffffffffffff\n      and\n      dup2\n      mstore\n      0x20\n      add\n      swap1\n      dup2\n      mstore\n      0x20\n      add\n      0x00\n      keccak256\n        /* \"src/My721.sol\":3370:3395  ownerTokens[owner].length */\n      dup1\n      sload\n      swap1\n      pop\n        /* \"src/My721.sol\":3363:3395  return ownerTokens[owner].length */\n      swap1\n      pop\n        /* \"src/My721.sol\":3279:3403  function balanceOf(address owner) external view returns (uint256 balance){... */\n      swap2\n      swap1\n      pop\n      jump\t// out\n        /* \"src/My721.sol\":2117:2205  function symbol() external view returns (string memory){... */\n    tag_84:\n        /* \"src/My721.sol\":2158:2171  string memory */\n      0x60\n        /* \"src/My721.sol\":2190:2197  _symbol */\n      0x01\n        /* \"src/My721.sol\":2183:2197  return _symbol */\n      dup1\n      sload\n      tag_158\n      swap1\n      tag_110\n      jump\t// in\n    tag_158:\n      dup1\n      0x1f\n      add\n      0x20\n      dup1\n      swap2\n      div\n      mul\n      0x20\n      add\n      mload(0x40)\n      swap1\n      dup2\n      add\n      0x40\n      mstore\n      dup1\n      swap3\n      swap2\n      swap1\n      dup2\n      dup2\n      mstore\n      0x20\n      add\n      dup3\n      dup1\n      sload\n      tag_159\n      swap1\n      tag_110\n      jump\t// in\n    tag_159:\n      dup1\n      iszero\n      tag_160\n      jumpi\n      dup1\n      0x1f\n      lt\n      tag_161\n      jumpi\n      0x0100\n      dup1\n      dup4\n      sload\n      div\n      mul\n      dup4\n      mstore\n      swap2\n      0x20\n      add\n      swap2\n      jump(tag_160)\n    tag_161:\n      dup3\n      add\n      swap2\n      swap1\n      0x00\n      mstore\n      keccak256(0x00, 0x20)\n      swap1\n    tag_162:\n      dup2\n      sload\n      dup2\n      mstore\n      swap1\n      0x01\n      add\n      swap1\n      0x20\n      add\n      dup1\n      dup4\n      gt\n      tag_162\n      jumpi\n      dup3\n      swap1\n      sub\n      0x1f\n      and\n      dup3\n      add\n      swap2\n    tag_160:\n      pop\n      pop\n      pop\n      pop\n      pop\n      swap1\n      pop\n        /* \"src/My721.sol\":2117:2205  function symbol() external view returns (string memory){... */\n      swap1\n      jump\t// out\n        /* \"src/My721.sol\":10463:11202  function setApprovalForAll(address operator, bool approved) external{... */\n    tag_89:\n        /* \"src/My721.sol\":10570:10571  0 */\n      0x00\n        /* \"src/My721.sol\":10550:10572  operator != address(0) */\n      0xffffffffffffffffffffffffffffffffffffffff\n      and\n        /* \"src/My721.sol\":10550:10558  operator */\n      dup3\n        /* \"src/My721.sol\":10550:10572  operator != address(0) */\n      0xffffffffffffffffffffffffffffffffffffffff\n      and\n      sub\n        /* \"src/My721.sol\":10542:10573  require(operator != address(0)) */\n      tag_164\n      jumpi\n      0x00\n      dup1\n      revert\n    tag_164:\n        /* \"src/My721.sol\":10584:10607  uint256[] memory tokens */\n      0x00\n        /* \"src/My721.sol\":10610:10621  ownerTokens */\n      0x07\n        /* \"src/My721.sol\":10610:10633  ownerTokens[msg.sender] */\n      0x00\n        /* \"src/My721.sol\":10622:10632  msg.sender */\n      caller\n        /* \"src/My721.sol\":10610:10633  ownerTokens[msg.sender] */\n      0xffffffffffffffffffffffffffffffffffffffff\n      and\n      0xffffffffffffffffffffffffffffffffffffffff\n      and\n      dup2\n      mstore\n      0x20\n      add\n      swap1\n      dup2\n      mstore\n      0x20\n      add\n      0x00\n      keccak256\n        /* \"src/My721.sol\":10584:10633  uint256[] memory tokens = ownerTokens[msg.sender] */\n      dup1\n      sload\n      dup1\n      0x20\n      mul\n      0x20\n      add\n      mload(0x40)\n      swap1\n      dup2\n      add\n      0x40\n      mstore\n      dup1\n      swap3\n      swap2\n      swap1\n      dup2\n      dup2\n      mstore\n      0x20\n      add\n      dup3\n      dup1\n      sload\n      dup1\n      iszero\n      tag_165\n      jumpi\n      0x20\n      mul\n      dup3\n      add\n      swap2\n      swap1\n      0x00\n      mstore\n      keccak256(0x00, 0x20)\n      swap1\n    tag_166:\n      dup2\n      sload\n      dup2\n      mstore\n      0x20\n      add\n      swap1\n      0x01\n      add\n      swap1\n      dup1\n      dup4\n      gt\n      tag_166\n      jumpi\n    tag_165:\n      pop\n      pop\n      pop\n      pop\n      pop\n      swap1\n      pop\n        /* \"src/My721.sol\":10644:10652  uint len */\n      0x00\n        /* \"src/My721.sol\":10655:10661  tokens */\n      dup2\n        /* \"src/My721.sol\":10655:10668  tokens.length */\n      mload\n        /* \"src/My721.sol\":10644:10668  uint len = tokens.length */\n      swap1\n      pop\n        /* \"src/My721.sol\":10683:10689  uint i */\n      0x00\n        /* \"src/My721.sol\":10679:10899  for(uint i = 0; i < len; ++ i){... */\n    tag_167:\n        /* \"src/My721.sol\":10699:10702  len */\n      dup2\n        /* \"src/My721.sol\":10695:10696  i */\n      dup2\n        /* \"src/My721.sol\":10695:10702  i < len */\n      lt\n        /* \"src/My721.sol\":10679:10899  for(uint i = 0; i < len; ++ i){... */\n      iszero\n      tag_168\n      jumpi\n        /* \"src/My721.sol\":10727:10735  approved */\n      dup4\n        /* \"src/My721.sol\":10724:10888  if(approved){... */\n      iszero\n      tag_170\n      jumpi\n        /* \"src/My721.sol\":10781:10789  operator */\n      dup5\n        /* \"src/My721.sol\":10755:10767  tokenSpender */\n      0x06\n        /* \"src/My721.sol\":10755:10778  tokenSpender[tokens[i]] */\n      0x00\n        /* \"src/My721.sol\":10768:10774  tokens */\n      dup6\n        /* \"src/My721.sol\":10775:10776  i */\n      dup5\n        /* \"src/My721.sol\":10768:10777  tokens[i] */\n      dup2\n      mload\n      dup2\n      lt\n      tag_171\n      jumpi\n      tag_172\n      tag_140\n      jump\t// in\n    tag_172:\n    tag_171:\n      0x20\n      mul\n      0x20\n      add\n      add\n      mload\n        /* \"src/My721.sol\":10755:10778  tokenSpender[tokens[i]] */\n      dup2\n      mstore\n      0x20\n      add\n      swap1\n      dup2\n      mstore\n      0x20\n      add\n      0x00\n      keccak256\n      0x00\n        /* \"src/My721.sol\":10755:10789  tokenSpender[tokens[i]] = operator */\n      0x0100\n      exp\n      dup2\n      sload\n      dup2\n      0xffffffffffffffffffffffffffffffffffffffff\n      mul\n      not\n      and\n      swap1\n      dup4\n      0xffffffffffffffffffffffffffffffffffffffff\n      and\n      mul\n      or\n      swap1\n      sstore\n      pop\n        /* \"src/My721.sol\":10724:10888  if(approved){... */\n      jump(tag_173)\n    tag_170:\n        /* \"src/My721.sol\":10849:10861  tokenSpender */\n      0x06\n        /* \"src/My721.sol\":10849:10872  tokenSpender[tokens[i]] */\n      0x00\n        /* \"src/My721.sol\":10862:10868  tokens */\n      dup5\n        /* \"src/My721.sol\":10869:10870  i */\n      dup4\n        /* \"src/My721.sol\":10862:10871  tokens[i] */\n      dup2\n      mload\n      dup2\n      lt\n      tag_174\n      jumpi\n      tag_175\n      tag_140\n      jump\t// in\n    tag_175:\n    tag_174:\n      0x20\n      mul\n      0x20\n      add\n      add\n      mload\n        /* \"src/My721.sol\":10849:10872  tokenSpender[tokens[i]] */\n      dup2\n      mstore\n      0x20\n      add\n      swap1\n      dup2\n      mstore\n      0x20\n      add\n      0x00\n      keccak256\n      0x00\n        /* \"src/My721.sol\":10842:10872  delete tokenSpender[tokens[i]] */\n      0x0100\n      exp\n      dup2\n      sload\n      swap1\n      0xffffffffffffffffffffffffffffffffffffffff\n      mul\n      not\n      and\n      swap1\n      sstore\n        /* \"src/My721.sol\":10724:10888  if(approved){... */\n    tag_173:\n        /* \"src/My721.sol\":10704:10708  ++ i */\n      dup1\n      0x01\n      add\n      swap1\n      pop\n        /* \"src/My721.sol\":10679:10899  for(uint i = 0; i < len; ++ i){... */\n      jump(tag_167)\n    tag_168:\n      pop\n        /* \"src/My721.sol\":10914:10922  approved */\n      dup3\n        /* \"src/My721.sol\":10911:11130  if(approved){... */\n      iszero\n      tag_176\n      jumpi\n        /* \"src/My721.sol\":10973:10979  tokens */\n      dup2\n        /* \"src/My721.sol\":10938:10948  allowences */\n      0x08\n        /* \"src/My721.sol\":10938:10960  allowences[msg.sender] */\n      0x00\n        /* \"src/My721.sol\":10949:10959  msg.sender */\n      caller\n        /* \"src/My721.sol\":10938:10960  allowences[msg.sender] */\n      0xffffffffffffffffffffffffffffffffffffffff\n      and\n      0xffffffffffffffffffffffffffffffffffffffff\n      and\n      dup2\n      mstore\n      0x20\n      add\n      swap1\n      dup2\n      mstore\n      0x20\n      add\n      0x00\n      keccak256\n        /* \"src/My721.sol\":10938:10970  allowences[msg.sender][operator] */\n      0x00\n        /* \"src/My721.sol\":10961:10969  operator */\n      dup7\n        /* \"src/My721.sol\":10938:10970  allowences[msg.sender][operator] */\n      0xffffffffffffffffffffffffffffffffffffffff\n      and\n      0xffffffffffffffffffffffffffffffffffffffff\n      and\n      dup2\n      mstore\n      0x20\n      add\n      swap1\n      dup2\n      mstore\n      0x20\n      add\n      0x00\n      keccak256\n        /* \"src/My721.sol\":10938:10979  allowences[msg.sender][operator] = tokens */\n      swap1\n      dup1\n      mload\n      swap1\n      0x20\n      add\n      swap1\n      tag_177\n      swap3\n      swap2\n      swap1\n      tag_178\n      jump\t// in\n    tag_177:\n      pop\n        /* \"src/My721.sol\":10911:11130  if(approved){... */\n      jump(tag_179)\n    tag_176:\n        /* \"src/My721.sol\":11051:11052  0 */\n      0x00\n        /* \"src/My721.sol\":11009:11019  allowences */\n      0x08\n        /* \"src/My721.sol\":11009:11031  allowences[msg.sender] */\n      0x00\n        /* \"src/My721.sol\":11020:11030  msg.sender */\n      caller\n        /* \"src/My721.sol\":11009:11031  allowences[msg.sender] */\n      0xffffffffffffffffffffffffffffffffffffffff\n      and\n      0xffffffffffffffffffffffffffffffffffffffff\n      and\n      dup2\n      mstore\n      0x20\n      add\n      swap1\n      dup2\n      mstore\n      0x20\n      add\n      0x00\n      keccak256\n        /* \"src/My721.sol\":11009:11041  allowences[msg.sender][operator] */\n      0x00\n        /* \"src/My721.sol\":11032:11040  operator */\n      dup7\n        /* \"src/My721.sol\":11009:11041  allowences[msg.sender][operator] */\n      0xffffffffffffffffffffffffffffffffffffffff\n      and\n      0xffffffffffffffffffffffffffffffffffffffff\n      and\n      dup2\n      mstore\n      0x20\n      add\n      swap1\n      dup2\n      mstore\n      0x20\n      add\n      0x00\n      keccak256\n        /* \"src/My721.sol\":11009:11048  allowences[msg.sender][operator].length */\n      dup1\n      sload\n      swap1\n      pop\n        /* \"src/My721.sol\":11009:11052  allowences[msg.sender][operator].length > 0 */\n      gt\n        /* \"src/My721.sol\":11006:11130  if(allowences[msg.sender][operator].length > 0 ) {... */\n      iszero\n      tag_180\n      jumpi\n        /* \"src/My721.sol\":11116:11117  0 */\n      0x00\n        /* \"src/My721.sol\":11105:11118  new uint[](0) */\n      0xffffffffffffffff\n      dup2\n      gt\n      iszero\n      tag_181\n      jumpi\n      tag_182\n      tag_183\n      jump\t// in\n    tag_182:\n    tag_181:\n      mload(0x40)\n      swap1\n      dup1\n      dup3\n      mstore\n      dup1\n      0x20\n      mul\n      0x20\n      add\n      dup3\n      add\n      0x40\n      mstore\n      dup1\n      iszero\n      tag_184\n      jumpi\n      dup2\n      0x20\n      add\n      0x20\n      dup3\n      mul\n      dup1\n      calldatasize\n      dup4\n      calldatacopy\n      dup1\n      dup3\n      add\n      swap2\n      pop\n      pop\n      swap1\n      pop\n    tag_184:\n      pop\n        /* \"src/My721.sol\":11070:11080  allowences */\n      0x08\n        /* \"src/My721.sol\":11070:11092  allowences[msg.sender] */\n      0x00\n        /* \"src/My721.sol\":11081:11091  msg.sender */\n      caller\n        /* \"src/My721.sol\":11070:11092  allowences[msg.sender] */\n      0xffffffffffffffffffffffffffffffffffffffff\n      and\n      0xffffffffffffffffffffffffffffffffffffffff\n      and\n      dup2\n      mstore\n      0x20\n      add\n      swap1\n      dup2\n      mstore\n      0x20\n      add\n      0x00\n      keccak256\n        /* \"src/My721.sol\":11070:11102  allowences[msg.sender][operator] */\n      0x00\n        /* \"src/My721.sol\":11093:11101  operator */\n      dup7\n        /* \"src/My721.sol\":11070:11102  allowences[msg.sender][operator] */\n      0xffffffffffffffffffffffffffffffffffffffff\n      and\n      0xffffffffffffffffffffffffffffffffffffffff\n      and\n      dup2\n      mstore\n      0x20\n      add\n      swap1\n      dup2\n      mstore\n      0x20\n      add\n      0x00\n      keccak256\n        /* \"src/My721.sol\":11070:11118  allowences[msg.sender][operator] = new uint[](0) */\n      swap1\n      dup1\n      mload\n      swap1\n      0x20\n      add\n      swap1\n      tag_185\n      swap3\n      swap2\n      swap1\n      tag_178\n      jump\t// in\n    tag_185:\n      pop\n        /* \"src/My721.sol\":11006:11130  if(allowences[msg.sender][operator].length > 0 ) {... */\n    tag_180:\n        /* \"src/My721.sol\":10911:11130  if(approved){... */\n    tag_179:\n        /* \"src/My721.sol\":11174:11182  operator */\n      dup4\n        /* \"src/My721.sol\":11147:11194  ApprovalForAll(msg.sender, operator,  approved) */\n      0xffffffffffffffffffffffffffffffffffffffff\n      and\n        /* \"src/My721.sol\":11162:11172  msg.sender */\n      caller\n        /* \"src/My721.sol\":11147:11194  ApprovalForAll(msg.sender, operator,  approved) */\n      0xffffffffffffffffffffffffffffffffffffffff\n      and\n      0x17307eab39ab6107e8899845ad3d59bd9653f200f220920489ca2b5937696c31\n        /* \"src/My721.sol\":11185:11193  approved */\n      dup6\n        /* \"src/My721.sol\":11147:11194  ApprovalForAll(msg.sender, operator,  approved) */\n      mload(0x40)\n      tag_186\n      swap2\n      swap1\n      tag_30\n      jump\t// in\n    tag_186:\n      mload(0x40)\n      dup1\n      swap2\n      sub\n      swap1\n      log3\n        /* \"src/My721.sol\":10531:11202  {... */\n      pop\n      pop\n        /* \"src/My721.sol\":10463:11202  function setApprovalForAll(address operator, bool approved) external{... */\n      pop\n      pop\n      jump\t// out\n        /* \"src/My721.sol\":4262:4540  function safeTransferFrom(address from, address to, uint256 tokenId, bytes calldata data) external{... */\n    tag_93:\n        /* \"src/My721.sol\":4377:4419  _checkERC721Receiver(from,to,tokenId,data) */\n      tag_188\n        /* \"src/My721.sol\":4398:4402  from */\n      dup6\n        /* \"src/My721.sol\":4403:4405  to */\n      dup6\n        /* \"src/My721.sol\":4406:4413  tokenId */\n      dup6\n        /* \"src/My721.sol\":4414:4418  data */\n      dup6\n      dup6\n        /* \"src/My721.sol\":4377:4419  _checkERC721Receiver(from,to,tokenId,data) */\n      dup1\n      dup1\n      0x1f\n      add\n      0x20\n      dup1\n      swap2\n      div\n      mul\n      0x20\n      add\n      mload(0x40)\n      swap1\n      dup2\n      add\n      0x40\n      mstore\n      dup1\n      swap4\n      swap3\n      swap2\n      swap1\n      dup2\n      dup2\n      mstore\n      0x20\n      add\n      dup4\n      dup4\n      dup1\n      dup3\n      dup5\n      calldatacopy\n      0x00\n      dup2\n      dup5\n      add\n      mstore\n      not(0x1f)\n      0x1f\n      dup3\n      add\n      and\n      swap1\n      pop\n      dup1\n      dup4\n      add\n      swap3\n      pop\n      pop\n      pop\n      pop\n      pop\n      pop\n      pop\n        /* \"src/My721.sol\":4377:4397  _checkERC721Receiver */\n      tag_144\n        /* \"src/My721.sol\":4377:4419  _checkERC721Receiver(from,to,tokenId,data) */\n      jump\t// in\n    tag_188:\n        /* \"src/My721.sol\":4373:4484  if(!_checkERC721Receiver(from,to,tokenId,data)){... */\n      tag_189\n      jumpi\n        /* \"src/My721.sol\":4435:4472  revert(\"_checkERC721Receiver failed\") */\n      mload(0x40)\n      0x08c379a000000000000000000000000000000000000000000000000000000000\n      dup2\n      mstore\n      0x04\n      add\n      tag_190\n      swap1\n      tag_147\n      jump\t// in\n    tag_190:\n      mload(0x40)\n      dup1\n      swap2\n      sub\n      swap1\n      revert\n        /* \"src/My721.sol\":4373:4484  if(!_checkERC721Receiver(from,to,tokenId,data)){... */\n    tag_189:\n        /* \"src/My721.sol\":4494:4524  _transferFrom(from,to,tokenId) */\n      tag_191\n        /* \"src/My721.sol\":4508:4512  from */\n      dup6\n        /* \"src/My721.sol\":4513:4515  to */\n      dup6\n        /* \"src/My721.sol\":4516:4523  tokenId */\n      dup6\n        /* \"src/My721.sol\":4494:4507  _transferFrom */\n      tag_133\n        /* \"src/My721.sol\":4494:4524  _transferFrom(from,to,tokenId) */\n      jump\t// in\n    tag_191:\n        /* \"src/My721.sol\":4262:4540  function safeTransferFrom(address from, address to, uint256 tokenId, bytes calldata data) external{... */\n      pop\n      pop\n      pop\n      pop\n      pop\n      jump\t// out\n        /* \"src/My721.sol\":2315:2462  function tokenURI(uint256 tokenId) external view returns (string memory){... */\n    tag_96:\n        /* \"src/My721.sol\":2373:2386  string memory */\n      0x60\n        /* \"src/My721.sol\":2419:2427  _baseURI */\n      0x02\n        /* \"src/My721.sol\":2428:2453  Strings.toString(tokenId) */\n      tag_193\n        /* \"src/My721.sol\":2445:2452  tokenId */\n      dup4\n        /* \"src/My721.sol\":2428:2444  Strings.toString */\n      tag_194\n        /* \"src/My721.sol\":2428:2453  Strings.toString(tokenId) */\n      jump\t// in\n    tag_193:\n        /* \"src/My721.sol\":2405:2454  string.concat(_baseURI,Strings.toString(tokenId)) */\n      add(0x20, mload(0x40))\n      tag_195\n      swap3\n      swap2\n      swap1\n      tag_196\n      jump\t// in\n    tag_195:\n      mload(0x40)\n      0x20\n      dup2\n      dup4\n      sub\n      sub\n      dup2\n      mstore\n      swap1\n      0x40\n      mstore\n        /* \"src/My721.sol\":2398:2454  return string.concat(_baseURI,Strings.toString(tokenId)) */\n      swap1\n      pop\n        /* \"src/My721.sol\":2315:2462  function tokenURI(uint256 tokenId) external view returns (string memory){... */\n      swap2\n      swap1\n      pop\n      jump\t// out\n        /* \"src/My721.sol\":11646:11822  function isApprovedForAll(address owner, address operator) external view returns (bool){... */\n    tag_101:\n        /* \"src/My721.sol\":11728:11732  bool */\n      0x00\n        /* \"src/My721.sol\":11789:11800  ownerTokens */\n      0x07\n        /* \"src/My721.sol\":11789:11807  ownerTokens[owner] */\n      0x00\n        /* \"src/My721.sol\":11801:11806  owner */\n      dup5\n        /* \"src/My721.sol\":11789:11807  ownerTokens[owner] */\n      0xffffffffffffffffffffffffffffffffffffffff\n      and\n      0xffffffffffffffffffffffffffffffffffffffff\n      and\n      dup2\n      mstore\n      0x20\n      add\n      swap1\n      dup2\n      mstore\n      0x20\n      add\n      0x00\n      keccak256\n        /* \"src/My721.sol\":11789:11814  ownerTokens[owner].length */\n      dup1\n      sload\n      swap1\n      pop\n        /* \"src/My721.sol\":11751:11761  allowences */\n      0x08\n        /* \"src/My721.sol\":11751:11768  allowences[owner] */\n      0x00\n        /* \"src/My721.sol\":11762:11767  owner */\n      dup6\n        /* \"src/My721.sol\":11751:11768  allowences[owner] */\n      0xffffffffffffffffffffffffffffffffffffffff\n      and\n      0xffffffffffffffffffffffffffffffffffffffff\n      and\n      dup2\n      mstore\n      0x20\n      add\n      swap1\n      dup2\n      mstore\n      0x20\n      add\n      0x00\n      keccak256\n        /* \"src/My721.sol\":11751:11778  allowences[owner][operator] */\n      0x00\n        /* \"src/My721.sol\":11769:11777  operator */\n      dup5\n        /* \"src/My721.sol\":11751:11778  allowences[owner][operator] */\n      0xffffffffffffffffffffffffffffffffffffffff\n      and\n      0xffffffffffffffffffffffffffffffffffffffff\n      and\n      dup2\n      mstore\n      0x20\n      add\n      swap1\n      dup2\n      mstore\n      0x20\n      add\n      0x00\n      keccak256\n        /* \"src/My721.sol\":11751:11785  allowences[owner][operator].length */\n      dup1\n      sload\n      swap1\n      pop\n        /* \"src/My721.sol\":11751:11814  allowences[owner][operator].length == ownerTokens[owner].length */\n      eq\n        /* \"src/My721.sol\":11744:11814  return allowences[owner][operator].length == ownerTokens[owner].length */\n      swap1\n      pop\n        /* \"src/My721.sol\":11646:11822  function isApprovedForAll(address owner, address operator) external view returns (bool){... */\n      swap3\n      swap2\n      pop\n      pop\n      jump\t// out\n        /* \"src/My721.sol\":7765:9345  function _transferFrom(address from, address to, uint256 tokenId) internal {... */\n    tag_133:\n        /* \"src/My721.sol\":7875:7876  0 */\n      0x00\n        /* \"src/My721.sol\":7859:7877  from != address(0) */\n      0xffffffffffffffffffffffffffffffffffffffff\n      and\n        /* \"src/My721.sol\":7859:7863  from */\n      dup4\n        /* \"src/My721.sol\":7859:7877  from != address(0) */\n      0xffffffffffffffffffffffffffffffffffffffff\n      and\n      eq\n      iszero\n        /* \"src/My721.sol\":7859:7897  from != address(0) && to != address(0) */\n      dup1\n      iszero\n      tag_199\n      jumpi\n      pop\n        /* \"src/My721.sol\":7895:7896  0 */\n      0x00\n        /* \"src/My721.sol\":7881:7897  to != address(0) */\n      0xffffffffffffffffffffffffffffffffffffffff\n      and\n        /* \"src/My721.sol\":7881:7883  to */\n      dup3\n        /* \"src/My721.sol\":7881:7897  to != address(0) */\n      0xffffffffffffffffffffffffffffffffffffffff\n      and\n      eq\n      iszero\n        /* \"src/My721.sol\":7859:7897  from != address(0) && to != address(0) */\n    tag_199:\n        /* \"src/My721.sol\":7851:7923  require(from != address(0) && to != address(0),\"unsupport zero address\") */\n      tag_200\n      jumpi\n      mload(0x40)\n      0x08c379a000000000000000000000000000000000000000000000000000000000\n      dup2\n      mstore\n      0x04\n      add\n      tag_201\n      swap1\n      tag_202\n      jump\t// in\n    tag_201:\n      mload(0x40)\n      dup1\n      swap2\n      sub\n      swap1\n      revert\n    tag_200:\n        /* \"src/My721.sol\":7965:7969  from */\n      dup3\n        /* \"src/My721.sol\":7942:7969  tokenOwner[tokenId] == from */\n      0xffffffffffffffffffffffffffffffffffffffff\n      and\n        /* \"src/My721.sol\":7942:7952  tokenOwner */\n      0x05\n        /* \"src/My721.sol\":7942:7961  tokenOwner[tokenId] */\n      0x00\n        /* \"src/My721.sol\":7953:7960  tokenId */\n      dup4\n        /* \"src/My721.sol\":7942:7961  tokenOwner[tokenId] */\n      dup2\n      mstore\n      0x20\n      add\n      swap1\n      dup2\n      mstore\n      0x20\n      add\n      0x00\n      keccak256\n      0x00\n      swap1\n      sload\n      swap1\n      0x0100\n      exp\n      swap1\n      div\n      0xffffffffffffffffffffffffffffffffffffffff\n      and\n        /* \"src/My721.sol\":7942:7969  tokenOwner[tokenId] == from */\n      0xffffffffffffffffffffffffffffffffffffffff\n      and\n      eq\n        /* \"src/My721.sol\":7934:8013  require(tokenOwner[tokenId] == from,\"tokenId owner is not equal from address\" ) */\n      tag_203\n      jumpi\n      mload(0x40)\n      0x08c379a000000000000000000000000000000000000000000000000000000000\n      dup2\n      mstore\n      0x04\n      add\n      tag_204\n      swap1\n      tag_205\n      jump\t// in\n    tag_204:\n      mload(0x40)\n      dup1\n      swap2\n      sub\n      swap1\n      revert\n    tag_203:\n        /* \"src/My721.sol\":8024:8036  bool isOwner */\n      0x00\n        /* \"src/My721.sol\":8055:8069  bool isSpender */\n      dup1\n        /* \"src/My721.sol\":8099:8109  msg.sender */\n      caller\n        /* \"src/My721.sol\":8091:8109  from == msg.sender */\n      0xffffffffffffffffffffffffffffffffffffffff\n      and\n        /* \"src/My721.sol\":8091:8095  from */\n      dup6\n        /* \"src/My721.sol\":8091:8109  from == msg.sender */\n      0xffffffffffffffffffffffffffffffffffffffff\n      and\n      sub\n        /* \"src/My721.sol\":8088:8239  if(from == msg.sender){... */\n      tag_206\n      jumpi\n        /* \"src/My721.sol\":8135:8139  true */\n      0x01\n        /* \"src/My721.sol\":8125:8139  isOwner = true */\n      swap2\n      pop\n        /* \"src/My721.sol\":8088:8239  if(from == msg.sender){... */\n      jump(tag_207)\n    tag_206:\n        /* \"src/My721.sol\":8217:8227  msg.sender */\n      caller\n        /* \"src/My721.sol\":8192:8227  tokenSpender[tokenId] == msg.sender */\n      0xffffffffffffffffffffffffffffffffffffffff\n      and\n        /* \"src/My721.sol\":8192:8204  tokenSpender */\n      0x06\n        /* \"src/My721.sol\":8192:8213  tokenSpender[tokenId] */\n      0x00\n        /* \"src/My721.sol\":8205:8212  tokenId */\n      dup6\n        /* \"src/My721.sol\":8192:8213  tokenSpender[tokenId] */\n      dup2\n      mstore\n      0x20\n      add\n      swap1\n      dup2\n      mstore\n      0x20\n      add\n      0x00\n      keccak256\n      0x00\n      swap1\n      sload\n      swap1\n      0x0100\n      exp\n      swap1\n      div\n      0xffffffffffffffffffffffffffffffffffffffff\n      and\n        /* \"src/My721.sol\":8192:8227  tokenSpender[tokenId] == msg.sender */\n      0xffffffffffffffffffffffffffffffffffffffff\n      and\n      eq\n        /* \"src/My721.sol\":8180:8227  isSpender = tokenSpender[tokenId] == msg.sender */\n      swap1\n      pop\n        /* \"src/My721.sol\":8088:8239  if(from == msg.sender){... */\n    tag_207:\n        /* \"src/My721.sol\":8263:8270  isOwner */\n      dup2\n        /* \"src/My721.sol\":8262:8270  !isOwner */\n      iszero\n        /* \"src/My721.sol\":8262:8284  !isOwner && !isSpender */\n      dup1\n      iszero\n      tag_208\n      jumpi\n      pop\n        /* \"src/My721.sol\":8275:8284  isSpender */\n      dup1\n        /* \"src/My721.sol\":8274:8284  !isSpender */\n      iszero\n        /* \"src/My721.sol\":8262:8284  !isOwner && !isSpender */\n    tag_208:\n        /* \"src/My721.sol\":8259:8353  if(!isOwner && !isSpender){... */\n      iszero\n      tag_209\n      jumpi\n        /* \"src/My721.sol\":8328:8335  tokenId */\n      dup3\n        /* \"src/My721.sol\":8336:8340  from */\n      dup6\n        /* \"src/My721.sol\":8307:8341  NotOwnerOfTokenError(tokenId,from) */\n      mload(0x40)\n      0xa2e7fded00000000000000000000000000000000000000000000000000000000\n      dup2\n      mstore\n      0x04\n      add\n      tag_210\n      swap3\n      swap2\n      swap1\n      tag_211\n      jump\t// in\n    tag_210:\n      mload(0x40)\n      dup1\n      swap2\n      sub\n      swap1\n      revert\n        /* \"src/My721.sol\":8259:8353  if(!isOwner && !isSpender){... */\n    tag_209:\n        /* \"src/My721.sol\":8395:8397  to */\n      dup4\n        /* \"src/My721.sol\":8373:8383  tokenOwner */\n      0x05\n        /* \"src/My721.sol\":8373:8392  tokenOwner[tokenId] */\n      0x00\n        /* \"src/My721.sol\":8384:8391  tokenId */\n      dup6\n        /* \"src/My721.sol\":8373:8392  tokenOwner[tokenId] */\n      dup2\n      mstore\n      0x20\n      add\n      swap1\n      dup2\n      mstore\n      0x20\n      add\n      0x00\n      keccak256\n      0x00\n        /* \"src/My721.sol\":8373:8397  tokenOwner[tokenId] = to */\n      0x0100\n      exp\n      dup2\n      sload\n      dup2\n      0xffffffffffffffffffffffffffffffffffffffff\n      mul\n      not\n      and\n      swap1\n      dup4\n      0xffffffffffffffffffffffffffffffffffffffff\n      and\n      mul\n      or\n      swap1\n      sstore\n      pop\n        /* \"src/My721.sol\":8415:8427  tokenSpender */\n      0x06\n        /* \"src/My721.sol\":8415:8436  tokenSpender[tokenId] */\n      0x00\n        /* \"src/My721.sol\":8428:8435  tokenId */\n      dup5\n        /* \"src/My721.sol\":8415:8436  tokenSpender[tokenId] */\n      dup2\n      mstore\n      0x20\n      add\n      swap1\n      dup2\n      mstore\n      0x20\n      add\n      0x00\n      keccak256\n      0x00\n        /* \"src/My721.sol\":8408:8436  delete tokenSpender[tokenId] */\n      0x0100\n      exp\n      dup2\n      sload\n      swap1\n      0xffffffffffffffffffffffffffffffffffffffff\n      mul\n      not\n      and\n      swap1\n      sstore\n        /* \"src/My721.sol\":8447:8458  ownerTokens */\n      0x07\n        /* \"src/My721.sol\":8447:8462  ownerTokens[to] */\n      0x00\n        /* \"src/My721.sol\":8459:8461  to */\n      dup6\n        /* \"src/My721.sol\":8447:8462  ownerTokens[to] */\n      0xffffffffffffffffffffffffffffffffffffffff\n      and\n      0xffffffffffffffffffffffffffffffffffffffff\n      and\n      dup2\n      mstore\n      0x20\n      add\n      swap1\n      dup2\n      mstore\n      0x20\n      add\n      0x00\n      keccak256\n        /* \"src/My721.sol\":8468:8475  tokenId */\n      dup4\n        /* \"src/My721.sol\":8447:8476  ownerTokens[to].push(tokenId) */\n      swap1\n      dup1\n      0x01\n      dup2\n      sload\n      add\n      dup1\n      dup3\n      sstore\n      dup1\n      swap2\n      pop\n      pop\n      0x01\n      swap1\n      sub\n      swap1\n      0x00\n      mstore\n      keccak256(0x00, 0x20)\n      add\n      0x00\n      swap1\n      swap2\n      swap1\n      swap2\n      swap1\n      swap2\n      pop\n      sstore\n        /* \"src/My721.sol\":8487:8512  uint256 [] storage tokens */\n      0x00\n        /* \"src/My721.sol\":8515:8526  ownerTokens */\n      0x07\n        /* \"src/My721.sol\":8515:8532  ownerTokens[from] */\n      0x00\n        /* \"src/My721.sol\":8527:8531  from */\n      dup8\n        /* \"src/My721.sol\":8515:8532  ownerTokens[from] */\n      0xffffffffffffffffffffffffffffffffffffffff\n      and\n      0xffffffffffffffffffffffffffffffffffffffff\n      and\n      dup2\n      mstore\n      0x20\n      add\n      swap1\n      dup2\n      mstore\n      0x20\n      add\n      0x00\n      keccak256\n        /* \"src/My721.sol\":8487:8532  uint256 [] storage tokens = ownerTokens[from] */\n      swap1\n      pop\n        /* \"src/My721.sol\":8578:8579  0 */\n      0x00\n        /* \"src/My721.sol\":8562:8568  tokens */\n      dup2\n        /* \"src/My721.sol\":8562:8575  tokens.length */\n      dup1\n      sload\n      swap1\n      pop\n        /* \"src/My721.sol\":8562:8579  tokens.length > 0 */\n      gt\n        /* \"src/My721.sol\":8555:8580  assert(tokens.length > 0) */\n      tag_213\n      jumpi\n      tag_214\n      tag_215\n      jump\t// in\n    tag_214:\n    tag_213:\n        /* \"src/My721.sol\":8591:8603  uint256 last */\n      0x00\n        /* \"src/My721.sol\":8621:8622  1 */\n      0x01\n        /* \"src/My721.sol\":8606:8612  tokens */\n      dup3\n        /* \"src/My721.sol\":8606:8619  tokens.length */\n      dup1\n      sload\n      swap1\n      pop\n        /* \"src/My721.sol\":8606:8622  tokens.length -1 */\n      tag_216\n      swap2\n      swap1\n      tag_217\n      jump\t// in\n    tag_216:\n        /* \"src/My721.sol\":8591:8622  uint256 last = tokens.length -1 */\n      swap1\n      pop\n        /* \"src/My721.sol\":8639:8648  uint256 i */\n      0x00\n        /* \"src/My721.sol\":8634:8804  for( uint256 i = 0;  i < last ; ++ i){... */\n    tag_218:\n        /* \"src/My721.sol\":8659:8663  last */\n      dup2\n        /* \"src/My721.sol\":8655:8656  i */\n      dup2\n        /* \"src/My721.sol\":8655:8663  i < last */\n      lt\n        /* \"src/My721.sol\":8634:8804  for( uint256 i = 0;  i < last ; ++ i){... */\n      iszero\n      tag_219\n      jumpi\n        /* \"src/My721.sol\":8700:8706  tokens */\n      dup3\n        /* \"src/My721.sol\":8707:8708  i */\n      dup2\n        /* \"src/My721.sol\":8700:8709  tokens[i] */\n      dup2\n      sload\n      dup2\n      lt\n      tag_221\n      jumpi\n      tag_222\n      tag_140\n      jump\t// in\n    tag_222:\n    tag_221:\n      swap1\n      0x00\n      mstore\n      keccak256(0x00, 0x20)\n      add\n      sload\n        /* \"src/My721.sol\":8689:8696  tokenId */\n      dup7\n        /* \"src/My721.sol\":8689:8709  tokenId == tokens[i] */\n      sub\n        /* \"src/My721.sol\":8686:8793  if(tokenId == tokens[i]){... */\n      tag_224\n      jumpi\n        /* \"src/My721.sol\":8741:8747  tokens */\n      dup3\n        /* \"src/My721.sol\":8748:8752  last */\n      dup3\n        /* \"src/My721.sol\":8741:8753  tokens[last] */\n      dup2\n      sload\n      dup2\n      lt\n      tag_225\n      jumpi\n      tag_226\n      tag_140\n      jump\t// in\n    tag_226:\n    tag_225:\n      swap1\n      0x00\n      mstore\n      keccak256(0x00, 0x20)\n      add\n      sload\n        /* \"src/My721.sol\":8729:8735  tokens */\n      dup4\n        /* \"src/My721.sol\":8736:8737  i */\n      dup3\n        /* \"src/My721.sol\":8729:8738  tokens[i] */\n      dup2\n      sload\n      dup2\n      lt\n      tag_228\n      jumpi\n      tag_229\n      tag_140\n      jump\t// in\n    tag_229:\n    tag_228:\n      swap1\n      0x00\n      mstore\n      keccak256(0x00, 0x20)\n      add\n        /* \"src/My721.sol\":8729:8753  tokens[i] = tokens[last] */\n      dup2\n      swap1\n      sstore\n      pop\n        /* \"src/My721.sol\":8772:8777  break */\n      jump(tag_219)\n        /* \"src/My721.sol\":8686:8793  if(tokenId == tokens[i]){... */\n    tag_224:\n        /* \"src/My721.sol\":8666:8670  ++ i */\n      dup1\n      0x01\n      add\n      swap1\n      pop\n        /* \"src/My721.sol\":8634:8804  for( uint256 i = 0;  i < last ; ++ i){... */\n      jump(tag_218)\n    tag_219:\n      pop\n        /* \"src/My721.sol\":8814:8820  tokens */\n      dup2\n        /* \"src/My721.sol\":8814:8826  tokens.pop() */\n      dup1\n      sload\n      dup1\n      tag_231\n      jumpi\n      tag_232\n      tag_233\n      jump\t// in\n    tag_232:\n    tag_231:\n      0x01\n      swap1\n      sub\n      dup2\n      dup2\n      swap1\n      0x00\n      mstore\n      keccak256(0x00, 0x20)\n      add\n      0x00\n      swap1\n      sstore\n      swap1\n      sstore\n        /* \"src/My721.sol\":8869:8876  tokenId */\n      dup5\n        /* \"src/My721.sol\":8866:8868  to */\n      dup7\n        /* \"src/My721.sol\":8852:8877  Transfer(from,to,tokenId) */\n      0xffffffffffffffffffffffffffffffffffffffff\n      and\n        /* \"src/My721.sol\":8861:8865  from */\n      dup9\n        /* \"src/My721.sol\":8852:8877  Transfer(from,to,tokenId) */\n      0xffffffffffffffffffffffffffffffffffffffff\n      and\n      0xddf252ad1be2c89b69c2b068fc378daa952ba7f163c4a11628f55a4df523b3ef\n      mload(0x40)\n      mload(0x40)\n      dup1\n      swap2\n      sub\n      swap1\n      log4\n        /* \"src/My721.sol\":8899:8909  allowences */\n      0x08\n        /* \"src/My721.sol\":8899:8915  allowences[from] */\n      0x00\n        /* \"src/My721.sol\":8910:8914  from */\n      dup9\n        /* \"src/My721.sol\":8899:8915  allowences[from] */\n      0xffffffffffffffffffffffffffffffffffffffff\n      and\n      0xffffffffffffffffffffffffffffffffffffffff\n      and\n      dup2\n      mstore\n      0x20\n      add\n      swap1\n      dup2\n      mstore\n      0x20\n      add\n      0x00\n      keccak256\n        /* \"src/My721.sol\":8899:8919  allowences[from][to] */\n      0x00\n        /* \"src/My721.sol\":8916:8918  to */\n      dup8\n        /* \"src/My721.sol\":8899:8919  allowences[from][to] */\n      0xffffffffffffffffffffffffffffffffffffffff\n      and\n      0xffffffffffffffffffffffffffffffffffffffff\n      and\n      dup2\n      mstore\n      0x20\n      add\n      swap1\n      dup2\n      mstore\n      0x20\n      add\n      0x00\n      keccak256\n        /* \"src/My721.sol\":8890:8919  tokens = allowences[from][to] */\n      swap2\n      pop\n        /* \"src/My721.sol\":8950:8951  0 */\n      0x00\n        /* \"src/My721.sol\":8933:8939  tokens */\n      dup3\n        /* \"src/My721.sol\":8933:8946  tokens.length */\n      dup1\n      sload\n      swap1\n      pop\n        /* \"src/My721.sol\":8933:8951  tokens.length == 0 */\n      sub\n        /* \"src/My721.sol\":8930:8985  if(tokens.length == 0){... */\n      tag_235\n      jumpi\n        /* \"src/My721.sol\":8967:8974  return; */\n      pop\n      pop\n      pop\n      pop\n      jump(tag_198)\n        /* \"src/My721.sol\":8930:8985  if(tokens.length == 0){... */\n    tag_235:\n        /* \"src/My721.sol\":9019:9020  1 */\n      0x01\n        /* \"src/My721.sol\":9004:9010  tokens */\n      dup3\n        /* \"src/My721.sol\":9004:9017  tokens.length */\n      dup1\n      sload\n      swap1\n      pop\n        /* \"src/My721.sol\":9004:9020  tokens.length -1 */\n      tag_236\n      swap2\n      swap1\n      tag_217\n      jump\t// in\n    tag_236:\n        /* \"src/My721.sol\":8997:9020  last = tokens.length -1 */\n      swap1\n      pop\n        /* \"src/My721.sol\":9036:9045  uint256 i */\n      0x00\n        /* \"src/My721.sol\":9031:9260  for( uint256 i = 0;  i < last ; ++ i){... */\n    tag_237:\n        /* \"src/My721.sol\":9056:9060  last */\n      dup2\n        /* \"src/My721.sol\":9052:9053  i */\n      dup2\n        /* \"src/My721.sol\":9052:9060  i < last */\n      lt\n        /* \"src/My721.sol\":9031:9260  for( uint256 i = 0;  i < last ; ++ i){... */\n      iszero\n      tag_238\n      jumpi\n        /* \"src/My721.sol\":9097:9103  tokens */\n      dup3\n        /* \"src/My721.sol\":9104:9105  i */\n      dup2\n        /* \"src/My721.sol\":9097:9106  tokens[i] */\n      dup2\n      sload\n      dup2\n      lt\n      tag_240\n      jumpi\n      tag_241\n      tag_140\n      jump\t// in\n    tag_241:\n    tag_240:\n      swap1\n      0x00\n      mstore\n      keccak256(0x00, 0x20)\n      add\n      sload\n        /* \"src/My721.sol\":9086:9093  tokenId */\n      dup7\n        /* \"src/My721.sol\":9086:9106  tokenId == tokens[i] */\n      sub\n        /* \"src/My721.sol\":9083:9249  if(tokenId == tokens[i]){... */\n      tag_243\n      jumpi\n        /* \"src/My721.sol\":9138:9144  tokens */\n      dup3\n        /* \"src/My721.sol\":9145:9149  last */\n      dup3\n        /* \"src/My721.sol\":9138:9150  tokens[last] */\n      dup2\n      sload\n      dup2\n      lt\n      tag_244\n      jumpi\n      tag_245\n      tag_140\n      jump\t// in\n    tag_245:\n    tag_244:\n      swap1\n      0x00\n      mstore\n      keccak256(0x00, 0x20)\n      add\n      sload\n        /* \"src/My721.sol\":9126:9132  tokens */\n      dup4\n        /* \"src/My721.sol\":9133:9134  i */\n      dup3\n        /* \"src/My721.sol\":9126:9135  tokens[i] */\n      dup2\n      sload\n      dup2\n      lt\n      tag_247\n      jumpi\n      tag_248\n      tag_140\n      jump\t// in\n    tag_248:\n    tag_247:\n      swap1\n      0x00\n      mstore\n      keccak256(0x00, 0x20)\n      add\n        /* \"src/My721.sol\":9126:9150  tokens[i] = tokens[last] */\n      dup2\n      swap1\n      sstore\n      pop\n        /* \"src/My721.sol\":9184:9191  tokenId */\n      dup6\n        /* \"src/My721.sol\":9169:9175  tokens */\n      dup4\n        /* \"src/My721.sol\":9176:9180  last */\n      dup4\n        /* \"src/My721.sol\":9169:9181  tokens[last] */\n      dup2\n      sload\n      dup2\n      lt\n      tag_250\n      jumpi\n      tag_251\n      tag_140\n      jump\t// in\n    tag_251:\n    tag_250:\n      swap1\n      0x00\n      mstore\n      keccak256(0x00, 0x20)\n      add\n        /* \"src/My721.sol\":9169:9191  tokens[last] = tokenId */\n      dup2\n      swap1\n      sstore\n      pop\n        /* \"src/My721.sol\":9228:9233  break */\n      jump(tag_238)\n        /* \"src/My721.sol\":9083:9249  if(tokenId == tokens[i]){... */\n    tag_243:\n        /* \"src/My721.sol\":9063:9067  ++ i */\n      dup1\n      0x01\n      add\n      swap1\n      pop\n        /* \"src/My721.sol\":9031:9260  for( uint256 i = 0;  i < last ; ++ i){... */\n      jump(tag_237)\n    tag_238:\n      pop\n        /* \"src/My721.sol\":9284:9290  tokens */\n      dup2\n        /* \"src/My721.sol\":9291:9295  last */\n      dup2\n        /* \"src/My721.sol\":9284:9296  tokens[last] */\n      dup2\n      sload\n      dup2\n      lt\n      tag_253\n      jumpi\n      tag_254\n      tag_140\n      jump\t// in\n    tag_254:\n    tag_253:\n      swap1\n      0x00\n      mstore\n      keccak256(0x00, 0x20)\n      add\n      sload\n        /* \"src/My721.sol\":9273:9280  tokenId */\n      dup6\n        /* \"src/My721.sol\":9273:9296  tokenId == tokens[last] */\n      sub\n        /* \"src/My721.sol\":9270:9336  if(tokenId == tokens[last]){... */\n      tag_256\n      jumpi\n        /* \"src/My721.sol\":9312:9318  tokens */\n      dup2\n        /* \"src/My721.sol\":9312:9324  tokens.pop() */\n      dup1\n      sload\n      dup1\n      tag_257\n      jumpi\n      tag_258\n      tag_233\n      jump\t// in\n    tag_258:\n    tag_257:\n      0x01\n      swap1\n      sub\n      dup2\n      dup2\n      swap1\n      0x00\n      mstore\n      keccak256(0x00, 0x20)\n      add\n      0x00\n      swap1\n      sstore\n      swap1\n      sstore\n        /* \"src/My721.sol\":9270:9336  if(tokenId == tokens[last]){... */\n    tag_256:\n        /* \"src/My721.sol\":7840:9345  {... */\n      pop\n      pop\n      pop\n      pop\n        /* \"src/My721.sol\":7765:9345  function _transferFrom(address from, address to, uint256 tokenId) internal {... */\n    tag_198:\n      pop\n      pop\n      pop\n      jump\t// out\n        /* \"src/My721.sol\":4700:5052  function _checkERC721Receiver(address from,address to,uint tokenId, bytes memory data) internal  returns (bool){... */\n    tag_144:\n        /* \"src/My721.sol\":4806:4810  bool */\n      0x00\n        /* \"src/My721.sol\":4824:4833  isEOA(to) */\n      tag_261\n        /* \"src/My721.sol\":4830:4832  to */\n      dup5\n        /* \"src/My721.sol\":4824:4829  isEOA */\n      tag_34\n        /* \"src/My721.sol\":4824:4833  isEOA(to) */\n      jump\t// in\n    tag_261:\n        /* \"src/My721.sol\":4821:4871  if(isEOA(to)){... */\n      iszero\n      tag_262\n      jumpi\n        /* \"src/My721.sol\":4856:4860  true */\n      0x01\n        /* \"src/My721.sol\":4849:4860  return true */\n      swap1\n      pop\n      jump(tag_260)\n        /* \"src/My721.sol\":4821:4871  if(isEOA(to)){... */\n    tag_262:\n        /* \"src/My721.sol\":4883:4901  bytes4 retSelector */\n      0x00\n        /* \"src/My721.sol\":4920:4922  to */\n      dup5\n        /* \"src/My721.sol\":4904:4940  IERC721Receiver(to).onERC721Received */\n      0xffffffffffffffffffffffffffffffffffffffff\n      and\n      0x150b7a02\n        /* \"src/My721.sol\":4941:4943  to */\n      dup7\n        /* \"src/My721.sol\":4944:4948  from */\n      dup9\n        /* \"src/My721.sol\":4949:4956  tokenId */\n      dup8\n        /* \"src/My721.sol\":4957:4961  data */\n      dup8\n        /* \"src/My721.sol\":4904:4962  IERC721Receiver(to).onERC721Received(to,from,tokenId,data) */\n      mload(0x40)\n      dup6\n      0xffffffff\n      and\n      0xe0\n      shl\n      dup2\n      mstore\n      0x04\n      add\n      tag_263\n      swap5\n      swap4\n      swap3\n      swap2\n      swap1\n      tag_264\n      jump\t// in\n    tag_263:\n      0x20\n      mload(0x40)\n      dup1\n      dup4\n      sub\n      dup2\n      0x00\n      dup8\n      gas\n      call\n      iszero\n      dup1\n      iszero\n      tag_266\n      jumpi\n      returndatasize\n      0x00\n      dup1\n      returndatacopy\n      revert(0x00, returndatasize)\n    tag_266:\n      pop\n      pop\n      pop\n      pop\n      mload(0x40)\n      returndatasize\n      not(0x1f)\n      0x1f\n      dup3\n      add\n      and\n      dup3\n      add\n      dup1\n      0x40\n      mstore\n      pop\n      dup2\n      add\n      swap1\n      tag_267\n      swap2\n      swap1\n      tag_268\n      jump\t// in\n    tag_267:\n        /* \"src/My721.sol\":4883:4962  bytes4 retSelector = IERC721Receiver(to).onERC721Received(to,from,tokenId,data) */\n      swap1\n      pop\n        /* \"src/My721.sol\":5003:5044  IERC721Receiver.onERC721Received.selector */\n      shl(0xe0, 0x150b7a02)\n        /* \"src/My721.sol\":4988:5044  retSelector == IERC721Receiver.onERC721Received.selector */\n      not(0xffffffffffffffffffffffffffffffffffffffffffffffffffffffff)\n      and\n        /* \"src/My721.sol\":4988:4999  retSelector */\n      dup2\n        /* \"src/My721.sol\":4988:5044  retSelector == IERC721Receiver.onERC721Received.selector */\n      not(0xffffffffffffffffffffffffffffffffffffffffffffffffffffffff)\n      and\n      eq\n        /* \"src/My721.sol\":4981:5044  return retSelector == IERC721Receiver.onERC721Received.selector */\n      swap2\n      pop\n      pop\n        /* \"src/My721.sol\":4700:5052  function _checkERC721Receiver(address from,address to,uint tokenId, bytes memory data) internal  returns (bool){... */\n    tag_260:\n      swap5\n      swap4\n      pop\n      pop\n      pop\n      pop\n      jump\t// out\n        /* \"@openzeppelin/contracts/utils/Strings.sol\":637:1335  function toString(uint256 value) internal pure returns (string memory) {... */\n    tag_194:\n        /* \"@openzeppelin/contracts/utils/Strings.sol\":693:706  string memory */\n      0x60\n        /* \"@openzeppelin/contracts/utils/Strings.sol\":742:756  uint256 length */\n      0x00\n        /* \"@openzeppelin/contracts/utils/Strings.sol\":779:780  1 */\n      0x01\n        /* \"@openzeppelin/contracts/utils/Strings.sol\":759:776  Math.log10(value) */\n      tag_270\n        /* \"@openzeppelin/contracts/utils/Strings.sol\":770:775  value */\n      dup5\n        /* \"@openzeppelin/contracts/utils/Strings.sol\":759:769  Math.log10 */\n      tag_271\n        /* \"@openzeppelin/contracts/utils/Strings.sol\":759:776  Math.log10(value) */\n      jump\t// in\n    tag_270:\n        /* \"@openzeppelin/contracts/utils/Strings.sol\":759:780  Math.log10(value) + 1 */\n      add\n        /* \"@openzeppelin/contracts/utils/Strings.sol\":742:780  uint256 length = Math.log10(value) + 1 */\n      swap1\n      pop\n        /* \"@openzeppelin/contracts/utils/Strings.sol\":794:814  string memory buffer */\n      0x00\n        /* \"@openzeppelin/contracts/utils/Strings.sol\":828:834  length */\n      dup2\n        /* \"@openzeppelin/contracts/utils/Strings.sol\":817:835  new string(length) */\n      0xffffffffffffffff\n      dup2\n      gt\n      iszero\n      tag_272\n      jumpi\n      tag_273\n      tag_183\n      jump\t// in\n    tag_273:\n    tag_272:\n      mload(0x40)\n      swap1\n      dup1\n      dup3\n      mstore\n      dup1\n      0x1f\n      add\n      not(0x1f)\n      and\n      0x20\n      add\n      dup3\n      add\n      0x40\n      mstore\n      dup1\n      iszero\n      tag_274\n      jumpi\n      dup2\n      0x20\n      add\n      0x01\n      dup3\n      mul\n      dup1\n      calldatasize\n      dup4\n      calldatacopy\n      dup1\n      dup3\n      add\n      swap2\n      pop\n      pop\n      swap1\n      pop\n    tag_274:\n      pop\n        /* \"@openzeppelin/contracts/utils/Strings.sol\":794:835  string memory buffer = new string(length) */\n      swap1\n      pop\n        /* \"@openzeppelin/contracts/utils/Strings.sol\":849:860  uint256 ptr */\n      0x00\n        /* \"@openzeppelin/contracts/utils/Strings.sol\":975:981  length */\n      dup3\n        /* \"@openzeppelin/contracts/utils/Strings.sol\":971:973  32 */\n      0x20\n        /* \"@openzeppelin/contracts/utils/Strings.sol\":967:982  add(32, length) */\n      add\n        /* \"@openzeppelin/contracts/utils/Strings.sol\":959:965  buffer */\n      dup3\n        /* \"@openzeppelin/contracts/utils/Strings.sol\":955:983  add(buffer, add(32, length)) */\n      add\n        /* \"@openzeppelin/contracts/utils/Strings.sol\":948:983  ptr := add(buffer, add(32, length)) */\n      swap1\n      pop\n        /* \"@openzeppelin/contracts/utils/Strings.sol\":1010:1292  while (true) {... */\n    tag_275:\n        /* \"@openzeppelin/contracts/utils/Strings.sol\":1017:1021  true */\n      0x01\n        /* \"@openzeppelin/contracts/utils/Strings.sol\":1010:1292  while (true) {... */\n      iszero\n      tag_276\n      jumpi\n        /* \"@openzeppelin/contracts/utils/Strings.sol\":1041:1046  ptr-- */\n      dup1\n      dup1\n      0x01\n      swap1\n      sub\n      swap2\n      pop\n      pop\n        /* \"@openzeppelin/contracts/utils/Strings.sol\":1180:1190  HEX_DIGITS */\n      0x3031323334353637383961626364656600000000000000000000000000000000\n        /* \"@openzeppelin/contracts/utils/Strings.sol\":1175:1177  10 */\n      0x0a\n        /* \"@openzeppelin/contracts/utils/Strings.sol\":1168:1173  value */\n      dup7\n        /* \"@openzeppelin/contracts/utils/Strings.sol\":1164:1178  mod(value, 10) */\n      mod\n        /* \"@openzeppelin/contracts/utils/Strings.sol\":1159:1191  byte(mod(value, 10), HEX_DIGITS) */\n      byte\n        /* \"@openzeppelin/contracts/utils/Strings.sol\":1154:1157  ptr */\n      dup2\n        /* \"@openzeppelin/contracts/utils/Strings.sol\":1146:1192  mstore8(ptr, byte(mod(value, 10), HEX_DIGITS)) */\n      mstore8\n        /* \"@openzeppelin/contracts/utils/Strings.sol\":1236:1238  10 */\n      0x0a\n        /* \"@openzeppelin/contracts/utils/Strings.sol\":1227:1238  value /= 10 */\n      dup6\n      dup2\n      tag_277\n      jumpi\n      tag_278\n      tag_279\n      jump\t// in\n    tag_278:\n    tag_277:\n      div\n      swap5\n      pop\n        /* \"@openzeppelin/contracts/utils/Strings.sol\":1269:1270  0 */\n      0x00\n        /* \"@openzeppelin/contracts/utils/Strings.sol\":1260:1265  value */\n      dup6\n        /* \"@openzeppelin/contracts/utils/Strings.sol\":1260:1270  value == 0 */\n      sub\n        /* \"@openzeppelin/contracts/utils/Strings.sol\":1010:1292  while (true) {... */\n      tag_275\n        /* \"@openzeppelin/contracts/utils/Strings.sol\":1256:1277  if (value == 0) break */\n      jumpi\n        /* \"@openzeppelin/contracts/utils/Strings.sol\":1010:1292  while (true) {... */\n    tag_276:\n        /* \"@openzeppelin/contracts/utils/Strings.sol\":1312:1318  buffer */\n      dup2\n        /* \"@openzeppelin/contracts/utils/Strings.sol\":1305:1318  return buffer */\n      swap4\n      pop\n      pop\n      pop\n      pop\n        /* \"@openzeppelin/contracts/utils/Strings.sol\":637:1335  function toString(uint256 value) internal pure returns (string memory) {... */\n      swap2\n      swap1\n      pop\n      jump\t// out\n        /* \"@openzeppelin/contracts/utils/math/Math.sol\":12214:13130  function log10(uint256 value) internal pure returns (uint256) {... */\n    tag_271:\n        /* \"@openzeppelin/contracts/utils/math/Math.sol\":12267:12274  uint256 */\n      0x00\n        /* \"@openzeppelin/contracts/utils/math/Math.sol\":12286:12300  uint256 result */\n      dup1\n        /* \"@openzeppelin/contracts/utils/math/Math.sol\":12303:12304  0 */\n      0x00\n        /* \"@openzeppelin/contracts/utils/math/Math.sol\":12286:12304  uint256 result = 0 */\n      swap1\n      pop\n        /* \"@openzeppelin/contracts/utils/math/Math.sol\":12351:12359  10 ** 64 */\n      0x184f03e93ff9f4daa797ed6e38ed64bf6a1f010000000000000000\n        /* \"@openzeppelin/contracts/utils/math/Math.sol\":12342:12347  value */\n      dup4\n        /* \"@openzeppelin/contracts/utils/math/Math.sol\":12342:12359  value >= 10 ** 64 */\n      lt\n        /* \"@openzeppelin/contracts/utils/math/Math.sol\":12338:12441  if (value >= 10 ** 64) {... */\n      tag_282\n      jumpi\n        /* \"@openzeppelin/contracts/utils/math/Math.sol\":12388:12396  10 ** 64 */\n      0x184f03e93ff9f4daa797ed6e38ed64bf6a1f010000000000000000\n        /* \"@openzeppelin/contracts/utils/math/Math.sol\":12379:12396  value /= 10 ** 64 */\n      dup4\n      dup2\n      tag_283\n      jumpi\n      tag_284\n      tag_279\n      jump\t// in\n    tag_284:\n    tag_283:\n      div\n      swap3\n      pop\n        /* \"@openzeppelin/contracts/utils/math/Math.sol\":12424:12426  64 */\n      0x40\n        /* \"@openzeppelin/contracts/utils/math/Math.sol\":12414:12426  result += 64 */\n      dup2\n      add\n      swap1\n      pop\n        /* \"@openzeppelin/contracts/utils/math/Math.sol\":12338:12441  if (value >= 10 ** 64) {... */\n    tag_282:\n        /* \"@openzeppelin/contracts/utils/math/Math.sol\":12467:12475  10 ** 32 */\n      0x04ee2d6d415b85acef8100000000\n        /* \"@openzeppelin/contracts/utils/math/Math.sol\":12458:12463  value */\n      dup4\n        /* \"@openzeppelin/contracts/utils/math/Math.sol\":12458:12475  value >= 10 ** 32 */\n      lt\n        /* \"@openzeppelin/contracts/utils/math/Math.sol\":12454:12557  if (value >= 10 ** 32) {... */\n      tag_285\n      jumpi\n        /* \"@openzeppelin/contracts/utils/math/Math.sol\":12504:12512  10 ** 32 */\n      0x04ee2d6d415b85acef8100000000\n        /* \"@openzeppelin/contracts/utils/math/Math.sol\":12495:12512  value /= 10 ** 32 */\n      dup4\n      dup2\n      tag_286\n      jumpi\n      tag_287\n      tag_279\n      jump\t// in\n    tag_287:\n    tag_286:\n      div\n      swap3\n      pop\n        /* \"@openzeppelin/contracts/utils/math/Math.sol\":12540:12542  32 */\n      0x20\n        /* \"@openzeppelin/contracts/utils/math/Math.sol\":12530:12542  result += 32 */\n      dup2\n      add\n      swap1\n      pop\n        /* \"@openzeppelin/contracts/utils/math/Math.sol\":12454:12557  if (value >= 10 ** 32) {... */\n    tag_285:\n        /* \"@openzeppelin/contracts/utils/math/Math.sol\":12583:12591  10 ** 16 */\n      0x2386f26fc10000\n        /* \"@openzeppelin/contracts/utils/math/Math.sol\":12574:12579  value */\n      dup4\n        /* \"@openzeppelin/contracts/utils/math/Math.sol\":12574:12591  value >= 10 ** 16 */\n      lt\n        /* \"@openzeppelin/contracts/utils/math/Math.sol\":12570:12673  if (value >= 10 ** 16) {... */\n      tag_288\n      jumpi\n        /* \"@openzeppelin/contracts/utils/math/Math.sol\":12620:12628  10 ** 16 */\n      0x2386f26fc10000\n        /* \"@openzeppelin/contracts/utils/math/Math.sol\":12611:12628  value /= 10 ** 16 */\n      dup4\n      dup2\n      tag_289\n      jumpi\n      tag_290\n      tag_279\n      jump\t// in\n    tag_290:\n    tag_289:\n      div\n      swap3\n      pop\n        /* \"@openzeppelin/contracts/utils/math/Math.sol\":12656:12658  16 */\n      0x10\n        /* \"@openzeppelin/contracts/utils/math/Math.sol\":12646:12658  result += 16 */\n      dup2\n      add\n      swap1\n      pop\n        /* \"@openzeppelin/contracts/utils/math/Math.sol\":12570:12673  if (value >= 10 ** 16) {... */\n    tag_288:\n        /* \"@openzeppelin/contracts/utils/math/Math.sol\":12699:12706  10 ** 8 */\n      0x05f5e100\n        /* \"@openzeppelin/contracts/utils/math/Math.sol\":12690:12695  value */\n      dup4\n        /* \"@openzeppelin/contracts/utils/math/Math.sol\":12690:12706  value >= 10 ** 8 */\n      lt\n        /* \"@openzeppelin/contracts/utils/math/Math.sol\":12686:12786  if (value >= 10 ** 8) {... */\n      tag_291\n      jumpi\n        /* \"@openzeppelin/contracts/utils/math/Math.sol\":12735:12742  10 ** 8 */\n      0x05f5e100\n        /* \"@openzeppelin/contracts/utils/math/Math.sol\":12726:12742  value /= 10 ** 8 */\n      dup4\n      dup2\n      tag_292\n      jumpi\n      tag_293\n      tag_279\n      jump\t// in\n    tag_293:\n    tag_292:\n      div\n      swap3\n      pop\n        /* \"@openzeppelin/contracts/utils/math/Math.sol\":12770:12771  8 */\n      0x08\n        /* \"@openzeppelin/contracts/utils/math/Math.sol\":12760:12771  result += 8 */\n      dup2\n      add\n      swap1\n      pop\n        /* \"@openzeppelin/contracts/utils/math/Math.sol\":12686:12786  if (value >= 10 ** 8) {... */\n    tag_291:\n        /* \"@openzeppelin/contracts/utils/math/Math.sol\":12812:12819  10 ** 4 */\n      0x2710\n        /* \"@openzeppelin/contracts/utils/math/Math.sol\":12803:12808  value */\n      dup4\n        /* \"@openzeppelin/contracts/utils/math/Math.sol\":12803:12819  value >= 10 ** 4 */\n      lt\n        /* \"@openzeppelin/contracts/utils/math/Math.sol\":12799:12899  if (value >= 10 ** 4) {... */\n      tag_294\n      jumpi\n        /* \"@openzeppelin/contracts/utils/math/Math.sol\":12848:12855  10 ** 4 */\n      0x2710\n        /* \"@openzeppelin/contracts/utils/math/Math.sol\":12839:12855  value /= 10 ** 4 */\n      dup4\n      dup2\n      tag_295\n      jumpi\n      tag_296\n      tag_279\n      jump\t// in\n    tag_296:\n    tag_295:\n      div\n      swap3\n      pop\n        /* \"@openzeppelin/contracts/utils/math/Math.sol\":12883:12884  4 */\n      0x04\n        /* \"@openzeppelin/contracts/utils/math/Math.sol\":12873:12884  result += 4 */\n      dup2\n      add\n      swap1\n      pop\n        /* \"@openzeppelin/contracts/utils/math/Math.sol\":12799:12899  if (value >= 10 ** 4) {... */\n    tag_294:\n        /* \"@openzeppelin/contracts/utils/math/Math.sol\":12925:12932  10 ** 2 */\n      0x64\n        /* \"@openzeppelin/contracts/utils/math/Math.sol\":12916:12921  value */\n      dup4\n        /* \"@openzeppelin/contracts/utils/math/Math.sol\":12916:12932  value >= 10 ** 2 */\n      lt\n        /* \"@openzeppelin/contracts/utils/math/Math.sol\":12912:13012  if (value >= 10 ** 2) {... */\n      tag_297\n      jumpi\n        /* \"@openzeppelin/contracts/utils/math/Math.sol\":12961:12968  10 ** 2 */\n      0x64\n        /* \"@openzeppelin/contracts/utils/math/Math.sol\":12952:12968  value /= 10 ** 2 */\n      dup4\n      dup2\n      tag_298\n      jumpi\n      tag_299\n      tag_279\n      jump\t// in\n    tag_299:\n    tag_298:\n      div\n      swap3\n      pop\n        /* \"@openzeppelin/contracts/utils/math/Math.sol\":12996:12997  2 */\n      0x02\n        /* \"@openzeppelin/contracts/utils/math/Math.sol\":12986:12997  result += 2 */\n      dup2\n      add\n      swap1\n      pop\n        /* \"@openzeppelin/contracts/utils/math/Math.sol\":12912:13012  if (value >= 10 ** 2) {... */\n    tag_297:\n        /* \"@openzeppelin/contracts/utils/math/Math.sol\":13038:13045  10 ** 1 */\n      0x0a\n        /* \"@openzeppelin/contracts/utils/math/Math.sol\":13029:13034  value */\n      dup4\n        /* \"@openzeppelin/contracts/utils/math/Math.sol\":13029:13045  value >= 10 ** 1 */\n      lt\n        /* \"@openzeppelin/contracts/utils/math/Math.sol\":13025:13091  if (value >= 10 ** 1) {... */\n      tag_300\n      jumpi\n        /* \"@openzeppelin/contracts/utils/math/Math.sol\":13075:13076  1 */\n      0x01\n        /* \"@openzeppelin/contracts/utils/math/Math.sol\":13065:13076  result += 1 */\n      dup2\n      add\n      swap1\n      pop\n        /* \"@openzeppelin/contracts/utils/math/Math.sol\":13025:13091  if (value >= 10 ** 1) {... */\n    tag_300:\n        /* \"@openzeppelin/contracts/utils/math/Math.sol\":13117:13123  result */\n      dup1\n        /* \"@openzeppelin/contracts/utils/math/Math.sol\":13110:13123  return result */\n      swap2\n      pop\n      pop\n        /* \"@openzeppelin/contracts/utils/math/Math.sol\":12214:13130  function log10(uint256 value) internal pure returns (uint256) {... */\n      swap2\n      swap1\n      pop\n      jump\t// out\n    tag_178:\n      dup3\n      dup1\n      sload\n      dup3\n      dup3\n      sstore\n      swap1\n      0x00\n      mstore\n      keccak256(0x00, 0x20)\n      swap1\n      dup2\n      add\n      swap3\n      dup3\n      iszero\n      tag_301\n      jumpi\n      swap2\n      0x20\n      mul\n      dup3\n      add\n    tag_302:\n      dup3\n      dup2\n      gt\n      iszero\n      tag_303\n      jumpi\n      dup3\n      mload\n      dup3\n      sstore\n      swap2\n      0x20\n      add\n      swap2\n      swap1\n      0x01\n      add\n      swap1\n      jump(tag_302)\n    tag_303:\n    tag_301:\n      pop\n      swap1\n      pop\n      tag_304\n      swap2\n      swap1\n      tag_305\n      jump\t// in\n    tag_304:\n      pop\n      swap1\n      jump\t// out\n    tag_305:\n    tag_306:\n      dup1\n      dup3\n      gt\n      iszero\n      tag_307\n      jumpi\n      0x00\n      dup2\n      0x00\n      swap1\n      sstore\n      pop\n      0x01\n      add\n      jump(tag_306)\n    tag_307:\n      pop\n      swap1\n      jump\t// out\n        /* \"#utility.yul\":88:205   */\n    tag_309:\n        /* \"#utility.yul\":197:198   */\n      0x00\n        /* \"#utility.yul\":194:195   */\n      dup1\n        /* \"#utility.yul\":187:199   */\n      revert\n        /* \"#utility.yul\":211:328   */\n    tag_310:\n        /* \"#utility.yul\":320:321   */\n      0x00\n        /* \"#utility.yul\":317:318   */\n      dup1\n        /* \"#utility.yul\":310:322   */\n      revert\n        /* \"#utility.yul\":334:483   */\n    tag_311:\n        /* \"#utility.yul\":370:377   */\n      0x00\n        /* \"#utility.yul\":410:476   */\n      0xffffffff00000000000000000000000000000000000000000000000000000000\n        /* \"#utility.yul\":403:408   */\n      dup3\n        /* \"#utility.yul\":399:477   */\n      and\n        /* \"#utility.yul\":388:477   */\n      swap1\n      pop\n        /* \"#utility.yul\":334:483   */\n      swap2\n      swap1\n      pop\n      jump\t// out\n        /* \"#utility.yul\":489:609   */\n    tag_312:\n        /* \"#utility.yul\":561:584   */\n      tag_364\n        /* \"#utility.yul\":578:583   */\n      dup2\n        /* \"#utility.yul\":561:584   */\n      tag_311\n      jump\t// in\n    tag_364:\n        /* \"#utility.yul\":554:559   */\n      dup2\n        /* \"#utility.yul\":551:585   */\n      eq\n        /* \"#utility.yul\":541:603   */\n      tag_365\n      jumpi\n        /* \"#utility.yul\":599:600   */\n      0x00\n        /* \"#utility.yul\":596:597   */\n      dup1\n        /* \"#utility.yul\":589:601   */\n      revert\n        /* \"#utility.yul\":541:603   */\n    tag_365:\n        /* \"#utility.yul\":489:609   */\n      pop\n      jump\t// out\n        /* \"#utility.yul\":615:752   */\n    tag_313:\n        /* \"#utility.yul\":660:665   */\n      0x00\n        /* \"#utility.yul\":698:704   */\n      dup2\n        /* \"#utility.yul\":685:705   */\n      calldataload\n        /* \"#utility.yul\":676:705   */\n      swap1\n      pop\n        /* \"#utility.yul\":714:746   */\n      tag_367\n        /* \"#utility.yul\":740:745   */\n      dup2\n        /* \"#utility.yul\":714:746   */\n      tag_312\n      jump\t// in\n    tag_367:\n        /* \"#utility.yul\":615:752   */\n      swap3\n      swap2\n      pop\n      pop\n      jump\t// out\n        /* \"#utility.yul\":758:1085   */\n    tag_27:\n        /* \"#utility.yul\":816:822   */\n      0x00\n        /* \"#utility.yul\":865:867   */\n      0x20\n        /* \"#utility.yul\":853:862   */\n      dup3\n        /* \"#utility.yul\":844:851   */\n      dup5\n        /* \"#utility.yul\":840:863   */\n      sub\n        /* \"#utility.yul\":836:868   */\n      slt\n        /* \"#utility.yul\":833:952   */\n      iszero\n      tag_369\n      jumpi\n        /* \"#utility.yul\":871:950   */\n      tag_370\n      tag_309\n      jump\t// in\n    tag_370:\n        /* \"#utility.yul\":833:952   */\n    tag_369:\n        /* \"#utility.yul\":991:992   */\n      0x00\n        /* \"#utility.yul\":1016:1068   */\n      tag_371\n        /* \"#utility.yul\":1060:1067   */\n      dup5\n        /* \"#utility.yul\":1051:1057   */\n      dup3\n        /* \"#utility.yul\":1040:1049   */\n      dup6\n        /* \"#utility.yul\":1036:1058   */\n      add\n        /* \"#utility.yul\":1016:1068   */\n      tag_313\n      jump\t// in\n    tag_371:\n        /* \"#utility.yul\":1006:1068   */\n      swap2\n      pop\n        /* \"#utility.yul\":962:1078   */\n      pop\n        /* \"#utility.yul\":758:1085   */\n      swap3\n      swap2\n      pop\n      pop\n      jump\t// out\n        /* \"#utility.yul\":1091:1181   */\n    tag_314:\n        /* \"#utility.yul\":1125:1132   */\n      0x00\n        /* \"#utility.yul\":1168:1173   */\n      dup2\n        /* \"#utility.yul\":1161:1174   */\n      iszero\n        /* \"#utility.yul\":1154:1175   */\n      iszero\n        /* \"#utility.yul\":1143:1175   */\n      swap1\n      pop\n        /* \"#utility.yul\":1091:1181   */\n      swap2\n      swap1\n      pop\n      jump\t// out\n        /* \"#utility.yul\":1187:1296   */\n    tag_315:\n        /* \"#utility.yul\":1268:1289   */\n      tag_374\n        /* \"#utility.yul\":1283:1288   */\n      dup2\n        /* \"#utility.yul\":1268:1289   */\n      tag_314\n      jump\t// in\n    tag_374:\n        /* \"#utility.yul\":1263:1266   */\n      dup3\n        /* \"#utility.yul\":1256:1290   */\n      mstore\n        /* \"#utility.yul\":1187:1296   */\n      pop\n      pop\n      jump\t// out\n        /* \"#utility.yul\":1302:1512   */\n    tag_30:\n        /* \"#utility.yul\":1389:1393   */\n      0x00\n        /* \"#utility.yul\":1427:1429   */\n      0x20\n        /* \"#utility.yul\":1416:1425   */\n      dup3\n        /* \"#utility.yul\":1412:1430   */\n      add\n        /* \"#utility.yul\":1404:1430   */\n      swap1\n      pop\n        /* \"#utility.yul\":1440:1505   */\n      tag_376\n        /* \"#utility.yul\":1502:1503   */\n      0x00\n        /* \"#utility.yul\":1491:1500   */\n      dup4\n        /* \"#utility.yul\":1487:1504   */\n      add\n        /* \"#utility.yul\":1478:1484   */\n      dup5\n        /* \"#utility.yul\":1440:1505   */\n      tag_315\n      jump\t// in\n    tag_376:\n        /* \"#utility.yul\":1302:1512   */\n      swap3\n      swap2\n      pop\n      pop\n      jump\t// out\n        /* \"#utility.yul\":1518:1644   */\n    tag_316:\n        /* \"#utility.yul\":1555:1562   */\n      0x00\n        /* \"#utility.yul\":1595:1637   */\n      0xffffffffffffffffffffffffffffffffffffffff\n        /* \"#utility.yul\":1588:1593   */\n      dup3\n        /* \"#utility.yul\":1584:1638   */\n      and\n        /* \"#utility.yul\":1573:1638   */\n      swap1\n      pop\n        /* \"#utility.yul\":1518:1644   */\n      swap2\n      swap1\n      pop\n      jump\t// out\n        /* \"#utility.yul\":1650:1746   */\n    tag_317:\n        /* \"#utility.yul\":1687:1694   */\n      0x00\n        /* \"#utility.yul\":1716:1740   */\n      tag_379\n        /* \"#utility.yul\":1734:1739   */\n      dup3\n        /* \"#utility.yul\":1716:1740   */\n      tag_316\n      jump\t// in\n    tag_379:\n        /* \"#utility.yul\":1705:1740   */\n      swap1\n      pop\n        /* \"#utility.yul\":1650:1746   */\n      swap2\n      swap1\n      pop\n      jump\t// out\n        /* \"#utility.yul\":1752:1874   */\n    tag_318:\n        /* \"#utility.yul\":1825:1849   */\n      tag_381\n        /* \"#utility.yul\":1843:1848   */\n      dup2\n        /* \"#utility.yul\":1825:1849   */\n      tag_317\n      jump\t// in\n    tag_381:\n        /* \"#utility.yul\":1818:1823   */\n      dup2\n        /* \"#utility.yul\":1815:1850   */\n      eq\n        /* \"#utility.yul\":1805:1868   */\n      tag_382\n      jumpi\n        /* \"#utility.yul\":1864:1865   */\n      0x00\n        /* \"#utility.yul\":1861:1862   */\n      dup1\n        /* \"#utility.yul\":1854:1866   */\n      revert\n        /* \"#utility.yul\":1805:1868   */\n    tag_382:\n        /* \"#utility.yul\":1752:1874   */\n      pop\n      jump\t// out\n        /* \"#utility.yul\":1880:2019   */\n    tag_319:\n        /* \"#utility.yul\":1926:1931   */\n      0x00\n        /* \"#utility.yul\":1964:1970   */\n      dup2\n        /* \"#utility.yul\":1951:1971   */\n      calldataload\n        /* \"#utility.yul\":1942:1971   */\n      swap1\n      pop\n        /* \"#utility.yul\":1980:2013   */\n      tag_384\n        /* \"#utility.yul\":2007:2012   */\n      dup2\n        /* \"#utility.yul\":1980:2013   */\n      tag_318\n      jump\t// in\n    tag_384:\n        /* \"#utility.yul\":1880:2019   */\n      swap3\n      swap2\n      pop\n      pop\n      jump\t// out\n        /* \"#utility.yul\":2025:2354   */\n    tag_33:\n        /* \"#utility.yul\":2084:2090   */\n      0x00\n        /* \"#utility.yul\":2133:2135   */\n      0x20\n        /* \"#utility.yul\":2121:2130   */\n      dup3\n        /* \"#utility.yul\":2112:2119   */\n      dup5\n        /* \"#utility.yul\":2108:2131   */\n      sub\n        /* \"#utility.yul\":2104:2136   */\n      slt\n        /* \"#utility.yul\":2101:2220   */\n      iszero\n      tag_386\n      jumpi\n        /* \"#utility.yul\":2139:2218   */\n      tag_387\n      tag_309\n      jump\t// in\n    tag_387:\n        /* \"#utility.yul\":2101:2220   */\n    tag_386:\n        /* \"#utility.yul\":2259:2260   */\n      0x00\n        /* \"#utility.yul\":2284:2337   */\n      tag_388\n        /* \"#utility.yul\":2329:2336   */\n      dup5\n        /* \"#utility.yul\":2320:2326   */\n      dup3\n        /* \"#utility.yul\":2309:2318   */\n      dup6\n        /* \"#utility.yul\":2305:2327   */\n      add\n        /* \"#utility.yul\":2284:2337   */\n      tag_319\n      jump\t// in\n    tag_388:\n        /* \"#utility.yul\":2274:2337   */\n      swap2\n      pop\n        /* \"#utility.yul\":2230:2347   */\n      pop\n        /* \"#utility.yul\":2025:2354   */\n      swap3\n      swap2\n      pop\n      pop\n      jump\t// out\n        /* \"#utility.yul\":2360:2459   */\n    tag_320:\n        /* \"#utility.yul\":2412:2418   */\n      0x00\n        /* \"#utility.yul\":2446:2451   */\n      dup2\n        /* \"#utility.yul\":2440:2452   */\n      mload\n        /* \"#utility.yul\":2430:2452   */\n      swap1\n      pop\n        /* \"#utility.yul\":2360:2459   */\n      swap2\n      swap1\n      pop\n      jump\t// out\n        /* \"#utility.yul\":2465:2634   */\n    tag_321:\n        /* \"#utility.yul\":2549:2560   */\n      0x00\n        /* \"#utility.yul\":2583:2589   */\n      dup3\n        /* \"#utility.yul\":2578:2581   */\n      dup3\n        /* \"#utility.yul\":2571:2590   */\n      mstore\n        /* \"#utility.yul\":2623:2627   */\n      0x20\n        /* \"#utility.yul\":2618:2621   */\n      dup3\n        /* \"#utility.yul\":2614:2628   */\n      add\n        /* \"#utility.yul\":2599:2628   */\n      swap1\n      pop\n        /* \"#utility.yul\":2465:2634   */\n      swap3\n      swap2\n      pop\n      pop\n      jump\t// out\n        /* \"#utility.yul\":2640:2779   */\n    tag_322:\n        /* \"#utility.yul\":2729:2735   */\n      dup3\n        /* \"#utility.yul\":2724:2727   */\n      dup2\n        /* \"#utility.yul\":2719:2722   */\n      dup4\n        /* \"#utility.yul\":2713:2736   */\n      mcopy\n        /* \"#utility.yul\":2770:2771   */\n      0x00\n        /* \"#utility.yul\":2761:2767   */\n      dup4\n        /* \"#utility.yul\":2756:2759   */\n      dup4\n        /* \"#utility.yul\":2752:2768   */\n      add\n        /* \"#utility.yul\":2745:2772   */\n      mstore\n        /* \"#utility.yul\":2640:2779   */\n      pop\n      pop\n      pop\n      jump\t// out\n        /* \"#utility.yul\":2785:2887   */\n    tag_323:\n        /* \"#utility.yul\":2826:2832   */\n      0x00\n        /* \"#utility.yul\":2877:2879   */\n      0x1f\n        /* \"#utility.yul\":2873:2880   */\n      not\n        /* \"#utility.yul\":2868:2870   */\n      0x1f\n        /* \"#utility.yul\":2861:2866   */\n      dup4\n        /* \"#utility.yul\":2857:2871   */\n      add\n        /* \"#utility.yul\":2853:2881   */\n      and\n        /* \"#utility.yul\":2843:2881   */\n      swap1\n      pop\n        /* \"#utility.yul\":2785:2887   */\n      swap2\n      swap1\n      pop\n      jump\t// out\n        /* \"#utility.yul\":2893:3270   */\n    tag_324:\n        /* \"#utility.yul\":2981:2984   */\n      0x00\n        /* \"#utility.yul\":3009:3048   */\n      tag_394\n        /* \"#utility.yul\":3042:3047   */\n      dup3\n        /* \"#utility.yul\":3009:3048   */\n      tag_320\n      jump\t// in\n    tag_394:\n        /* \"#utility.yul\":3064:3135   */\n      tag_395\n        /* \"#utility.yul\":3128:3134   */\n      dup2\n        /* \"#utility.yul\":3123:3126   */\n      dup6\n        /* \"#utility.yul\":3064:3135   */\n      tag_321\n      jump\t// in\n    tag_395:\n        /* \"#utility.yul\":3057:3135   */\n      swap4\n      pop\n        /* \"#utility.yul\":3144:3209   */\n      tag_396\n        /* \"#utility.yul\":3202:3208   */\n      dup2\n        /* \"#utility.yul\":3197:3200   */\n      dup6\n        /* \"#utility.yul\":3190:3194   */\n      0x20\n        /* \"#utility.yul\":3183:3188   */\n      dup7\n        /* \"#utility.yul\":3179:3195   */\n      add\n        /* \"#utility.yul\":3144:3209   */\n      tag_322\n      jump\t// in\n    tag_396:\n        /* \"#utility.yul\":3234:3263   */\n      tag_397\n        /* \"#utility.yul\":3256:3262   */\n      dup2\n        /* \"#utility.yul\":3234:3263   */\n      tag_323\n      jump\t// in\n    tag_397:\n        /* \"#utility.yul\":3229:3232   */\n      dup5\n        /* \"#utility.yul\":3225:3264   */\n      add\n        /* \"#utility.yul\":3218:3264   */\n      swap2\n      pop\n        /* \"#utility.yul\":2985:3270   */\n      pop\n        /* \"#utility.yul\":2893:3270   */\n      swap3\n      swap2\n      pop\n      pop\n      jump\t// out\n        /* \"#utility.yul\":3276:3589   */\n    tag_39:\n        /* \"#utility.yul\":3389:3393   */\n      0x00\n        /* \"#utility.yul\":3427:3429   */\n      0x20\n        /* \"#utility.yul\":3416:3425   */\n      dup3\n        /* \"#utility.yul\":3412:3430   */\n      add\n        /* \"#utility.yul\":3404:3430   */\n      swap1\n      pop\n        /* \"#utility.yul\":3476:3485   */\n      dup2\n        /* \"#utility.yul\":3470:3474   */\n      dup2\n        /* \"#utility.yul\":3466:3486   */\n      sub\n        /* \"#utility.yul\":3462:3463   */\n      0x00\n        /* \"#utility.yul\":3451:3460   */\n      dup4\n        /* \"#utility.yul\":3447:3464   */\n      add\n        /* \"#utility.yul\":3440:3487   */\n      mstore\n        /* \"#utility.yul\":3504:3582   */\n      tag_399\n        /* \"#utility.yul\":3577:3581   */\n      dup2\n        /* \"#utility.yul\":3568:3574   */\n      dup5\n        /* \"#utility.yul\":3504:3582   */\n      tag_324\n      jump\t// in\n    tag_399:\n        /* \"#utility.yul\":3496:3582   */\n      swap1\n      pop\n        /* \"#utility.yul\":3276:3589   */\n      swap3\n      swap2\n      pop\n      pop\n      jump\t// out\n        /* \"#utility.yul\":3595:3713   */\n    tag_325:\n        /* \"#utility.yul\":3682:3706   */\n      tag_401\n        /* \"#utility.yul\":3700:3705   */\n      dup2\n        /* \"#utility.yul\":3682:3706   */\n      tag_317\n      jump\t// in\n    tag_401:\n        /* \"#utility.yul\":3677:3680   */\n      dup3\n        /* \"#utility.yul\":3670:3707   */\n      mstore\n        /* \"#utility.yul\":3595:3713   */\n      pop\n      pop\n      jump\t// out\n        /* \"#utility.yul\":3719:3941   */\n    tag_43:\n        /* \"#utility.yul\":3812:3816   */\n      0x00\n        /* \"#utility.yul\":3850:3852   */\n      0x20\n        /* \"#utility.yul\":3839:3848   */\n      dup3\n        /* \"#utility.yul\":3835:3853   */\n      add\n        /* \"#utility.yul\":3827:3853   */\n      swap1\n      pop\n        /* \"#utility.yul\":3863:3934   */\n      tag_403\n        /* \"#utility.yul\":3931:3932   */\n      0x00\n        /* \"#utility.yul\":3920:3929   */\n      dup4\n        /* \"#utility.yul\":3916:3933   */\n      add\n        /* \"#utility.yul\":3907:3913   */\n      dup5\n        /* \"#utility.yul\":3863:3934   */\n      tag_325\n      jump\t// in\n    tag_403:\n        /* \"#utility.yul\":3719:3941   */\n      swap3\n      swap2\n      pop\n      pop\n      jump\t// out\n        /* \"#utility.yul\":3947:4024   */\n    tag_326:\n        /* \"#utility.yul\":3984:3991   */\n      0x00\n        /* \"#utility.yul\":4013:4018   */\n      dup2\n        /* \"#utility.yul\":4002:4018   */\n      swap1\n      pop\n        /* \"#utility.yul\":3947:4024   */\n      swap2\n      swap1\n      pop\n      jump\t// out\n        /* \"#utility.yul\":4030:4152   */\n    tag_327:\n        /* \"#utility.yul\":4103:4127   */\n      tag_406\n        /* \"#utility.yul\":4121:4126   */\n      dup2\n        /* \"#utility.yul\":4103:4127   */\n      tag_326\n      jump\t// in\n    tag_406:\n        /* \"#utility.yul\":4096:4101   */\n      dup2\n        /* \"#utility.yul\":4093:4128   */\n      eq\n        /* \"#utility.yul\":4083:4146   */\n      tag_407\n      jumpi\n        /* \"#utility.yul\":4142:4143   */\n      0x00\n        /* \"#utility.yul\":4139:4140   */\n      dup1\n        /* \"#utility.yul\":4132:4144   */\n      revert\n        /* \"#utility.yul\":4083:4146   */\n    tag_407:\n        /* \"#utility.yul\":4030:4152   */\n      pop\n      jump\t// out\n        /* \"#utility.yul\":4158:4297   */\n    tag_328:\n        /* \"#utility.yul\":4204:4209   */\n      0x00\n        /* \"#utility.yul\":4242:4248   */\n      dup2\n        /* \"#utility.yul\":4229:4249   */\n      calldataload\n        /* \"#utility.yul\":4220:4249   */\n      swap1\n      pop\n        /* \"#utility.yul\":4258:4291   */\n      tag_409\n        /* \"#utility.yul\":4285:4290   */\n      dup2\n        /* \"#utility.yul\":4258:4291   */\n      tag_327\n      jump\t// in\n    tag_409:\n        /* \"#utility.yul\":4158:4297   */\n      swap3\n      swap2\n      pop\n      pop\n      jump\t// out\n        /* \"#utility.yul\":4303:4632   */\n    tag_46:\n        /* \"#utility.yul\":4362:4368   */\n      0x00\n        /* \"#utility.yul\":4411:4413   */\n      0x20\n        /* \"#utility.yul\":4399:4408   */\n      dup3\n        /* \"#utility.yul\":4390:4397   */\n      dup5\n        /* \"#utility.yul\":4386:4409   */\n      sub\n        /* \"#utility.yul\":4382:4414   */\n      slt\n        /* \"#utility.yul\":4379:4498   */\n      iszero\n      tag_411\n      jumpi\n        /* \"#utility.yul\":4417:4496   */\n      tag_412\n      tag_309\n      jump\t// in\n    tag_412:\n        /* \"#utility.yul\":4379:4498   */\n    tag_411:\n        /* \"#utility.yul\":4537:4538   */\n      0x00\n        /* \"#utility.yul\":4562:4615   */\n      tag_413\n        /* \"#utility.yul\":4607:4614   */\n      dup5\n        /* \"#utility.yul\":4598:4604   */\n      dup3\n        /* \"#utility.yul\":4587:4596   */\n      dup6\n        /* \"#utility.yul\":4583:4605   */\n      add\n        /* \"#utility.yul\":4562:4615   */\n      tag_328\n      jump\t// in\n    tag_413:\n        /* \"#utility.yul\":4552:4615   */\n      swap2\n      pop\n        /* \"#utility.yul\":4508:4625   */\n      pop\n        /* \"#utility.yul\":4303:4632   */\n      swap3\n      swap2\n      pop\n      pop\n      jump\t// out\n        /* \"#utility.yul\":4638:5112   */\n    tag_51:\n        /* \"#utility.yul\":4706:4712   */\n      0x00\n        /* \"#utility.yul\":4714:4720   */\n      dup1\n        /* \"#utility.yul\":4763:4765   */\n      0x40\n        /* \"#utility.yul\":4751:4760   */\n      dup4\n        /* \"#utility.yul\":4742:4749   */\n      dup6\n        /* \"#utility.yul\":4738:4761   */\n      sub\n        /* \"#utility.yul\":4734:4766   */\n      slt\n        /* \"#utility.yul\":4731:4850   */\n      iszero\n      tag_415\n      jumpi\n        /* \"#utility.yul\":4769:4848   */\n      tag_416\n      tag_309\n      jump\t// in\n    tag_416:\n        /* \"#utility.yul\":4731:4850   */\n    tag_415:\n        /* \"#utility.yul\":4889:4890   */\n      0x00\n        /* \"#utility.yul\":4914:4967   */\n      tag_417\n        /* \"#utility.yul\":4959:4966   */\n      dup6\n        /* \"#utility.yul\":4950:4956   */\n      dup3\n        /* \"#utility.yul\":4939:4948   */\n      dup7\n        /* \"#utility.yul\":4935:4957   */\n      add\n        /* \"#utility.yul\":4914:4967   */\n      tag_319\n      jump\t// in\n    tag_417:\n        /* \"#utility.yul\":4904:4967   */\n      swap3\n      pop\n        /* \"#utility.yul\":4860:4977   */\n      pop\n        /* \"#utility.yul\":5016:5018   */\n      0x20\n        /* \"#utility.yul\":5042:5095   */\n      tag_418\n        /* \"#utility.yul\":5087:5094   */\n      dup6\n        /* \"#utility.yul\":5078:5084   */\n      dup3\n        /* \"#utility.yul\":5067:5076   */\n      dup7\n        /* \"#utility.yul\":5063:5085   */\n      add\n        /* \"#utility.yul\":5042:5095   */\n      tag_328\n      jump\t// in\n    tag_418:\n        /* \"#utility.yul\":5032:5095   */\n      swap2\n      pop\n        /* \"#utility.yul\":4987:5105   */\n      pop\n        /* \"#utility.yul\":4638:5112   */\n      swap3\n      pop\n      swap3\n      swap1\n      pop\n      jump\t// out\n        /* \"#utility.yul\":5118:5236   */\n    tag_329:\n        /* \"#utility.yul\":5205:5229   */\n      tag_420\n        /* \"#utility.yul\":5223:5228   */\n      dup2\n        /* \"#utility.yul\":5205:5229   */\n      tag_326\n      jump\t// in\n    tag_420:\n        /* \"#utility.yul\":5200:5203   */\n      dup3\n        /* \"#utility.yul\":5193:5230   */\n      mstore\n        /* \"#utility.yul\":5118:5236   */\n      pop\n      pop\n      jump\t// out\n        /* \"#utility.yul\":5242:5464   */\n    tag_56:\n        /* \"#utility.yul\":5335:5339   */\n      0x00\n        /* \"#utility.yul\":5373:5375   */\n      0x20\n        /* \"#utility.yul\":5362:5371   */\n      dup3\n        /* \"#utility.yul\":5358:5376   */\n      add\n        /* \"#utility.yul\":5350:5376   */\n      swap1\n      pop\n        /* \"#utility.yul\":5386:5457   */\n      tag_422\n        /* \"#utility.yul\":5454:5455   */\n      0x00\n        /* \"#utility.yul\":5443:5452   */\n      dup4\n        /* \"#utility.yul\":5439:5456   */\n      add\n        /* \"#utility.yul\":5430:5436   */\n      dup5\n        /* \"#utility.yul\":5386:5457   */\n      tag_329\n      jump\t// in\n    tag_422:\n        /* \"#utility.yul\":5242:5464   */\n      swap3\n      swap2\n      pop\n      pop\n      jump\t// out\n        /* \"#utility.yul\":5470:6089   */\n    tag_62:\n        /* \"#utility.yul\":5547:5553   */\n      0x00\n        /* \"#utility.yul\":5555:5561   */\n      dup1\n        /* \"#utility.yul\":5563:5569   */\n      0x00\n        /* \"#utility.yul\":5612:5614   */\n      0x60\n        /* \"#utility.yul\":5600:5609   */\n      dup5\n        /* \"#utility.yul\":5591:5598   */\n      dup7\n        /* \"#utility.yul\":5587:5610   */\n      sub\n        /* \"#utility.yul\":5583:5615   */\n      slt\n        /* \"#utility.yul\":5580:5699   */\n      iszero\n      tag_424\n      jumpi\n        /* \"#utility.yul\":5618:5697   */\n      tag_425\n      tag_309\n      jump\t// in\n    tag_425:\n        /* \"#utility.yul\":5580:5699   */\n    tag_424:\n        /* \"#utility.yul\":5738:5739   */\n      0x00\n        /* \"#utility.yul\":5763:5816   */\n      tag_426\n        /* \"#utility.yul\":5808:5815   */\n      dup7\n        /* \"#utility.yul\":5799:5805   */\n      dup3\n        /* \"#utility.yul\":5788:5797   */\n      dup8\n        /* \"#utility.yul\":5784:5806   */\n      add\n        /* \"#utility.yul\":5763:5816   */\n      tag_319\n      jump\t// in\n    tag_426:\n        /* \"#utility.yul\":5753:5816   */\n      swap4\n      pop\n        /* \"#utility.yul\":5709:5826   */\n      pop\n        /* \"#utility.yul\":5865:5867   */\n      0x20\n        /* \"#utility.yul\":5891:5944   */\n      tag_427\n        /* \"#utility.yul\":5936:5943   */\n      dup7\n        /* \"#utility.yul\":5927:5933   */\n      dup3\n        /* \"#utility.yul\":5916:5925   */\n      dup8\n        /* \"#utility.yul\":5912:5934   */\n      add\n        /* \"#utility.yul\":5891:5944   */\n      tag_319\n      jump\t// in\n    tag_427:\n        /* \"#utility.yul\":5881:5944   */\n      swap3\n      pop\n        /* \"#utility.yul\":5836:5954   */\n      pop\n        /* \"#utility.yul\":5993:5995   */\n      0x40\n        /* \"#utility.yul\":6019:6072   */\n      tag_428\n        /* \"#utility.yul\":6064:6071   */\n      dup7\n        /* \"#utility.yul\":6055:6061   */\n      dup3\n        /* \"#utility.yul\":6044:6053   */\n      dup8\n        /* \"#utility.yul\":6040:6062   */\n      add\n        /* \"#utility.yul\":6019:6072   */\n      tag_328\n      jump\t// in\n    tag_428:\n        /* \"#utility.yul\":6009:6072   */\n      swap2\n      pop\n        /* \"#utility.yul\":5964:6082   */\n      pop\n        /* \"#utility.yul\":5470:6089   */\n      swap3\n      pop\n      swap3\n      pop\n      swap3\n      jump\t// out\n        /* \"#utility.yul\":6095:6211   */\n    tag_330:\n        /* \"#utility.yul\":6165:6186   */\n      tag_430\n        /* \"#utility.yul\":6180:6185   */\n      dup2\n        /* \"#utility.yul\":6165:6186   */\n      tag_314\n      jump\t// in\n    tag_430:\n        /* \"#utility.yul\":6158:6163   */\n      dup2\n        /* \"#utility.yul\":6155:6187   */\n      eq\n        /* \"#utility.yul\":6145:6205   */\n      tag_431\n      jumpi\n        /* \"#utility.yul\":6201:6202   */\n      0x00\n        /* \"#utility.yul\":6198:6199   */\n      dup1\n        /* \"#utility.yul\":6191:6203   */\n      revert\n        /* \"#utility.yul\":6145:6205   */\n    tag_431:\n        /* \"#utility.yul\":6095:6211   */\n      pop\n      jump\t// out\n        /* \"#utility.yul\":6217:6350   */\n    tag_331:\n        /* \"#utility.yul\":6260:6265   */\n      0x00\n        /* \"#utility.yul\":6298:6304   */\n      dup2\n        /* \"#utility.yul\":6285:6305   */\n      calldataload\n        /* \"#utility.yul\":6276:6305   */\n      swap1\n      pop\n        /* \"#utility.yul\":6314:6344   */\n      tag_433\n        /* \"#utility.yul\":6338:6343   */\n      dup2\n        /* \"#utility.yul\":6314:6344   */\n      tag_330\n      jump\t// in\n    tag_433:\n        /* \"#utility.yul\":6217:6350   */\n      swap3\n      swap2\n      pop\n      pop\n      jump\t// out\n        /* \"#utility.yul\":6356:6824   */\n    tag_88:\n        /* \"#utility.yul\":6421:6427   */\n      0x00\n        /* \"#utility.yul\":6429:6435   */\n      dup1\n        /* \"#utility.yul\":6478:6480   */\n      0x40\n        /* \"#utility.yul\":6466:6475   */\n      dup4\n        /* \"#utility.yul\":6457:6464   */\n      dup6\n        /* \"#utility.yul\":6453:6476   */\n      sub\n        /* \"#utility.yul\":6449:6481   */\n      slt\n        /* \"#utility.yul\":6446:6565   */\n      iszero\n      tag_435\n      jumpi\n        /* \"#utility.yul\":6484:6563   */\n      tag_436\n      tag_309\n      jump\t// in\n    tag_436:\n        /* \"#utility.yul\":6446:6565   */\n    tag_435:\n        /* \"#utility.yul\":6604:6605   */\n      0x00\n        /* \"#utility.yul\":6629:6682   */\n      tag_437\n        /* \"#utility.yul\":6674:6681   */\n      dup6\n        /* \"#utility.yul\":6665:6671   */\n      dup3\n        /* \"#utility.yul\":6654:6663   */\n      dup7\n        /* \"#utility.yul\":6650:6672   */\n      add\n        /* \"#utility.yul\":6629:6682   */\n      tag_319\n      jump\t// in\n    tag_437:\n        /* \"#utility.yul\":6619:6682   */\n      swap3\n      pop\n        /* \"#utility.yul\":6575:6692   */\n      pop\n        /* \"#utility.yul\":6731:6733   */\n      0x20\n        /* \"#utility.yul\":6757:6807   */\n      tag_438\n        /* \"#utility.yul\":6799:6806   */\n      dup6\n        /* \"#utility.yul\":6790:6796   */\n      dup3\n        /* \"#utility.yul\":6779:6788   */\n      dup7\n        /* \"#utility.yul\":6775:6797   */\n      add\n        /* \"#utility.yul\":6757:6807   */\n      tag_331\n      jump\t// in\n    tag_438:\n        /* \"#utility.yul\":6747:6807   */\n      swap2\n      pop\n        /* \"#utility.yul\":6702:6817   */\n      pop\n        /* \"#utility.yul\":6356:6824   */\n      swap3\n      pop\n      swap3\n      swap1\n      pop\n      jump\t// out\n        /* \"#utility.yul\":6830:6947   */\n    tag_332:\n        /* \"#utility.yul\":6939:6940   */\n      0x00\n        /* \"#utility.yul\":6936:6937   */\n      dup1\n        /* \"#utility.yul\":6929:6941   */\n      revert\n        /* \"#utility.yul\":6953:7070   */\n    tag_333:\n        /* \"#utility.yul\":7062:7063   */\n      0x00\n        /* \"#utility.yul\":7059:7060   */\n      dup1\n        /* \"#utility.yul\":7052:7064   */\n      revert\n        /* \"#utility.yul\":7076:7193   */\n    tag_334:\n        /* \"#utility.yul\":7185:7186   */\n      0x00\n        /* \"#utility.yul\":7182:7183   */\n      dup1\n        /* \"#utility.yul\":7175:7187   */\n      revert\n        /* \"#utility.yul\":7212:7764   */\n    tag_335:\n        /* \"#utility.yul\":7269:7277   */\n      0x00\n        /* \"#utility.yul\":7279:7285   */\n      dup1\n        /* \"#utility.yul\":7329:7332   */\n      dup4\n        /* \"#utility.yul\":7322:7326   */\n      0x1f\n        /* \"#utility.yul\":7314:7320   */\n      dup5\n        /* \"#utility.yul\":7310:7327   */\n      add\n        /* \"#utility.yul\":7306:7333   */\n      slt\n        /* \"#utility.yul\":7296:7418   */\n      tag_443\n      jumpi\n        /* \"#utility.yul\":7337:7416   */\n      tag_444\n      tag_332\n      jump\t// in\n    tag_444:\n        /* \"#utility.yul\":7296:7418   */\n    tag_443:\n        /* \"#utility.yul\":7450:7456   */\n      dup3\n        /* \"#utility.yul\":7437:7457   */\n      calldataload\n        /* \"#utility.yul\":7427:7457   */\n      swap1\n      pop\n        /* \"#utility.yul\":7480:7498   */\n      0xffffffffffffffff\n        /* \"#utility.yul\":7472:7478   */\n      dup2\n        /* \"#utility.yul\":7469:7499   */\n      gt\n        /* \"#utility.yul\":7466:7583   */\n      iszero\n      tag_445\n      jumpi\n        /* \"#utility.yul\":7502:7581   */\n      tag_446\n      tag_333\n      jump\t// in\n    tag_446:\n        /* \"#utility.yul\":7466:7583   */\n    tag_445:\n        /* \"#utility.yul\":7616:7620   */\n      0x20\n        /* \"#utility.yul\":7608:7614   */\n      dup4\n        /* \"#utility.yul\":7604:7621   */\n      add\n        /* \"#utility.yul\":7592:7621   */\n      swap2\n      pop\n        /* \"#utility.yul\":7670:7673   */\n      dup4\n        /* \"#utility.yul\":7662:7666   */\n      0x01\n        /* \"#utility.yul\":7654:7660   */\n      dup3\n        /* \"#utility.yul\":7650:7667   */\n      mul\n        /* \"#utility.yul\":7640:7648   */\n      dup4\n        /* \"#utility.yul\":7636:7668   */\n      add\n        /* \"#utility.yul\":7633:7674   */\n      gt\n        /* \"#utility.yul\":7630:7758   */\n      iszero\n      tag_447\n      jumpi\n        /* \"#utility.yul\":7677:7756   */\n      tag_448\n      tag_334\n      jump\t// in\n    tag_448:\n        /* \"#utility.yul\":7630:7758   */\n    tag_447:\n        /* \"#utility.yul\":7212:7764   */\n      swap3\n      pop\n      swap3\n      swap1\n      pop\n      jump\t// out\n        /* \"#utility.yul\":7770:8733   */\n    tag_92:\n        /* \"#utility.yul\":7867:7873   */\n      0x00\n        /* \"#utility.yul\":7875:7881   */\n      dup1\n        /* \"#utility.yul\":7883:7889   */\n      0x00\n        /* \"#utility.yul\":7891:7897   */\n      dup1\n        /* \"#utility.yul\":7899:7905   */\n      0x00\n        /* \"#utility.yul\":7948:7951   */\n      0x80\n        /* \"#utility.yul\":7936:7945   */\n      dup7\n        /* \"#utility.yul\":7927:7934   */\n      dup9\n        /* \"#utility.yul\":7923:7946   */\n      sub\n        /* \"#utility.yul\":7919:7952   */\n      slt\n        /* \"#utility.yul\":7916:8036   */\n      iszero\n      tag_450\n      jumpi\n        /* \"#utility.yul\":7955:8034   */\n      tag_451\n      tag_309\n      jump\t// in\n    tag_451:\n        /* \"#utility.yul\":7916:8036   */\n    tag_450:\n        /* \"#utility.yul\":8075:8076   */\n      0x00\n        /* \"#utility.yul\":8100:8153   */\n      tag_452\n        /* \"#utility.yul\":8145:8152   */\n      dup9\n        /* \"#utility.yul\":8136:8142   */\n      dup3\n        /* \"#utility.yul\":8125:8134   */\n      dup10\n        /* \"#utility.yul\":8121:8143   */\n      add\n        /* \"#utility.yul\":8100:8153   */\n      tag_319\n      jump\t// in\n    tag_452:\n        /* \"#utility.yul\":8090:8153   */\n      swap6\n      pop\n        /* \"#utility.yul\":8046:8163   */\n      pop\n        /* \"#utility.yul\":8202:8204   */\n      0x20\n        /* \"#utility.yul\":8228:8281   */\n      tag_453\n        /* \"#utility.yul\":8273:8280   */\n      dup9\n        /* \"#utility.yul\":8264:8270   */\n      dup3\n        /* \"#utility.yul\":8253:8262   */\n      dup10\n        /* \"#utility.yul\":8249:8271   */\n      add\n        /* \"#utility.yul\":8228:8281   */\n      tag_319\n      jump\t// in\n    tag_453:\n        /* \"#utility.yul\":8218:8281   */\n      swap5\n      pop\n        /* \"#utility.yul\":8173:8291   */\n      pop\n        /* \"#utility.yul\":8330:8332   */\n      0x40\n        /* \"#utility.yul\":8356:8409   */\n      tag_454\n        /* \"#utility.yul\":8401:8408   */\n      dup9\n        /* \"#utility.yul\":8392:8398   */\n      dup3\n        /* \"#utility.yul\":8381:8390   */\n      dup10\n        /* \"#utility.yul\":8377:8399   */\n      add\n        /* \"#utility.yul\":8356:8409   */\n      tag_328\n      jump\t// in\n    tag_454:\n        /* \"#utility.yul\":8346:8409   */\n      swap4\n      pop\n        /* \"#utility.yul\":8301:8419   */\n      pop\n        /* \"#utility.yul\":8486:8488   */\n      0x60\n        /* \"#utility.yul\":8475:8484   */\n      dup7\n        /* \"#utility.yul\":8471:8489   */\n      add\n        /* \"#utility.yul\":8458:8490   */\n      calldataload\n        /* \"#utility.yul\":8517:8535   */\n      0xffffffffffffffff\n        /* \"#utility.yul\":8509:8515   */\n      dup2\n        /* \"#utility.yul\":8506:8536   */\n      gt\n        /* \"#utility.yul\":8503:8620   */\n      iszero\n      tag_455\n      jumpi\n        /* \"#utility.yul\":8539:8618   */\n      tag_456\n      tag_310\n      jump\t// in\n    tag_456:\n        /* \"#utility.yul\":8503:8620   */\n    tag_455:\n        /* \"#utility.yul\":8652:8716   */\n      tag_457\n        /* \"#utility.yul\":8708:8715   */\n      dup9\n        /* \"#utility.yul\":8699:8705   */\n      dup3\n        /* \"#utility.yul\":8688:8697   */\n      dup10\n        /* \"#utility.yul\":8684:8706   */\n      add\n        /* \"#utility.yul\":8652:8716   */\n      tag_335\n      jump\t// in\n    tag_457:\n        /* \"#utility.yul\":8634:8716   */\n      swap3\n      pop\n      swap3\n      pop\n        /* \"#utility.yul\":8429:8726   */\n      pop\n        /* \"#utility.yul\":7770:8733   */\n      swap3\n      swap6\n      pop\n      swap3\n      swap6\n      swap1\n      swap4\n      pop\n      jump\t// out\n        /* \"#utility.yul\":8739:9213   */\n    tag_100:\n        /* \"#utility.yul\":8807:8813   */\n      0x00\n        /* \"#utility.yul\":8815:8821   */\n      dup1\n        /* \"#utility.yul\":8864:8866   */\n      0x40\n        /* \"#utility.yul\":8852:8861   */\n      dup4\n        /* \"#utility.yul\":8843:8850   */\n      dup6\n        /* \"#utility.yul\":8839:8862   */\n      sub\n        /* \"#utility.yul\":8835:8867   */\n      slt\n        /* \"#utility.yul\":8832:8951   */\n      iszero\n      tag_459\n      jumpi\n        /* \"#utility.yul\":8870:8949   */\n      tag_460\n      tag_309\n      jump\t// in\n    tag_460:\n        /* \"#utility.yul\":8832:8951   */\n    tag_459:\n        /* \"#utility.yul\":8990:8991   */\n      0x00\n        /* \"#utility.yul\":9015:9068   */\n      tag_461\n        /* \"#utility.yul\":9060:9067   */\n      dup6\n        /* \"#utility.yul\":9051:9057   */\n      dup3\n        /* \"#utility.yul\":9040:9049   */\n      dup7\n        /* \"#utility.yul\":9036:9058   */\n      add\n        /* \"#utility.yul\":9015:9068   */\n      tag_319\n      jump\t// in\n    tag_461:\n        /* \"#utility.yul\":9005:9068   */\n      swap3\n      pop\n        /* \"#utility.yul\":8961:9078   */\n      pop\n        /* \"#utility.yul\":9117:9119   */\n      0x20\n        /* \"#utility.yul\":9143:9196   */\n      tag_462\n        /* \"#utility.yul\":9188:9195   */\n      dup6\n        /* \"#utility.yul\":9179:9185   */\n      dup3\n        /* \"#utility.yul\":9168:9177   */\n      dup7\n        /* \"#utility.yul\":9164:9186   */\n      add\n        /* \"#utility.yul\":9143:9196   */\n      tag_319\n      jump\t// in\n    tag_462:\n        /* \"#utility.yul\":9133:9196   */\n      swap2\n      pop\n        /* \"#utility.yul\":9088:9206   */\n      pop\n        /* \"#utility.yul\":8739:9213   */\n      swap3\n      pop\n      swap3\n      swap1\n      pop\n      jump\t// out\n        /* \"#utility.yul\":9219:9399   */\n    tag_336:\n        /* \"#utility.yul\":9267:9344   */\n      0x4e487b7100000000000000000000000000000000000000000000000000000000\n        /* \"#utility.yul\":9264:9265   */\n      0x00\n        /* \"#utility.yul\":9257:9345   */\n      mstore\n        /* \"#utility.yul\":9364:9368   */\n      0x22\n        /* \"#utility.yul\":9361:9362   */\n      0x04\n        /* \"#utility.yul\":9354:9369   */\n      mstore\n        /* \"#utility.yul\":9388:9392   */\n      0x24\n        /* \"#utility.yul\":9385:9386   */\n      0x00\n        /* \"#utility.yul\":9378:9393   */\n      revert\n        /* \"#utility.yul\":9405:9725   */\n    tag_110:\n        /* \"#utility.yul\":9449:9455   */\n      0x00\n        /* \"#utility.yul\":9486:9487   */\n      0x02\n        /* \"#utility.yul\":9480:9484   */\n      dup3\n        /* \"#utility.yul\":9476:9488   */\n      div\n        /* \"#utility.yul\":9466:9488   */\n      swap1\n      pop\n        /* \"#utility.yul\":9533:9534   */\n      0x01\n        /* \"#utility.yul\":9527:9531   */\n      dup3\n        /* \"#utility.yul\":9523:9535   */\n      and\n        /* \"#utility.yul\":9554:9572   */\n      dup1\n        /* \"#utility.yul\":9544:9625   */\n      tag_465\n      jumpi\n        /* \"#utility.yul\":9610:9614   */\n      0x7f\n        /* \"#utility.yul\":9602:9608   */\n      dup3\n        /* \"#utility.yul\":9598:9615   */\n      and\n        /* \"#utility.yul\":9588:9615   */\n      swap2\n      pop\n        /* \"#utility.yul\":9544:9625   */\n    tag_465:\n        /* \"#utility.yul\":9672:9674   */\n      0x20\n        /* \"#utility.yul\":9664:9670   */\n      dup3\n        /* \"#utility.yul\":9661:9675   */\n      lt\n        /* \"#utility.yul\":9641:9659   */\n      dup2\n        /* \"#utility.yul\":9638:9676   */\n      sub\n        /* \"#utility.yul\":9635:9719   */\n      tag_466\n      jumpi\n        /* \"#utility.yul\":9691:9709   */\n      tag_467\n      tag_336\n      jump\t// in\n    tag_467:\n        /* \"#utility.yul\":9635:9719   */\n    tag_466:\n        /* \"#utility.yul\":9456:9725   */\n      pop\n        /* \"#utility.yul\":9405:9725   */\n      swap2\n      swap1\n      pop\n      jump\t// out\n        /* \"#utility.yul\":9731:9902   */\n    tag_337:\n        /* \"#utility.yul\":9871:9894   */\n      0x746f6b656e20697320417070726f766564207965740000000000000000000000\n        /* \"#utility.yul\":9867:9868   */\n      0x00\n        /* \"#utility.yul\":9859:9865   */\n      dup3\n        /* \"#utility.yul\":9855:9869   */\n      add\n        /* \"#utility.yul\":9848:9895   */\n      mstore\n        /* \"#utility.yul\":9731:9902   */\n      pop\n      jump\t// out\n        /* \"#utility.yul\":9908:10274   */\n    tag_338:\n        /* \"#utility.yul\":10050:10053   */\n      0x00\n        /* \"#utility.yul\":10071:10138   */\n      tag_470\n        /* \"#utility.yul\":10135:10137   */\n      0x15\n        /* \"#utility.yul\":10130:10133   */\n      dup4\n        /* \"#utility.yul\":10071:10138   */\n      tag_321\n      jump\t// in\n    tag_470:\n        /* \"#utility.yul\":10064:10138   */\n      swap2\n      pop\n        /* \"#utility.yul\":10147:10240   */\n      tag_471\n        /* \"#utility.yul\":10236:10239   */\n      dup3\n        /* \"#utility.yul\":10147:10240   */\n      tag_337\n      jump\t// in\n    tag_471:\n        /* \"#utility.yul\":10265:10267   */\n      0x20\n        /* \"#utility.yul\":10260:10263   */\n      dup3\n        /* \"#utility.yul\":10256:10268   */\n      add\n        /* \"#utility.yul\":10249:10268   */\n      swap1\n      pop\n        /* \"#utility.yul\":9908:10274   */\n      swap2\n      swap1\n      pop\n      jump\t// out\n        /* \"#utility.yul\":10280:10699   */\n    tag_119:\n        /* \"#utility.yul\":10446:10450   */\n      0x00\n        /* \"#utility.yul\":10484:10486   */\n      0x20\n        /* \"#utility.yul\":10473:10482   */\n      dup3\n        /* \"#utility.yul\":10469:10487   */\n      add\n        /* \"#utility.yul\":10461:10487   */\n      swap1\n      pop\n        /* \"#utility.yul\":10533:10542   */\n      dup2\n        /* \"#utility.yul\":10527:10531   */\n      dup2\n        /* \"#utility.yul\":10523:10543   */\n      sub\n        /* \"#utility.yul\":10519:10520   */\n      0x00\n        /* \"#utility.yul\":10508:10517   */\n      dup4\n        /* \"#utility.yul\":10504:10521   */\n      add\n        /* \"#utility.yul\":10497:10544   */\n      mstore\n        /* \"#utility.yul\":10561:10692   */\n      tag_473\n        /* \"#utility.yul\":10687:10691   */\n      dup2\n        /* \"#utility.yul\":10561:10692   */\n      tag_338\n      jump\t// in\n    tag_473:\n        /* \"#utility.yul\":10553:10692   */\n      swap1\n      pop\n        /* \"#utility.yul\":10280:10699   */\n      swap2\n      swap1\n      pop\n      jump\t// out\n        /* \"#utility.yul\":10705:10869   */\n    tag_339:\n        /* \"#utility.yul\":10845:10861   */\n      0x746f6b656e496420657869737473000000000000000000000000000000000000\n        /* \"#utility.yul\":10841:10842   */\n      0x00\n        /* \"#utility.yul\":10833:10839   */\n      dup3\n        /* \"#utility.yul\":10829:10843   */\n      add\n        /* \"#utility.yul\":10822:10862   */\n      mstore\n        /* \"#utility.yul\":10705:10869   */\n      pop\n      jump\t// out\n        /* \"#utility.yul\":10875:11241   */\n    tag_340:\n        /* \"#utility.yul\":11017:11020   */\n      0x00\n        /* \"#utility.yul\":11038:11105   */\n      tag_476\n        /* \"#utility.yul\":11102:11104   */\n      0x0e\n        /* \"#utility.yul\":11097:11100   */\n      dup4\n        /* \"#utility.yul\":11038:11105   */\n      tag_321\n      jump\t// in\n    tag_476:\n        /* \"#utility.yul\":11031:11105   */\n      swap2\n      pop\n        /* \"#utility.yul\":11114:11207   */\n      tag_477\n        /* \"#utility.yul\":11203:11206   */\n      dup3\n        /* \"#utility.yul\":11114:11207   */\n      tag_339\n      jump\t// in\n    tag_477:\n        /* \"#utility.yul\":11232:11234   */\n      0x20\n        /* \"#utility.yul\":11227:11230   */\n      dup3\n        /* \"#utility.yul\":11223:11235   */\n      add\n        /* \"#utility.yul\":11216:11235   */\n      swap1\n      pop\n        /* \"#utility.yul\":10875:11241   */\n      swap2\n      swap1\n      pop\n      jump\t// out\n        /* \"#utility.yul\":11247:11666   */\n    tag_127:\n        /* \"#utility.yul\":11413:11417   */\n      0x00\n        /* \"#utility.yul\":11451:11453   */\n      0x20\n        /* \"#utility.yul\":11440:11449   */\n      dup3\n        /* \"#utility.yul\":11436:11454   */\n      add\n        /* \"#utility.yul\":11428:11454   */\n      swap1\n      pop\n        /* \"#utility.yul\":11500:11509   */\n      dup2\n        /* \"#utility.yul\":11494:11498   */\n      dup2\n        /* \"#utility.yul\":11490:11510   */\n      sub\n        /* \"#utility.yul\":11486:11487   */\n      0x00\n        /* \"#utility.yul\":11475:11484   */\n      dup4\n        /* \"#utility.yul\":11471:11488   */\n      add\n        /* \"#utility.yul\":11464:11511   */\n      mstore\n        /* \"#utility.yul\":11528:11659   */\n      tag_479\n        /* \"#utility.yul\":11654:11658   */\n      dup2\n        /* \"#utility.yul\":11528:11659   */\n      tag_340\n      jump\t// in\n    tag_479:\n        /* \"#utility.yul\":11520:11659   */\n      swap1\n      pop\n        /* \"#utility.yul\":11247:11666   */\n      swap2\n      swap1\n      pop\n      jump\t// out\n        /* \"#utility.yul\":11672:11837   */\n    tag_341:\n        /* \"#utility.yul\":11812:11829   */\n      0x696e64657820746f6f206c617267650000000000000000000000000000000000\n        /* \"#utility.yul\":11808:11809   */\n      0x00\n        /* \"#utility.yul\":11800:11806   */\n      dup3\n        /* \"#utility.yul\":11796:11810   */\n      add\n        /* \"#utility.yul\":11789:11830   */\n      mstore\n        /* \"#utility.yul\":11672:11837   */\n      pop\n      jump\t// out\n        /* \"#utility.yul\":11843:12209   */\n    tag_342:\n        /* \"#utility.yul\":11985:11988   */\n      0x00\n        /* \"#utility.yul\":12006:12073   */\n      tag_482\n        /* \"#utility.yul\":12070:12072   */\n      0x0f\n        /* \"#utility.yul\":12065:12068   */\n      dup4\n        /* \"#utility.yul\":12006:12073   */\n      tag_321\n      jump\t// in\n    tag_482:\n        /* \"#utility.yul\":11999:12073   */\n      swap2\n      pop\n        /* \"#utility.yul\":12082:12175   */\n      tag_483\n        /* \"#utility.yul\":12171:12174   */\n      dup3\n        /* \"#utility.yul\":12082:12175   */\n      tag_341\n      jump\t// in\n    tag_483:\n        /* \"#utility.yul\":12200:12202   */\n      0x20\n        /* \"#utility.yul\":12195:12198   */\n      dup3\n        /* \"#utility.yul\":12191:12203   */\n      add\n        /* \"#utility.yul\":12184:12203   */\n      swap1\n      pop\n        /* \"#utility.yul\":11843:12209   */\n      swap2\n      swap1\n      pop\n      jump\t// out\n        /* \"#utility.yul\":12215:12634   */\n    tag_137:\n        /* \"#utility.yul\":12381:12385   */\n      0x00\n        /* \"#utility.yul\":12419:12421   */\n      0x20\n        /* \"#utility.yul\":12408:12417   */\n      dup3\n        /* \"#utility.yul\":12404:12422   */\n      add\n        /* \"#utility.yul\":12396:12422   */\n      swap1\n      pop\n        /* \"#utility.yul\":12468:12477   */\n      dup2\n        /* \"#utility.yul\":12462:12466   */\n      dup2\n        /* \"#utility.yul\":12458:12478   */\n      sub\n        /* \"#utility.yul\":12454:12455   */\n      0x00\n        /* \"#utility.yul\":12443:12452   */\n      dup4\n        /* \"#utility.yul\":12439:12456   */\n      add\n        /* \"#utility.yul\":12432:12479   */\n      mstore\n        /* \"#utility.yul\":12496:12627   */\n      tag_485\n        /* \"#utility.yul\":12622:12626   */\n      dup2\n        /* \"#utility.yul\":12496:12627   */\n      tag_342\n      jump\t// in\n    tag_485:\n        /* \"#utility.yul\":12488:12627   */\n      swap1\n      pop\n        /* \"#utility.yul\":12215:12634   */\n      swap2\n      swap1\n      pop\n      jump\t// out\n        /* \"#utility.yul\":12640:12820   */\n    tag_140:\n        /* \"#utility.yul\":12688:12765   */\n      0x4e487b7100000000000000000000000000000000000000000000000000000000\n        /* \"#utility.yul\":12685:12686   */\n      0x00\n        /* \"#utility.yul\":12678:12766   */\n      mstore\n        /* \"#utility.yul\":12785:12789   */\n      0x32\n        /* \"#utility.yul\":12782:12783   */\n      0x04\n        /* \"#utility.yul\":12775:12790   */\n      mstore\n        /* \"#utility.yul\":12809:12813   */\n      0x24\n        /* \"#utility.yul\":12806:12807   */\n      0x00\n        /* \"#utility.yul\":12799:12814   */\n      revert\n        /* \"#utility.yul\":12826:13003   */\n    tag_343:\n        /* \"#utility.yul\":12966:12995   */\n      0x5f636865636b4552433732315265636569766572206661696c65640000000000\n        /* \"#utility.yul\":12962:12963   */\n      0x00\n        /* \"#utility.yul\":12954:12960   */\n      dup3\n        /* \"#utility.yul\":12950:12964   */\n      add\n        /* \"#utility.yul\":12943:12996   */\n      mstore\n        /* \"#utility.yul\":12826:13003   */\n      pop\n      jump\t// out\n        /* \"#utility.yul\":13009:13375   */\n    tag_344:\n        /* \"#utility.yul\":13151:13154   */\n      0x00\n        /* \"#utility.yul\":13172:13239   */\n      tag_489\n        /* \"#utility.yul\":13236:13238   */\n      0x1b\n        /* \"#utility.yul\":13231:13234   */\n      dup4\n        /* \"#utility.yul\":13172:13239   */\n      tag_321\n      jump\t// in\n    tag_489:\n        /* \"#utility.yul\":13165:13239   */\n      swap2\n      pop\n        /* \"#utility.yul\":13248:13341   */\n      tag_490\n        /* \"#utility.yul\":13337:13340   */\n      dup3\n        /* \"#utility.yul\":13248:13341   */\n      tag_343\n      jump\t// in\n    tag_490:\n        /* \"#utility.yul\":13366:13368   */\n      0x20\n        /* \"#utility.yul\":13361:13364   */\n      dup3\n        /* \"#utility.yul\":13357:13369   */\n      add\n        /* \"#utility.yul\":13350:13369   */\n      swap1\n      pop\n        /* \"#utility.yul\":13009:13375   */\n      swap2\n      swap1\n      pop\n      jump\t// out\n        /* \"#utility.yul\":13381:13800   */\n    tag_147:\n        /* \"#utility.yul\":13547:13551   */\n      0x00\n        /* \"#utility.yul\":13585:13587   */\n      0x20\n        /* \"#utility.yul\":13574:13583   */\n      dup3\n        /* \"#utility.yul\":13570:13588   */\n      add\n        /* \"#utility.yul\":13562:13588   */\n      swap1\n      pop\n        /* \"#utility.yul\":13634:13643   */\n      dup2\n        /* \"#utility.yul\":13628:13632   */\n      dup2\n        /* \"#utility.yul\":13624:13644   */\n      sub\n        /* \"#utility.yul\":13620:13621   */\n      0x00\n        /* \"#utility.yul\":13609:13618   */\n      dup4\n        /* \"#utility.yul\":13605:13622   */\n      add\n        /* \"#utility.yul\":13598:13645   */\n      mstore\n        /* \"#utility.yul\":13662:13793   */\n      tag_492\n        /* \"#utility.yul\":13788:13792   */\n      dup2\n        /* \"#utility.yul\":13662:13793   */\n      tag_344\n      jump\t// in\n    tag_492:\n        /* \"#utility.yul\":13654:13793   */\n      swap1\n      pop\n        /* \"#utility.yul\":13381:13800   */\n      swap2\n      swap1\n      pop\n      jump\t// out\n        /* \"#utility.yul\":13806:13986   */\n    tag_183:\n        /* \"#utility.yul\":13854:13931   */\n      0x4e487b7100000000000000000000000000000000000000000000000000000000\n        /* \"#utility.yul\":13851:13852   */\n      0x00\n        /* \"#utility.yul\":13844:13932   */\n      mstore\n        /* \"#utility.yul\":13951:13955   */\n      0x41\n        /* \"#utility.yul\":13948:13949   */\n      0x04\n        /* \"#utility.yul\":13941:13956   */\n      mstore\n        /* \"#utility.yul\":13975:13979   */\n      0x24\n        /* \"#utility.yul\":13972:13973   */\n      0x00\n        /* \"#utility.yul\":13965:13980   */\n      revert\n        /* \"#utility.yul\":13992:14140   */\n    tag_345:\n        /* \"#utility.yul\":14094:14105   */\n      0x00\n        /* \"#utility.yul\":14131:14134   */\n      dup2\n        /* \"#utility.yul\":14116:14134   */\n      swap1\n      pop\n        /* \"#utility.yul\":13992:14140   */\n      swap3\n      swap2\n      pop\n      pop\n      jump\t// out\n        /* \"#utility.yul\":14146:14287   */\n    tag_346:\n        /* \"#utility.yul\":14195:14199   */\n      0x00\n        /* \"#utility.yul\":14218:14221   */\n      dup2\n        /* \"#utility.yul\":14210:14221   */\n      swap1\n      pop\n        /* \"#utility.yul\":14241:14244   */\n      dup2\n        /* \"#utility.yul\":14238:14239   */\n      0x00\n        /* \"#utility.yul\":14231:14245   */\n      mstore\n        /* \"#utility.yul\":14275:14279   */\n      0x20\n        /* \"#utility.yul\":14272:14273   */\n      0x00\n        /* \"#utility.yul\":14262:14280   */\n      keccak256\n        /* \"#utility.yul\":14254:14280   */\n      swap1\n      pop\n        /* \"#utility.yul\":14146:14287   */\n      swap2\n      swap1\n      pop\n      jump\t// out\n        /* \"#utility.yul\":14317:15191   */\n    tag_347:\n        /* \"#utility.yul\":14420:14423   */\n      0x00\n        /* \"#utility.yul\":14457:14462   */\n      dup2\n        /* \"#utility.yul\":14451:14463   */\n      sload\n        /* \"#utility.yul\":14486:14522   */\n      tag_497\n        /* \"#utility.yul\":14512:14521   */\n      dup2\n        /* \"#utility.yul\":14486:14522   */\n      tag_110\n      jump\t// in\n    tag_497:\n        /* \"#utility.yul\":14538:14627   */\n      tag_498\n        /* \"#utility.yul\":14620:14626   */\n      dup2\n        /* \"#utility.yul\":14615:14618   */\n      dup7\n        /* \"#utility.yul\":14538:14627   */\n      tag_345\n      jump\t// in\n    tag_498:\n        /* \"#utility.yul\":14531:14627   */\n      swap5\n      pop\n        /* \"#utility.yul\":14658:14659   */\n      0x01\n        /* \"#utility.yul\":14647:14656   */\n      dup3\n        /* \"#utility.yul\":14643:14660   */\n      and\n        /* \"#utility.yul\":14674:14675   */\n      0x00\n        /* \"#utility.yul\":14669:14835   */\n      dup2\n      eq\n      tag_500\n      jumpi\n        /* \"#utility.yul\":14849:14850   */\n      0x01\n        /* \"#utility.yul\":14844:15185   */\n      dup2\n      eq\n      tag_501\n      jumpi\n        /* \"#utility.yul\":14636:15185   */\n      jump(tag_499)\n        /* \"#utility.yul\":14669:14835   */\n    tag_500:\n        /* \"#utility.yul\":14753:14757   */\n      0xff\n        /* \"#utility.yul\":14749:14758   */\n      not\n        /* \"#utility.yul\":14738:14747   */\n      dup4\n        /* \"#utility.yul\":14734:14759   */\n      and\n        /* \"#utility.yul\":14729:14732   */\n      dup7\n        /* \"#utility.yul\":14722:14760   */\n      mstore\n        /* \"#utility.yul\":14815:14821   */\n      dup2\n        /* \"#utility.yul\":14808:14822   */\n      iszero\n        /* \"#utility.yul\":14801:14823   */\n      iszero\n        /* \"#utility.yul\":14793:14799   */\n      dup3\n        /* \"#utility.yul\":14789:14824   */\n      mul\n        /* \"#utility.yul\":14784:14787   */\n      dup7\n        /* \"#utility.yul\":14780:14825   */\n      add\n        /* \"#utility.yul\":14773:14825   */\n      swap4\n      pop\n        /* \"#utility.yul\":14669:14835   */\n      jump(tag_499)\n        /* \"#utility.yul\":14844:15185   */\n    tag_501:\n        /* \"#utility.yul\":14911:14949   */\n      tag_502\n        /* \"#utility.yul\":14943:14948   */\n      dup6\n        /* \"#utility.yul\":14911:14949   */\n      tag_346\n      jump\t// in\n    tag_502:\n        /* \"#utility.yul\":14971:14972   */\n      0x00\n        /* \"#utility.yul\":14985:15139   */\n    tag_503:\n        /* \"#utility.yul\":14999:15005   */\n      dup4\n        /* \"#utility.yul\":14996:14997   */\n      dup2\n        /* \"#utility.yul\":14993:15006   */\n      lt\n        /* \"#utility.yul\":14985:15139   */\n      iszero\n      tag_505\n      jumpi\n        /* \"#utility.yul\":15073:15080   */\n      dup2\n        /* \"#utility.yul\":15067:15081   */\n      sload\n        /* \"#utility.yul\":15063:15064   */\n      dup2\n        /* \"#utility.yul\":15058:15061   */\n      dup10\n        /* \"#utility.yul\":15054:15065   */\n      add\n        /* \"#utility.yul\":15047:15082   */\n      mstore\n        /* \"#utility.yul\":15123:15124   */\n      0x01\n        /* \"#utility.yul\":15114:15121   */\n      dup3\n        /* \"#utility.yul\":15110:15125   */\n      add\n        /* \"#utility.yul\":15099:15125   */\n      swap2\n      pop\n        /* \"#utility.yul\":15021:15025   */\n      0x20\n        /* \"#utility.yul\":15018:15019   */\n      dup2\n        /* \"#utility.yul\":15014:15026   */\n      add\n        /* \"#utility.yul\":15009:15026   */\n      swap1\n      pop\n        /* \"#utility.yul\":14985:15139   */\n      jump(tag_503)\n    tag_505:\n        /* \"#utility.yul\":15168:15174   */\n      dup4\n        /* \"#utility.yul\":15163:15166   */\n      dup9\n        /* \"#utility.yul\":15159:15175   */\n      add\n        /* \"#utility.yul\":15152:15175   */\n      swap6\n      pop\n        /* \"#utility.yul\":14851:15185   */\n      pop\n      pop\n        /* \"#utility.yul\":14636:15185   */\n    tag_499:\n      pop\n        /* \"#utility.yul\":14424:15191   */\n      pop\n      pop\n        /* \"#utility.yul\":14317:15191   */\n      swap3\n      swap2\n      pop\n      pop\n      jump\t// out\n        /* \"#utility.yul\":15197:15587   */\n    tag_348:\n        /* \"#utility.yul\":15303:15306   */\n      0x00\n        /* \"#utility.yul\":15331:15370   */\n      tag_507\n        /* \"#utility.yul\":15364:15369   */\n      dup3\n        /* \"#utility.yul\":15331:15370   */\n      tag_320\n      jump\t// in\n    tag_507:\n        /* \"#utility.yul\":15386:15475   */\n      tag_508\n        /* \"#utility.yul\":15468:15474   */\n      dup2\n        /* \"#utility.yul\":15463:15466   */\n      dup6\n        /* \"#utility.yul\":15386:15475   */\n      tag_345\n      jump\t// in\n    tag_508:\n        /* \"#utility.yul\":15379:15475   */\n      swap4\n      pop\n        /* \"#utility.yul\":15484:15549   */\n      tag_509\n        /* \"#utility.yul\":15542:15548   */\n      dup2\n        /* \"#utility.yul\":15537:15540   */\n      dup6\n        /* \"#utility.yul\":15530:15534   */\n      0x20\n        /* \"#utility.yul\":15523:15528   */\n      dup7\n        /* \"#utility.yul\":15519:15535   */\n      add\n        /* \"#utility.yul\":15484:15549   */\n      tag_322\n      jump\t// in\n    tag_509:\n        /* \"#utility.yul\":15574:15580   */\n      dup1\n        /* \"#utility.yul\":15569:15572   */\n      dup5\n        /* \"#utility.yul\":15565:15581   */\n      add\n        /* \"#utility.yul\":15558:15581   */\n      swap2\n      pop\n        /* \"#utility.yul\":15307:15587   */\n      pop\n        /* \"#utility.yul\":15197:15587   */\n      swap3\n      swap2\n      pop\n      pop\n      jump\t// out\n        /* \"#utility.yul\":15593:16022   */\n    tag_196:\n        /* \"#utility.yul\":15770:15773   */\n      0x00\n        /* \"#utility.yul\":15792:15884   */\n      tag_511\n        /* \"#utility.yul\":15880:15883   */\n      dup3\n        /* \"#utility.yul\":15871:15877   */\n      dup6\n        /* \"#utility.yul\":15792:15884   */\n      tag_347\n      jump\t// in\n    tag_511:\n        /* \"#utility.yul\":15785:15884   */\n      swap2\n      pop\n        /* \"#utility.yul\":15901:15996   */\n      tag_512\n        /* \"#utility.yul\":15992:15995   */\n      dup3\n        /* \"#utility.yul\":15983:15989   */\n      dup5\n        /* \"#utility.yul\":15901:15996   */\n      tag_348\n      jump\t// in\n    tag_512:\n        /* \"#utility.yul\":15894:15996   */\n      swap2\n      pop\n        /* \"#utility.yul\":16013:16016   */\n      dup2\n        /* \"#utility.yul\":16006:16016   */\n      swap1\n      pop\n        /* \"#utility.yul\":15593:16022   */\n      swap4\n      swap3\n      pop\n      pop\n      pop\n      jump\t// out\n        /* \"#utility.yul\":16028:16200   */\n    tag_349:\n        /* \"#utility.yul\":16168:16192   */\n      0x756e737570706f7274207a65726f206164647265737300000000000000000000\n        /* \"#utility.yul\":16164:16165   */\n      0x00\n        /* \"#utility.yul\":16156:16162   */\n      dup3\n        /* \"#utility.yul\":16152:16166   */\n      add\n        /* \"#utility.yul\":16145:16193   */\n      mstore\n        /* \"#utility.yul\":16028:16200   */\n      pop\n      jump\t// out\n        /* \"#utility.yul\":16206:16572   */\n    tag_350:\n        /* \"#utility.yul\":16348:16351   */\n      0x00\n        /* \"#utility.yul\":16369:16436   */\n      tag_515\n        /* \"#utility.yul\":16433:16435   */\n      0x16\n        /* \"#utility.yul\":16428:16431   */\n      dup4\n        /* \"#utility.yul\":16369:16436   */\n      tag_321\n      jump\t// in\n    tag_515:\n        /* \"#utility.yul\":16362:16436   */\n      swap2\n      pop\n        /* \"#utility.yul\":16445:16538   */\n      tag_516\n        /* \"#utility.yul\":16534:16537   */\n      dup3\n        /* \"#utility.yul\":16445:16538   */\n      tag_349\n      jump\t// in\n    tag_516:\n        /* \"#utility.yul\":16563:16565   */\n      0x20\n        /* \"#utility.yul\":16558:16561   */\n      dup3\n        /* \"#utility.yul\":16554:16566   */\n      add\n        /* \"#utility.yul\":16547:16566   */\n      swap1\n      pop\n        /* \"#utility.yul\":16206:16572   */\n      swap2\n      swap1\n      pop\n      jump\t// out\n        /* \"#utility.yul\":16578:16997   */\n    tag_202:\n        /* \"#utility.yul\":16744:16748   */\n      0x00\n        /* \"#utility.yul\":16782:16784   */\n      0x20\n        /* \"#utility.yul\":16771:16780   */\n      dup3\n        /* \"#utility.yul\":16767:16785   */\n      add\n        /* \"#utility.yul\":16759:16785   */\n      swap1\n      pop\n        /* \"#utility.yul\":16831:16840   */\n      dup2\n        /* \"#utility.yul\":16825:16829   */\n      dup2\n        /* \"#utility.yul\":16821:16841   */\n      sub\n        /* \"#utility.yul\":16817:16818   */\n      0x00\n        /* \"#utility.yul\":16806:16815   */\n      dup4\n        /* \"#utility.yul\":16802:16819   */\n      add\n        /* \"#utility.yul\":16795:16842   */\n      mstore\n        /* \"#utility.yul\":16859:16990   */\n      tag_518\n        /* \"#utility.yul\":16985:16989   */\n      dup2\n        /* \"#utility.yul\":16859:16990   */\n      tag_350\n      jump\t// in\n    tag_518:\n        /* \"#utility.yul\":16851:16990   */\n      swap1\n      pop\n        /* \"#utility.yul\":16578:16997   */\n      swap2\n      swap1\n      pop\n      jump\t// out\n        /* \"#utility.yul\":17003:17229   */\n    tag_351:\n        /* \"#utility.yul\":17143:17177   */\n      0x746f6b656e4964206f776e6572206973206e6f7420657175616c2066726f6d20\n        /* \"#utility.yul\":17139:17140   */\n      0x00\n        /* \"#utility.yul\":17131:17137   */\n      dup3\n        /* \"#utility.yul\":17127:17141   */\n      add\n        /* \"#utility.yul\":17120:17178   */\n      mstore\n        /* \"#utility.yul\":17212:17221   */\n      0x6164647265737300000000000000000000000000000000000000000000000000\n        /* \"#utility.yul\":17207:17209   */\n      0x20\n        /* \"#utility.yul\":17199:17205   */\n      dup3\n        /* \"#utility.yul\":17195:17210   */\n      add\n        /* \"#utility.yul\":17188:17222   */\n      mstore\n        /* \"#utility.yul\":17003:17229   */\n      pop\n      jump\t// out\n        /* \"#utility.yul\":17235:17601   */\n    tag_352:\n        /* \"#utility.yul\":17377:17380   */\n      0x00\n        /* \"#utility.yul\":17398:17465   */\n      tag_521\n        /* \"#utility.yul\":17462:17464   */\n      0x27\n        /* \"#utility.yul\":17457:17460   */\n      dup4\n        /* \"#utility.yul\":17398:17465   */\n      tag_321\n      jump\t// in\n    tag_521:\n        /* \"#utility.yul\":17391:17465   */\n      swap2\n      pop\n        /* \"#utility.yul\":17474:17567   */\n      tag_522\n        /* \"#utility.yul\":17563:17566   */\n      dup3\n        /* \"#utility.yul\":17474:17567   */\n      tag_351\n      jump\t// in\n    tag_522:\n        /* \"#utility.yul\":17592:17594   */\n      0x40\n        /* \"#utility.yul\":17587:17590   */\n      dup3\n        /* \"#utility.yul\":17583:17595   */\n      add\n        /* \"#utility.yul\":17576:17595   */\n      swap1\n      pop\n        /* \"#utility.yul\":17235:17601   */\n      swap2\n      swap1\n      pop\n      jump\t// out\n        /* \"#utility.yul\":17607:18026   */\n    tag_205:\n        /* \"#utility.yul\":17773:17777   */\n      0x00\n        /* \"#utility.yul\":17811:17813   */\n      0x20\n        /* \"#utility.yul\":17800:17809   */\n      dup3\n        /* \"#utility.yul\":17796:17814   */\n      add\n        /* \"#utility.yul\":17788:17814   */\n      swap1\n      pop\n        /* \"#utility.yul\":17860:17869   */\n      dup2\n        /* \"#utility.yul\":17854:17858   */\n      dup2\n        /* \"#utility.yul\":17850:17870   */\n      sub\n        /* \"#utility.yul\":17846:17847   */\n      0x00\n        /* \"#utility.yul\":17835:17844   */\n      dup4\n        /* \"#utility.yul\":17831:17848   */\n      add\n        /* \"#utility.yul\":17824:17871   */\n      mstore\n        /* \"#utility.yul\":17888:18019   */\n      tag_524\n        /* \"#utility.yul\":18014:18018   */\n      dup2\n        /* \"#utility.yul\":17888:18019   */\n      tag_352\n      jump\t// in\n    tag_524:\n        /* \"#utility.yul\":17880:18019   */\n      swap1\n      pop\n        /* \"#utility.yul\":17607:18026   */\n      swap2\n      swap1\n      pop\n      jump\t// out\n        /* \"#utility.yul\":18032:18364   */\n    tag_211:\n        /* \"#utility.yul\":18153:18157   */\n      0x00\n        /* \"#utility.yul\":18191:18193   */\n      0x40\n        /* \"#utility.yul\":18180:18189   */\n      dup3\n        /* \"#utility.yul\":18176:18194   */\n      add\n        /* \"#utility.yul\":18168:18194   */\n      swap1\n      pop\n        /* \"#utility.yul\":18204:18275   */\n      tag_526\n        /* \"#utility.yul\":18272:18273   */\n      0x00\n        /* \"#utility.yul\":18261:18270   */\n      dup4\n        /* \"#utility.yul\":18257:18274   */\n      add\n        /* \"#utility.yul\":18248:18254   */\n      dup6\n        /* \"#utility.yul\":18204:18275   */\n      tag_329\n      jump\t// in\n    tag_526:\n        /* \"#utility.yul\":18285:18357   */\n      tag_527\n        /* \"#utility.yul\":18353:18355   */\n      0x20\n        /* \"#utility.yul\":18342:18351   */\n      dup4\n        /* \"#utility.yul\":18338:18356   */\n      add\n        /* \"#utility.yul\":18329:18335   */\n      dup5\n        /* \"#utility.yul\":18285:18357   */\n      tag_325\n      jump\t// in\n    tag_527:\n        /* \"#utility.yul\":18032:18364   */\n      swap4\n      swap3\n      pop\n      pop\n      pop\n      jump\t// out\n        /* \"#utility.yul\":18370:18550   */\n    tag_215:\n        /* \"#utility.yul\":18418:18495   */\n      0x4e487b7100000000000000000000000000000000000000000000000000000000\n        /* \"#utility.yul\":18415:18416   */\n      0x00\n        /* \"#utility.yul\":18408:18496   */\n      mstore\n        /* \"#utility.yul\":18515:18519   */\n      0x01\n        /* \"#utility.yul\":18512:18513   */\n      0x04\n        /* \"#utility.yul\":18505:18520   */\n      mstore\n        /* \"#utility.yul\":18539:18543   */\n      0x24\n        /* \"#utility.yul\":18536:18537   */\n      0x00\n        /* \"#utility.yul\":18529:18544   */\n      revert\n        /* \"#utility.yul\":18556:18736   */\n    tag_353:\n        /* \"#utility.yul\":18604:18681   */\n      0x4e487b7100000000000000000000000000000000000000000000000000000000\n        /* \"#utility.yul\":18601:18602   */\n      0x00\n        /* \"#utility.yul\":18594:18682   */\n      mstore\n        /* \"#utility.yul\":18701:18705   */\n      0x11\n        /* \"#utility.yul\":18698:18699   */\n      0x04\n        /* \"#utility.yul\":18691:18706   */\n      mstore\n        /* \"#utility.yul\":18725:18729   */\n      0x24\n        /* \"#utility.yul\":18722:18723   */\n      0x00\n        /* \"#utility.yul\":18715:18730   */\n      revert\n        /* \"#utility.yul\":18742:18936   */\n    tag_217:\n        /* \"#utility.yul\":18782:18786   */\n      0x00\n        /* \"#utility.yul\":18802:18822   */\n      tag_531\n        /* \"#utility.yul\":18820:18821   */\n      dup3\n        /* \"#utility.yul\":18802:18822   */\n      tag_326\n      jump\t// in\n    tag_531:\n        /* \"#utility.yul\":18797:18822   */\n      swap2\n      pop\n        /* \"#utility.yul\":18836:18856   */\n      tag_532\n        /* \"#utility.yul\":18854:18855   */\n      dup4\n        /* \"#utility.yul\":18836:18856   */\n      tag_326\n      jump\t// in\n    tag_532:\n        /* \"#utility.yul\":18831:18856   */\n      swap3\n      pop\n        /* \"#utility.yul\":18880:18881   */\n      dup3\n        /* \"#utility.yul\":18877:18878   */\n      dup3\n        /* \"#utility.yul\":18873:18882   */\n      sub\n        /* \"#utility.yul\":18865:18882   */\n      swap1\n      pop\n        /* \"#utility.yul\":18904:18905   */\n      dup2\n        /* \"#utility.yul\":18898:18902   */\n      dup2\n        /* \"#utility.yul\":18895:18906   */\n      gt\n        /* \"#utility.yul\":18892:18929   */\n      iszero\n      tag_533\n      jumpi\n        /* \"#utility.yul\":18909:18927   */\n      tag_534\n      tag_353\n      jump\t// in\n    tag_534:\n        /* \"#utility.yul\":18892:18929   */\n    tag_533:\n        /* \"#utility.yul\":18742:18936   */\n      swap3\n      swap2\n      pop\n      pop\n      jump\t// out\n        /* \"#utility.yul\":18942:19122   */\n    tag_233:\n        /* \"#utility.yul\":18990:19067   */\n      0x4e487b7100000000000000000000000000000000000000000000000000000000\n        /* \"#utility.yul\":18987:18988   */\n      0x00\n        /* \"#utility.yul\":18980:19068   */\n      mstore\n        /* \"#utility.yul\":19087:19091   */\n      0x31\n        /* \"#utility.yul\":19084:19085   */\n      0x04\n        /* \"#utility.yul\":19077:19092   */\n      mstore\n        /* \"#utility.yul\":19111:19115   */\n      0x24\n        /* \"#utility.yul\":19108:19109   */\n      0x00\n        /* \"#utility.yul\":19101:19116   */\n      revert\n        /* \"#utility.yul\":19128:19226   */\n    tag_354:\n        /* \"#utility.yul\":19179:19185   */\n      0x00\n        /* \"#utility.yul\":19213:19218   */\n      dup2\n        /* \"#utility.yul\":19207:19219   */\n      mload\n        /* \"#utility.yul\":19197:19219   */\n      swap1\n      pop\n        /* \"#utility.yul\":19128:19226   */\n      swap2\n      swap1\n      pop\n      jump\t// out\n        /* \"#utility.yul\":19232:19400   */\n    tag_355:\n        /* \"#utility.yul\":19315:19326   */\n      0x00\n        /* \"#utility.yul\":19349:19355   */\n      dup3\n        /* \"#utility.yul\":19344:19347   */\n      dup3\n        /* \"#utility.yul\":19337:19356   */\n      mstore\n        /* \"#utility.yul\":19389:19393   */\n      0x20\n        /* \"#utility.yul\":19384:19387   */\n      dup3\n        /* \"#utility.yul\":19380:19394   */\n      add\n        /* \"#utility.yul\":19365:19394   */\n      swap1\n      pop\n        /* \"#utility.yul\":19232:19400   */\n      swap3\n      swap2\n      pop\n      pop\n      jump\t// out\n        /* \"#utility.yul\":19406:19779   */\n    tag_356:\n        /* \"#utility.yul\":19492:19495   */\n      0x00\n        /* \"#utility.yul\":19520:19558   */\n      tag_539\n        /* \"#utility.yul\":19552:19557   */\n      dup3\n        /* \"#utility.yul\":19520:19558   */\n      tag_354\n      jump\t// in\n    tag_539:\n        /* \"#utility.yul\":19574:19644   */\n      tag_540\n        /* \"#utility.yul\":19637:19643   */\n      dup2\n        /* \"#utility.yul\":19632:19635   */\n      dup6\n        /* \"#utility.yul\":19574:19644   */\n      tag_355\n      jump\t// in\n    tag_540:\n        /* \"#utility.yul\":19567:19644   */\n      swap4\n      pop\n        /* \"#utility.yul\":19653:19718   */\n      tag_541\n        /* \"#utility.yul\":19711:19717   */\n      dup2\n        /* \"#utility.yul\":19706:19709   */\n      dup6\n        /* \"#utility.yul\":19699:19703   */\n      0x20\n        /* \"#utility.yul\":19692:19697   */\n      dup7\n        /* \"#utility.yul\":19688:19704   */\n      add\n        /* \"#utility.yul\":19653:19718   */\n      tag_322\n      jump\t// in\n    tag_541:\n        /* \"#utility.yul\":19743:19772   */\n      tag_542\n        /* \"#utility.yul\":19765:19771   */\n      dup2\n        /* \"#utility.yul\":19743:19772   */\n      tag_323\n      jump\t// in\n    tag_542:\n        /* \"#utility.yul\":19738:19741   */\n      dup5\n        /* \"#utility.yul\":19734:19773   */\n      add\n        /* \"#utility.yul\":19727:19773   */\n      swap2\n      pop\n        /* \"#utility.yul\":19496:19779   */\n      pop\n        /* \"#utility.yul\":19406:19779   */\n      swap3\n      swap2\n      pop\n      pop\n      jump\t// out\n        /* \"#utility.yul\":19785:20425   */\n    tag_264:\n        /* \"#utility.yul\":19980:19984   */\n      0x00\n        /* \"#utility.yul\":20018:20021   */\n      0x80\n        /* \"#utility.yul\":20007:20016   */\n      dup3\n        /* \"#utility.yul\":20003:20022   */\n      add\n        /* \"#utility.yul\":19995:20022   */\n      swap1\n      pop\n        /* \"#utility.yul\":20032:20103   */\n      tag_544\n        /* \"#utility.yul\":20100:20101   */\n      0x00\n        /* \"#utility.yul\":20089:20098   */\n      dup4\n        /* \"#utility.yul\":20085:20102   */\n      add\n        /* \"#utility.yul\":20076:20082   */\n      dup8\n        /* \"#utility.yul\":20032:20103   */\n      tag_325\n      jump\t// in\n    tag_544:\n        /* \"#utility.yul\":20113:20185   */\n      tag_545\n        /* \"#utility.yul\":20181:20183   */\n      0x20\n        /* \"#utility.yul\":20170:20179   */\n      dup4\n        /* \"#utility.yul\":20166:20184   */\n      add\n        /* \"#utility.yul\":20157:20163   */\n      dup7\n        /* \"#utility.yul\":20113:20185   */\n      tag_325\n      jump\t// in\n    tag_545:\n        /* \"#utility.yul\":20195:20267   */\n      tag_546\n        /* \"#utility.yul\":20263:20265   */\n      0x40\n        /* \"#utility.yul\":20252:20261   */\n      dup4\n        /* \"#utility.yul\":20248:20266   */\n      add\n        /* \"#utility.yul\":20239:20245   */\n      dup6\n        /* \"#utility.yul\":20195:20267   */\n      tag_329\n      jump\t// in\n    tag_546:\n        /* \"#utility.yul\":20314:20323   */\n      dup2\n        /* \"#utility.yul\":20308:20312   */\n      dup2\n        /* \"#utility.yul\":20304:20324   */\n      sub\n        /* \"#utility.yul\":20299:20301   */\n      0x60\n        /* \"#utility.yul\":20288:20297   */\n      dup4\n        /* \"#utility.yul\":20284:20302   */\n      add\n        /* \"#utility.yul\":20277:20325   */\n      mstore\n        /* \"#utility.yul\":20342:20418   */\n      tag_547\n        /* \"#utility.yul\":20413:20417   */\n      dup2\n        /* \"#utility.yul\":20404:20410   */\n      dup5\n        /* \"#utility.yul\":20342:20418   */\n      tag_356\n      jump\t// in\n    tag_547:\n        /* \"#utility.yul\":20334:20418   */\n      swap1\n      pop\n        /* \"#utility.yul\":19785:20425   */\n      swap6\n      swap5\n      pop\n      pop\n      pop\n      pop\n      pop\n      jump\t// out\n        /* \"#utility.yul\":20431:20572   */\n    tag_357:\n        /* \"#utility.yul\":20487:20492   */\n      0x00\n        /* \"#utility.yul\":20518:20524   */\n      dup2\n        /* \"#utility.yul\":20512:20525   */\n      mload\n        /* \"#utility.yul\":20503:20525   */\n      swap1\n      pop\n        /* \"#utility.yul\":20534:20566   */\n      tag_549\n        /* \"#utility.yul\":20560:20565   */\n      dup2\n        /* \"#utility.yul\":20534:20566   */\n      tag_312\n      jump\t// in\n    tag_549:\n        /* \"#utility.yul\":20431:20572   */\n      swap3\n      swap2\n      pop\n      pop\n      jump\t// out\n        /* \"#utility.yul\":20578:20927   */\n    tag_268:\n        /* \"#utility.yul\":20647:20653   */\n      0x00\n        /* \"#utility.yul\":20696:20698   */\n      0x20\n        /* \"#utility.yul\":20684:20693   */\n      dup3\n        /* \"#utility.yul\":20675:20682   */\n      dup5\n        /* \"#utility.yul\":20671:20694   */\n      sub\n        /* \"#utility.yul\":20667:20699   */\n      slt\n        /* \"#utility.yul\":20664:20783   */\n      iszero\n      tag_551\n      jumpi\n        /* \"#utility.yul\":20702:20781   */\n      tag_552\n      tag_309\n      jump\t// in\n    tag_552:\n        /* \"#utility.yul\":20664:20783   */\n    tag_551:\n        /* \"#utility.yul\":20822:20823   */\n      0x00\n        /* \"#utility.yul\":20847:20910   */\n      tag_553\n        /* \"#utility.yul\":20902:20909   */\n      dup5\n        /* \"#utility.yul\":20893:20899   */\n      dup3\n        /* \"#utility.yul\":20882:20891   */\n      dup6\n        /* \"#utility.yul\":20878:20900   */\n      add\n        /* \"#utility.yul\":20847:20910   */\n      tag_357\n      jump\t// in\n    tag_553:\n        /* \"#utility.yul\":20837:20910   */\n      swap2\n      pop\n        /* \"#utility.yul\":20793:20920   */\n      pop\n        /* \"#utility.yul\":20578:20927   */\n      swap3\n      swap2\n      pop\n      pop\n      jump\t// out\n        /* \"#utility.yul\":20933:21113   */\n    tag_279:\n        /* \"#utility.yul\":20981:21058   */\n      0x4e487b7100000000000000000000000000000000000000000000000000000000\n        /* \"#utility.yul\":20978:20979   */\n      0x00\n        /* \"#utility.yul\":20971:21059   */\n      mstore\n        /* \"#utility.yul\":21078:21082   */\n      0x12\n        /* \"#utility.yul\":21075:21076   */\n      0x04\n        /* \"#utility.yul\":21068:21083   */\n      mstore\n        /* \"#utility.yul\":21102:21106   */\n      0x24\n        /* \"#utility.yul\":21099:21100   */\n      0x00\n        /* \"#utility.yul\":21092:21107   */\n      revert\n\n    auxdata: 0xa26469706673582212208f092f65e4405897dff5d9af838092ef833bd9b5b227aa05fdb2949bfd370a7e64736f6c634300081a0033\n}\n",
				"bytecode": {
					"linkReferences": {},
					"object": "608060405234801561000f575f80fd5b50604051612cb8380380612cb8833981810160405281019061003191906101f5565b825f908161003f91906104a6565b50816001908161004f91906104a6565b50806002908161005f91906104a6565b503360035f6101000a81548173ffffffffffffffffffffffffffffffffffffffff021916908373ffffffffffffffffffffffffffffffffffffffff160217905550505050610575565b5f604051905090565b5f80fd5b5f80fd5b5f80fd5b5f80fd5b5f601f19601f8301169050919050565b7f4e487b71000000000000000000000000000000000000000000000000000000005f52604160045260245ffd5b610107826100c1565b810181811067ffffffffffffffff82111715610126576101256100d1565b5b80604052505050565b5f6101386100a8565b905061014482826100fe565b919050565b5f67ffffffffffffffff821115610163576101626100d1565b5b61016c826100c1565b9050602081019050919050565b8281835e5f83830152505050565b5f61019961019484610149565b61012f565b9050828152602081018484840111156101b5576101b46100bd565b5b6101c0848285610179565b509392505050565b5f82601f8301126101dc576101db6100b9565b5b81516101ec848260208601610187565b91505092915050565b5f805f6060848603121561020c5761020b6100b1565b5b5f84015167ffffffffffffffff811115610229576102286100b5565b5b610235868287016101c8565b935050602084015167ffffffffffffffff811115610256576102556100b5565b5b610262868287016101c8565b925050604084015167ffffffffffffffff811115610283576102826100b5565b5b61028f868287016101c8565b9150509250925092565b5f81519050919050565b7f4e487b71000000000000000000000000000000000000000000000000000000005f52602260045260245ffd5b5f60028204905060018216806102e757607f821691505b6020821081036102fa576102f96102a3565b5b50919050565b5f819050815f5260205f209050919050565b5f6020601f8301049050919050565b5f82821b905092915050565b5f6008830261035c7fffffffffffffffffffffffffffffffffffffffffffffffffffffffffffffffff82610321565b6103668683610321565b95508019841693508086168417925050509392505050565b5f819050919050565b5f819050919050565b5f6103aa6103a56103a08461037e565b610387565b61037e565b9050919050565b5f819050919050565b6103c383610390565b6103d76103cf826103b1565b84845461032d565b825550505050565b5f90565b6103eb6103df565b6103f68184846103ba565b505050565b5b818110156104195761040e5f826103e3565b6001810190506103fc565b5050565b601f82111561045e5761042f81610300565b61043884610312565b81016020851015610447578190505b61045b61045385610312565b8301826103fb565b50505b505050565b5f82821c905092915050565b5f61047e5f1984600802610463565b1980831691505092915050565b5f610496838361046f565b9150826002028217905092915050565b6104af82610299565b67ffffffffffffffff8111156104c8576104c76100d1565b5b6104d282546102d0565b6104dd82828561041d565b5f60209050601f83116001811461050e575f84156104fc578287015190505b610506858261048b565b86555061056d565b601f19841661051c86610300565b5f5b828110156105435784890151825560018201915060208501945060208101905061051e565b86831015610560578489015161055c601f89168261046f565b8355505b6001600288020188555050505b505050505050565b612736806105825f395ff3fe608060405234801561000f575f80fd5b506004361061011f575f3560e01c80632f745c59116100ab57806395d89b411161006f57806395d89b411461033f578063a22cb4651461035d578063b88d4fde14610379578063c87b56dd14610395578063e985e9c5146103c55761011f565b80632f745c591461026357806342842e0e146102935780634f6ccce7146102af5780636352211e146102df57806370a082311461030f5761011f565b8063081812fc116100f2578063081812fc146101bf578063095ea7b3146101ef5780631249c58b1461020b57806318160ddd1461022957806323b872dd146102475761011f565b806301ffc9a714610123578063049cbc211461015357806306fdde031461018357806307546172146101a1575b5f80fd5b61013d60048036038101906101389190611ca1565b6103f5565b60405161014a9190611ce6565b60405180910390f35b61016d60048036038101906101689190611d59565b610596565b60405161017a9190611ce6565b60405180910390f35b61018b6105a1565b6040516101989190611df4565b60405180910390f35b6101a9610630565b6040516101b69190611e23565b60405180910390f35b6101d960048036038101906101d49190611e6f565b610655565b6040516101e69190611e23565b60405180910390f35b61020960048036038101906102049190611e9a565b61068e565b005b610213610876565b6040516102209190611ee7565b60405180910390f35b610231610a8c565b60405161023e9190611ee7565b60405180910390f35b610261600480360381019061025c9190611f00565b610a98565b005b61027d60048036038101906102789190611e9a565b610aa8565b60405161028a9190611ee7565b60405180910390f35b6102ad60048036038101906102a89190611f00565b610b54565b005b6102c960048036038101906102c49190611e6f565b610bbd565b6040516102d69190611ee7565b60405180910390f35b6102f960048036038101906102f49190611e6f565b610c29565b6040516103069190611e23565b60405180910390f35b61032960048036038101906103249190611d59565b610c62565b6040516103369190611ee7565b60405180910390f35b610347610cab565b6040516103549190611df4565b60405180910390f35b61037760048036038101906103729190611f7a565b610d3b565b005b610393600480360381019061038e9190612019565b611139565b005b6103af60048036038101906103aa9190611e6f565b6111d9565b6040516103bc9190611df4565b60405180910390f35b6103df60048036038101906103da919061209d565b61120d565b6040516103ec9190611ce6565b60405180910390f35b5f7f01ffc9a7000000000000000000000000000000000000000000000000000000007bffffffffffffffffffffffffffffffffffffffffffffffffffffffff1916827bffffffffffffffffffffffffffffffffffffffffffffffffffffffff191614806104bf57507f5b5e139f000000000000000000000000000000000000000000000000000000007bffffffffffffffffffffffffffffffffffffffffffffffffffffffff1916827bffffffffffffffffffffffffffffffffffffffffffffffffffffffff1916145b8061052757507f80ac58cd000000000000000000000000000000000000000000000000000000007bffffffffffffffffffffffffffffffffffffffffffffffffffffffff1916827bffffffffffffffffffffffffffffffffffffffffffffffffffffffff1916145b8061058f57507f780e9d63000000000000000000000000000000000000000000000000000000007bffffffffffffffffffffffffffffffffffffffffffffffffffffffff1916827bffffffffffffffffffffffffffffffffffffffffffffffffffffffff1916145b9050919050565b5f813b159050919050565b60605f80546105af90612108565b80601f01602080910402602001604051908101604052809291908181526020018280546105db90612108565b80156106265780601f106105fd57610100808354040283529160200191610626565b820191905f5260205f20905b81548152906001019060200180831161060957829003601f168201915b5050505050905090565b60035f9054906101000a900473ffffffffffffffffffffffffffffffffffffffff1681565b5f60065f8381526020019081526020015f205f9054906101000a900473ffffffffffffffffffffffffffffffffffffffff169050919050565b8173ffffffffffffffffffffffffffffffffffffffff1660065f8381526020019081526020015f205f9054906101000a900473ffffffffffffffffffffffffffffffffffffffff1673ffffffffffffffffffffffffffffffffffffffff160361072c576040517f08c379a000000000000000000000000000000000000000000000000000000000815260040161072390612182565b60405180910390fd5b8160065f8381526020019081526020015f205f6101000a81548173ffffffffffffffffffffffffffffffffffffffff021916908373ffffffffffffffffffffffffffffffffffffffff16021790555060085f3373ffffffffffffffffffffffffffffffffffffffff1673ffffffffffffffffffffffffffffffffffffffff1681526020019081526020015f205f8373ffffffffffffffffffffffffffffffffffffffff1673ffffffffffffffffffffffffffffffffffffffff1681526020019081526020015f2081908060018154018082558091505060019003905f5260205f20015f9091909190915055808273ffffffffffffffffffffffffffffffffffffffff163373ffffffffffffffffffffffffffffffffffffffff167f8c5be1e5ebec7d5bd14f71427d1e84f3dd0314c0f7b2291e5b200ac8c7c3b92560405160405180910390a45050565b5f60035f9054906101000a900473ffffffffffffffffffffffffffffffffffffffff1673ffffffffffffffffffffffffffffffffffffffff163373ffffffffffffffffffffffffffffffffffffffff161461090857336040517f4c1cda0d0000000000000000000000000000000000000000000000000000000081526004016108ff9190611e23565b60405180910390fd5b5f60048054905090505f73ffffffffffffffffffffffffffffffffffffffff1660055f8381526020019081526020015f205f9054906101000a900473ffffffffffffffffffffffffffffffffffffffff1673ffffffffffffffffffffffffffffffffffffffff16146109af576040517f08c379a00000000000000000000000000000000000000000000000000000000081526004016109a6906121ea565b60405180910390fd5b3360055f8381526020019081526020015f205f6101000a81548173ffffffffffffffffffffffffffffffffffffffff021916908373ffffffffffffffffffffffffffffffffffffffff16021790555060075f3373ffffffffffffffffffffffffffffffffffffffff1673ffffffffffffffffffffffffffffffffffffffff1681526020019081526020015f2081908060018154018082558091505060019003905f5260205f20015f9091909190915055600481908060018154018082558091505060019003905f5260205f20015f90919091909150558091505090565b5f600480549050905090565b610aa38383836112d4565b505050565b5f8060075f8573ffffffffffffffffffffffffffffffffffffffff1673ffffffffffffffffffffffffffffffffffffffff1681526020019081526020015f20905080805490508310610b2f576040517f08c379a0000000000000000000000000000000000000000000000000000000008152600401610b2690612252565b60405180910390fd5b808381548110610b4257610b41612270565b5b905f5260205f20015491505092915050565b610b6e83838360405180602001604052805f8152506118d5565b610bad576040517f08c379a0000000000000000000000000000000000000000000000000000000008152600401610ba4906122e7565b60405180910390fd5b610bb88383836112d4565b505050565b5f6004805490508210610c05576040517f08c379a0000000000000000000000000000000000000000000000000000000008152600401610bfc90612252565b60405180910390fd5b60048281548110610c1957610c18612270565b5b905f5260205f2001549050919050565b5f60055f8381526020019081526020015f205f9054906101000a900473ffffffffffffffffffffffffffffffffffffffff169050919050565b5f60075f8373ffffffffffffffffffffffffffffffffffffffff1673ffffffffffffffffffffffffffffffffffffffff1681526020019081526020015f20805490509050919050565b606060018054610cba90612108565b80601f0160208091040260200160405190810160405280929190818152602001828054610ce690612108565b8015610d315780601f10610d0857610100808354040283529160200191610d31565b820191905f5260205f20905b815481529060010190602001808311610d1457829003601f168201915b5050505050905090565b5f73ffffffffffffffffffffffffffffffffffffffff168273ffffffffffffffffffffffffffffffffffffffff1603610d72575f80fd5b5f60075f3373ffffffffffffffffffffffffffffffffffffffff1673ffffffffffffffffffffffffffffffffffffffff1681526020019081526020015f20805480602002602001604051908101604052809291908181526020018280548015610df857602002820191905f5260205f20905b815481526020019060010190808311610de4575b505050505090505f815190505f5b81811015610edb578315610e82578460065f858481518110610e2b57610e2a612270565b5b602002602001015181526020019081526020015f205f6101000a81548173ffffffffffffffffffffffffffffffffffffffff021916908373ffffffffffffffffffffffffffffffffffffffff160217905550610ed0565b60065f848381518110610e9857610e97612270565b5b602002602001015181526020019081526020015f205f6101000a81549073ffffffffffffffffffffffffffffffffffffffff02191690555b806001019050610e06565b508215610f74578160085f3373ffffffffffffffffffffffffffffffffffffffff1673ffffffffffffffffffffffffffffffffffffffff1681526020019081526020015f205f8673ffffffffffffffffffffffffffffffffffffffff1673ffffffffffffffffffffffffffffffffffffffff1681526020019081526020015f209080519060200190610f6e929190611bde565b506110ce565b5f60085f3373ffffffffffffffffffffffffffffffffffffffff1673ffffffffffffffffffffffffffffffffffffffff1681526020019081526020015f205f8673ffffffffffffffffffffffffffffffffffffffff1673ffffffffffffffffffffffffffffffffffffffff1681526020019081526020015f208054905011156110cd575f67ffffffffffffffff81111561101157611010612305565b5b60405190808252806020026020018201604052801561103f5781602001602082028036833780820191505090505b5060085f3373ffffffffffffffffffffffffffffffffffffffff1673ffffffffffffffffffffffffffffffffffffffff1681526020019081526020015f205f8673ffffffffffffffffffffffffffffffffffffffff1673ffffffffffffffffffffffffffffffffffffffff1681526020019081526020015f2090805190602001906110cb929190611bde565b505b5b8373ffffffffffffffffffffffffffffffffffffffff163373ffffffffffffffffffffffffffffffffffffffff167f17307eab39ab6107e8899845ad3d59bd9653f200f220920489ca2b5937696c318560405161112b9190611ce6565b60405180910390a350505050565b61118885858585858080601f0160208091040260200160405190810160405280939291908181526020018383808284375f81840152601f19601f820116905080830192505050505050506118d5565b6111c7576040517f08c379a00000000000000000000000000000000000000000000000000000000081526004016111be906122e7565b60405180910390fd5b6111d28585856112d4565b5050505050565b606060026111e6836119c3565b6040516020016111f79291906123fe565b6040516020818303038152906040529050919050565b5f60075f8473ffffffffffffffffffffffffffffffffffffffff1673ffffffffffffffffffffffffffffffffffffffff1681526020019081526020015f208054905060085f8573ffffffffffffffffffffffffffffffffffffffff1673ffffffffffffffffffffffffffffffffffffffff1681526020019081526020015f205f8473ffffffffffffffffffffffffffffffffffffffff1673ffffffffffffffffffffffffffffffffffffffff1681526020019081526020015f208054905014905092915050565b5f73ffffffffffffffffffffffffffffffffffffffff168373ffffffffffffffffffffffffffffffffffffffff161415801561133c57505f73ffffffffffffffffffffffffffffffffffffffff168273ffffffffffffffffffffffffffffffffffffffff1614155b61137b576040517f08c379a00000000000000000000000000000000000000000000000000000000081526004016113729061246b565b60405180910390fd5b8273ffffffffffffffffffffffffffffffffffffffff1660055f8381526020019081526020015f205f9054906101000a900473ffffffffffffffffffffffffffffffffffffffff1673ffffffffffffffffffffffffffffffffffffffff1614611419576040517f08c379a0000000000000000000000000000000000000000000000000000000008152600401611410906124f9565b60405180910390fd5b5f803373ffffffffffffffffffffffffffffffffffffffff168573ffffffffffffffffffffffffffffffffffffffff160361145757600191506114b9565b3373ffffffffffffffffffffffffffffffffffffffff1660065f8581526020019081526020015f205f9054906101000a900473ffffffffffffffffffffffffffffffffffffffff1673ffffffffffffffffffffffffffffffffffffffff161490505b811580156114c5575080155b156115095782856040517fa2e7fded000000000000000000000000000000000000000000000000000000008152600401611500929190612517565b60405180910390fd5b8360055f8581526020019081526020015f205f6101000a81548173ffffffffffffffffffffffffffffffffffffffff021916908373ffffffffffffffffffffffffffffffffffffffff16021790555060065f8481526020019081526020015f205f6101000a81549073ffffffffffffffffffffffffffffffffffffffff021916905560075f8573ffffffffffffffffffffffffffffffffffffffff1673ffffffffffffffffffffffffffffffffffffffff1681526020019081526020015f2083908060018154018082558091505060019003905f5260205f20015f90919091909150555f60075f8773ffffffffffffffffffffffffffffffffffffffff1673ffffffffffffffffffffffffffffffffffffffff1681526020019081526020015f2090505f8180549050116116405761163f61253e565b5b5f600182805490506116529190612598565b90505f5b818110156116cb5782818154811061167157611670612270565b5b905f5260205f20015486036116c05782828154811061169357611692612270565b5b905f5260205f2001548382815481106116af576116ae612270565b5b905f5260205f2001819055506116cb565b806001019050611656565b50818054806116dd576116dc6125cb565b5b600190038181905f5260205f20015f90559055848673ffffffffffffffffffffffffffffffffffffffff168873ffffffffffffffffffffffffffffffffffffffff167fddf252ad1be2c89b69c2b068fc378daa952ba7f163c4a11628f55a4df523b3ef60405160405180910390a460085f8873ffffffffffffffffffffffffffffffffffffffff1673ffffffffffffffffffffffffffffffffffffffff1681526020019081526020015f205f8773ffffffffffffffffffffffffffffffffffffffff1673ffffffffffffffffffffffffffffffffffffffff1681526020019081526020015f2091505f8280549050036117d957505050506118d0565b600182805490506117ea9190612598565b90505f5b818110156118835782818154811061180957611808612270565b5b905f5260205f20015486036118785782828154811061182b5761182a612270565b5b905f5260205f20015483828154811061184757611846612270565b5b905f5260205f2001819055508583838154811061186757611866612270565b5b905f5260205f200181905550611883565b8060010190506117ee565b5081818154811061189757611896612270565b5b905f5260205f20015485036118cb57818054806118b7576118b66125cb565b5b600190038181905f5260205f20015f905590555b505050505b505050565b5f6118df84610596565b156118ed57600190506119bb565b5f8473ffffffffffffffffffffffffffffffffffffffff1663150b7a02868887876040518563ffffffff1660e01b815260040161192d949392919061264a565b6020604051808303815f875af1158015611949573d5f803e3d5ffd5b505050506040513d601f19601f8201168201806040525081019061196d91906126a8565b905063150b7a0260e01b7bffffffffffffffffffffffffffffffffffffffffffffffffffffffff1916817bffffffffffffffffffffffffffffffffffffffffffffffffffffffff1916149150505b949350505050565b60605f60016119d184611a8d565b0190505f8167ffffffffffffffff8111156119ef576119ee612305565b5b6040519080825280601f01601f191660200182016040528015611a215781602001600182028036833780820191505090505b5090505f82602001820190505b600115611a82578080600190039150507f3031323334353637383961626364656600000000000000000000000000000000600a86061a8153600a8581611a7757611a766126d3565b5b0494505f8503611a2e575b819350505050919050565b5f805f90507a184f03e93ff9f4daa797ed6e38ed64bf6a1f0100000000000000008310611ae9577a184f03e93ff9f4daa797ed6e38ed64bf6a1f0100000000000000008381611adf57611ade6126d3565b5b0492506040810190505b6d04ee2d6d415b85acef81000000008310611b26576d04ee2d6d415b85acef81000000008381611b1c57611b1b6126d3565b5b0492506020810190505b662386f26fc100008310611b5557662386f26fc100008381611b4b57611b4a6126d3565b5b0492506010810190505b6305f5e1008310611b7e576305f5e1008381611b7457611b736126d3565b5b0492506008810190505b6127108310611ba3576127108381611b9957611b986126d3565b5b0492506004810190505b60648310611bc65760648381611bbc57611bbb6126d3565b5b0492506002810190505b600a8310611bd5576001810190505b80915050919050565b828054828255905f5260205f20908101928215611c18579160200282015b82811115611c17578251825591602001919060010190611bfc565b5b509050611c259190611c29565b5090565b5b80821115611c40575f815f905550600101611c2a565b5090565b5f80fd5b5f80fd5b5f7fffffffff0000000000000000000000000000000000000000000000000000000082169050919050565b611c8081611c4c565b8114611c8a575f80fd5b50565b5f81359050611c9b81611c77565b92915050565b5f60208284031215611cb657611cb5611c44565b5b5f611cc384828501611c8d565b91505092915050565b5f8115159050919050565b611ce081611ccc565b82525050565b5f602082019050611cf95f830184611cd7565b92915050565b5f73ffffffffffffffffffffffffffffffffffffffff82169050919050565b5f611d2882611cff565b9050919050565b611d3881611d1e565b8114611d42575f80fd5b50565b5f81359050611d5381611d2f565b92915050565b5f60208284031215611d6e57611d6d611c44565b5b5f611d7b84828501611d45565b91505092915050565b5f81519050919050565b5f82825260208201905092915050565b8281835e5f83830152505050565b5f601f19601f8301169050919050565b5f611dc682611d84565b611dd08185611d8e565b9350611de0818560208601611d9e565b611de981611dac565b840191505092915050565b5f6020820190508181035f830152611e0c8184611dbc565b905092915050565b611e1d81611d1e565b82525050565b5f602082019050611e365f830184611e14565b92915050565b5f819050919050565b611e4e81611e3c565b8114611e58575f80fd5b50565b5f81359050611e6981611e45565b92915050565b5f60208284031215611e8457611e83611c44565b5b5f611e9184828501611e5b565b91505092915050565b5f8060408385031215611eb057611eaf611c44565b5b5f611ebd85828601611d45565b9250506020611ece85828601611e5b565b9150509250929050565b611ee181611e3c565b82525050565b5f602082019050611efa5f830184611ed8565b92915050565b5f805f60608486031215611f1757611f16611c44565b5b5f611f2486828701611d45565b9350506020611f3586828701611d45565b9250506040611f4686828701611e5b565b9150509250925092565b611f5981611ccc565b8114611f63575f80fd5b50565b5f81359050611f7481611f50565b92915050565b5f8060408385031215611f9057611f8f611c44565b5b5f611f9d85828601611d45565b9250506020611fae85828601611f66565b9150509250929050565b5f80fd5b5f80fd5b5f80fd5b5f8083601f840112611fd957611fd8611fb8565b5b8235905067ffffffffffffffff811115611ff657611ff5611fbc565b5b60208301915083600182028301111561201257612011611fc0565b5b9250929050565b5f805f805f6080868803121561203257612031611c44565b5b5f61203f88828901611d45565b955050602061205088828901611d45565b945050604061206188828901611e5b565b935050606086013567ffffffffffffffff81111561208257612081611c48565b5b61208e88828901611fc4565b92509250509295509295909350565b5f80604083850312156120b3576120b2611c44565b5b5f6120c085828601611d45565b92505060206120d185828601611d45565b9150509250929050565b7f4e487b71000000000000000000000000000000000000000000000000000000005f52602260045260245ffd5b5f600282049050600182168061211f57607f821691505b602082108103612132576121316120db565b5b50919050565b7f746f6b656e20697320417070726f7665642079657400000000000000000000005f82015250565b5f61216c601583611d8e565b915061217782612138565b602082019050919050565b5f6020820190508181035f83015261219981612160565b9050919050565b7f746f6b656e4964206578697374730000000000000000000000000000000000005f82015250565b5f6121d4600e83611d8e565b91506121df826121a0565b602082019050919050565b5f6020820190508181035f830152612201816121c8565b9050919050565b7f696e64657820746f6f206c6172676500000000000000000000000000000000005f82015250565b5f61223c600f83611d8e565b915061224782612208565b602082019050919050565b5f6020820190508181035f83015261226981612230565b9050919050565b7f4e487b71000000000000000000000000000000000000000000000000000000005f52603260045260245ffd5b7f5f636865636b4552433732315265636569766572206661696c656400000000005f82015250565b5f6122d1601b83611d8e565b91506122dc8261229d565b602082019050919050565b5f6020820190508181035f8301526122fe816122c5565b9050919050565b7f4e487b71000000000000000000000000000000000000000000000000000000005f52604160045260245ffd5b5f81905092915050565b5f819050815f5260205f209050919050565b5f815461235a81612108565b6123648186612332565b9450600182165f811461237e5760018114612393576123c5565b60ff19831686528115158202860193506123c5565b61239c8561233c565b5f5b838110156123bd5781548189015260018201915060208101905061239e565b838801955050505b50505092915050565b5f6123d882611d84565b6123e28185612332565b93506123f2818560208601611d9e565b80840191505092915050565b5f612409828561234e565b915061241582846123ce565b91508190509392505050565b7f756e737570706f7274207a65726f2061646472657373000000000000000000005f82015250565b5f612455601683611d8e565b915061246082612421565b602082019050919050565b5f6020820190508181035f83015261248281612449565b9050919050565b7f746f6b656e4964206f776e6572206973206e6f7420657175616c2066726f6d205f8201527f6164647265737300000000000000000000000000000000000000000000000000602082015250565b5f6124e3602783611d8e565b91506124ee82612489565b604082019050919050565b5f6020820190508181035f830152612510816124d7565b9050919050565b5f60408201905061252a5f830185611ed8565b6125376020830184611e14565b9392505050565b7f4e487b71000000000000000000000000000000000000000000000000000000005f52600160045260245ffd5b7f4e487b71000000000000000000000000000000000000000000000000000000005f52601160045260245ffd5b5f6125a282611e3c565b91506125ad83611e3c565b92508282039050818111156125c5576125c461256b565b5b92915050565b7f4e487b71000000000000000000000000000000000000000000000000000000005f52603160045260245ffd5b5f81519050919050565b5f82825260208201905092915050565b5f61261c826125f8565b6126268185612602565b9350612636818560208601611d9e565b61263f81611dac565b840191505092915050565b5f60808201905061265d5f830187611e14565b61266a6020830186611e14565b6126776040830185611ed8565b81810360608301526126898184612612565b905095945050505050565b5f815190506126a281611c77565b92915050565b5f602082840312156126bd576126bc611c44565b5b5f6126ca84828501612694565b91505092915050565b7f4e487b71000000000000000000000000000000000000000000000000000000005f52601260045260245ffdfea26469706673582212208f092f65e4405897dff5d9af838092ef833bd9b5b227aa05fdb2949bfd370a7e64736f6c634300081a0033",
					"opcodes": "PUSH1 0x80 PUSH1 0x40 MSTORE CALLVALUE DUP1 ISZERO PUSH2 0xF JUMPI PUSH0 DUP1 REVERT JUMPDEST POP PUSH1 0x40 MLOAD PUSH2 0x2CB8 CODESIZE SUB DUP1 PUSH2 0x2CB8 DUP4 CODECOPY DUP2 DUP2 ADD PUSH1 0x40 MSTORE DUP2 ADD SWAP1 PUSH2 0x31 SWAP2 SWAP1 PUSH2 0x1F5 JUMP JUMPDEST DUP3 PUSH0 SWAP1 DUP2 PUSH2 0x3F SWAP2 SWAP1 PUSH2 0x4A6 JUMP JUMPDEST POP DUP2 PUSH1 0x1 SWAP1 DUP2 PUSH2 0x4F SWAP2 SWAP1 PUSH2 0x4A6 JUMP JUMPDEST POP DUP1 PUSH1 0x2 SWAP1 DUP2 PUSH2 0x5F SWAP2 SWAP1 PUSH2 0x4A6 JUMP JUMPDEST POP CALLER PUSH1 0x3 PUSH0 PUSH2 0x100 EXP DUP2 SLOAD DUP2 PUSH20 0xFFFFFFFFFFFFFFFFFFFFFFFFFFFFFFFFFFFFFFFF MUL NOT AND SWAP1 DUP4 PUSH20 0xFFFFFFFFFFFFFFFFFFFFFFFFFFFFFFFFFFFFFFFF AND MUL OR SWAP1 SSTORE POP POP POP POP PUSH2 0x575 JUMP JUMPDEST PUSH0 PUSH1 0x40 MLOAD SWAP1 POP SWAP1 JUMP JUMPDEST PUSH0 DUP1 REVERT JUMPDEST PUSH0 DUP1 REVERT JUMPDEST PUSH0 DUP1 REVERT JUMPDEST PUSH0 DUP1 REVERT JUMPDEST PUSH0 PUSH1 0x1F NOT PUSH1 0x1F DUP4 ADD AND SWAP1 POP SWAP2 SWAP1 POP JUMP JUMPDEST PUSH32 0x4E487B7100000000000000000000000000000000000000000000000000000000 PUSH0 MSTORE PUSH1 0x41 PUSH1 0x4 MSTORE PUSH1 0x24 PUSH0 REVERT JUMPDEST PUSH2 0x107 DUP3 PUSH2 0xC1 JUMP JUMPDEST DUP2 ADD DUP2 DUP2 LT PUSH8 0xFFFFFFFFFFFFFFFF DUP3 GT OR ISZERO PUSH2 0x126 JUMPI PUSH2 0x125 PUSH2 0xD1 JUMP JUMPDEST JUMPDEST DUP1 PUSH1 0x40 MSTORE POP POP POP JUMP JUMPDEST PUSH0 PUSH2 0x138 PUSH2 0xA8 JUMP JUMPDEST SWAP1 POP PUSH2 0x144 DUP3 DUP3 PUSH2 0xFE JUMP JUMPDEST SWAP2 SWAP1 POP JUMP JUMPDEST PUSH0 PUSH8 0xFFFFFFFFFFFFFFFF DUP3 GT ISZERO PUSH2 0x163 JUMPI PUSH2 0x162 PUSH2 0xD1 JUMP JUMPDEST JUMPDEST PUSH2 0x16C DUP3 PUSH2 0xC1 JUMP JUMPDEST SWAP1 POP PUSH1 0x20 DUP2 ADD SWAP1 POP SWAP2 SWAP1 POP JUMP JUMPDEST DUP3 DUP2 DUP4 MCOPY PUSH0 DUP4 DUP4 ADD MSTORE POP POP POP JUMP JUMPDEST PUSH0 PUSH2 0x199 PUSH2 0x194 DUP5 PUSH2 0x149 JUMP JUMPDEST PUSH2 0x12F JUMP JUMPDEST SWAP1 POP DUP3 DUP2 MSTORE PUSH1 0x20 DUP2 ADD DUP5 DUP5 DUP5 ADD GT ISZERO PUSH2 0x1B5 JUMPI PUSH2 0x1B4 PUSH2 0xBD JUMP JUMPDEST JUMPDEST PUSH2 0x1C0 DUP5 DUP3 DUP6 PUSH2 0x179 JUMP JUMPDEST POP SWAP4 SWAP3 POP POP POP JUMP JUMPDEST PUSH0 DUP3 PUSH1 0x1F DUP4 ADD SLT PUSH2 0x1DC JUMPI PUSH2 0x1DB PUSH2 0xB9 JUMP JUMPDEST JUMPDEST DUP2 MLOAD PUSH2 0x1EC DUP5 DUP3 PUSH1 0x20 DUP7 ADD PUSH2 0x187 JUMP JUMPDEST SWAP2 POP POP SWAP3 SWAP2 POP POP JUMP JUMPDEST PUSH0 DUP1 PUSH0 PUSH1 0x60 DUP5 DUP7 SUB SLT ISZERO PUSH2 0x20C JUMPI PUSH2 0x20B PUSH2 0xB1 JUMP JUMPDEST JUMPDEST PUSH0 DUP5 ADD MLOAD PUSH8 0xFFFFFFFFFFFFFFFF DUP2 GT ISZERO PUSH2 0x229 JUMPI PUSH2 0x228 PUSH2 0xB5 JUMP JUMPDEST JUMPDEST PUSH2 0x235 DUP7 DUP3 DUP8 ADD PUSH2 0x1C8 JUMP JUMPDEST SWAP4 POP POP PUSH1 0x20 DUP5 ADD MLOAD PUSH8 0xFFFFFFFFFFFFFFFF DUP2 GT ISZERO PUSH2 0x256 JUMPI PUSH2 0x255 PUSH2 0xB5 JUMP JUMPDEST JUMPDEST PUSH2 0x262 DUP7 DUP3 DUP8 ADD PUSH2 0x1C8 JUMP JUMPDEST SWAP3 POP POP PUSH1 0x40 DUP5 ADD MLOAD PUSH8 0xFFFFFFFFFFFFFFFF DUP2 GT ISZERO PUSH2 0x283 JUMPI PUSH2 0x282 PUSH2 0xB5 JUMP JUMPDEST JUMPDEST PUSH2 0x28F DUP7 DUP3 DUP8 ADD PUSH2 0x1C8 JUMP JUMPDEST SWAP2 POP POP SWAP3 POP SWAP3 POP SWAP3 JUMP JUMPDEST PUSH0 DUP2 MLOAD SWAP1 POP SWAP2 SWAP1 POP JUMP JUMPDEST PUSH32 0x4E487B7100000000000000000000000000000000000000000000000000000000 PUSH0 MSTORE PUSH1 0x22 PUSH1 0x4 MSTORE PUSH1 0x24 PUSH0 REVERT JUMPDEST PUSH0 PUSH1 0x2 DUP3 DIV SWAP1 POP PUSH1 0x1 DUP3 AND DUP1 PUSH2 0x2E7 JUMPI PUSH1 0x7F DUP3 AND SWAP2 POP JUMPDEST PUSH1 0x20 DUP3 LT DUP2 SUB PUSH2 0x2FA JUMPI PUSH2 0x2F9 PUSH2 0x2A3 JUMP JUMPDEST JUMPDEST POP SWAP2 SWAP1 POP JUMP JUMPDEST PUSH0 DUP2 SWAP1 POP DUP2 PUSH0 MSTORE PUSH1 0x20 PUSH0 KECCAK256 SWAP1 POP SWAP2 SWAP1 POP JUMP JUMPDEST PUSH0 PUSH1 0x20 PUSH1 0x1F DUP4 ADD DIV SWAP1 POP SWAP2 SWAP1 POP JUMP JUMPDEST PUSH0 DUP3 DUP3 SHL SWAP1 POP SWAP3 SWAP2 POP POP JUMP JUMPDEST PUSH0 PUSH1 0x8 DUP4 MUL PUSH2 0x35C PUSH32 0xFFFFFFFFFFFFFFFFFFFFFFFFFFFFFFFFFFFFFFFFFFFFFFFFFFFFFFFFFFFFFFFF DUP3 PUSH2 0x321 JUMP JUMPDEST PUSH2 0x366 DUP7 DUP4 PUSH2 0x321 JUMP JUMPDEST SWAP6 POP DUP1 NOT DUP5 AND SWAP4 POP DUP1 DUP7 AND DUP5 OR SWAP3 POP POP POP SWAP4 SWAP3 POP POP POP JUMP JUMPDEST PUSH0 DUP2 SWAP1 POP SWAP2 SWAP1 POP JUMP JUMPDEST PUSH0 DUP2 SWAP1 POP SWAP2 SWAP1 POP JUMP JUMPDEST PUSH0 PUSH2 0x3AA PUSH2 0x3A5 PUSH2 0x3A0 DUP5 PUSH2 0x37E JUMP JUMPDEST PUSH2 0x387 JUMP JUMPDEST PUSH2 0x37E JUMP JUMPDEST SWAP1 POP SWAP2 SWAP1 POP JUMP JUMPDEST PUSH0 DUP2 SWAP1 POP SWAP2 SWAP1 POP JUMP JUMPDEST PUSH2 0x3C3 DUP4 PUSH2 0x390 JUMP JUMPDEST PUSH2 0x3D7 PUSH2 0x3CF DUP3 PUSH2 0x3B1 JUMP JUMPDEST DUP5 DUP5 SLOAD PUSH2 0x32D JUMP JUMPDEST DUP3 SSTORE POP POP POP POP JUMP JUMPDEST PUSH0 SWAP1 JUMP JUMPDEST PUSH2 0x3EB PUSH2 0x3DF JUMP JUMPDEST PUSH2 0x3F6 DUP2 DUP5 DUP5 PUSH2 0x3BA JUMP JUMPDEST POP POP POP JUMP JUMPDEST JUMPDEST DUP2 DUP2 LT ISZERO PUSH2 0x419 JUMPI PUSH2 0x40E PUSH0 DUP3 PUSH2 0x3E3 JUMP JUMPDEST PUSH1 0x1 DUP2 ADD SWAP1 POP PUSH2 0x3FC JUMP JUMPDEST POP POP JUMP JUMPDEST PUSH1 0x1F DUP3 GT ISZERO PUSH2 0x45E JUMPI PUSH2 0x42F DUP2 PUSH2 0x300 JUMP JUMPDEST PUSH2 0x438 DUP5 PUSH2 0x312 JUMP JUMPDEST DUP2 ADD PUSH1 0x20 DUP6 LT ISZERO PUSH2 0x447 JUMPI DUP2 SWAP1 POP JUMPDEST PUSH2 0x45B PUSH2 0x453 DUP6 PUSH2 0x312 JUMP JUMPDEST DUP4 ADD DUP3 PUSH2 0x3FB JUMP JUMPDEST POP POP JUMPDEST POP POP POP JUMP JUMPDEST PUSH0 DUP3 DUP3 SHR SWAP1 POP SWAP3 SWAP2 POP POP JUMP JUMPDEST PUSH0 PUSH2 0x47E PUSH0 NOT DUP5 PUSH1 0x8 MUL PUSH2 0x463 JUMP JUMPDEST NOT DUP1 DUP4 AND SWAP2 POP POP SWAP3 SWAP2 POP POP JUMP JUMPDEST PUSH0 PUSH2 0x496 DUP4 DUP4 PUSH2 0x46F JUMP JUMPDEST SWAP2 POP DUP3 PUSH1 0x2 MUL DUP3 OR SWAP1 POP SWAP3 SWAP2 POP POP JUMP JUMPDEST PUSH2 0x4AF DUP3 PUSH2 0x299 JUMP JUMPDEST PUSH8 0xFFFFFFFFFFFFFFFF DUP2 GT ISZERO PUSH2 0x4C8 JUMPI PUSH2 0x4C7 PUSH2 0xD1 JUMP JUMPDEST JUMPDEST PUSH2 0x4D2 DUP3 SLOAD PUSH2 0x2D0 JUMP JUMPDEST PUSH2 0x4DD DUP3 DUP3 DUP6 PUSH2 0x41D JUMP JUMPDEST PUSH0 PUSH1 0x20 SWAP1 POP PUSH1 0x1F DUP4 GT PUSH1 0x1 DUP2 EQ PUSH2 0x50E JUMPI PUSH0 DUP5 ISZERO PUSH2 0x4FC JUMPI DUP3 DUP8 ADD MLOAD SWAP1 POP JUMPDEST PUSH2 0x506 DUP6 DUP3 PUSH2 0x48B JUMP JUMPDEST DUP7 SSTORE POP PUSH2 0x56D JUMP JUMPDEST PUSH1 0x1F NOT DUP5 AND PUSH2 0x51C DUP7 PUSH2 0x300 JUMP JUMPDEST PUSH0 JUMPDEST DUP3 DUP2 LT ISZERO PUSH2 0x543 JUMPI DUP5 DUP10 ADD MLOAD DUP3 SSTORE PUSH1 0x1 DUP3 ADD SWAP2 POP PUSH1 0x20 DUP6 ADD SWAP5 POP PUSH1 0x20 DUP2 ADD SWAP1 POP PUSH2 0x51E JUMP JUMPDEST DUP7 DUP4 LT ISZERO PUSH2 0x560 JUMPI DUP5 DUP10 ADD MLOAD PUSH2 0x55C PUSH1 0x1F DUP10 AND DUP3 PUSH2 0x46F JUMP JUMPDEST DUP4 SSTORE POP JUMPDEST PUSH1 0x1 PUSH1 0x2 DUP9 MUL ADD DUP9 SSTORE POP POP POP JUMPDEST POP POP POP POP POP POP JUMP JUMPDEST PUSH2 0x2736 DUP1 PUSH2 0x582 PUSH0 CODECOPY PUSH0 RETURN INVALID PUSH1 0x80 PUSH1 0x40 MSTORE CALLVALUE DUP1 ISZERO PUSH2 0xF JUMPI PUSH0 DUP1 REVERT JUMPDEST POP PUSH1 0x4 CALLDATASIZE LT PUSH2 0x11F JUMPI PUSH0 CALLDATALOAD PUSH1 0xE0 SHR DUP1 PUSH4 0x2F745C59 GT PUSH2 0xAB JUMPI DUP1 PUSH4 0x95D89B41 GT PUSH2 0x6F JUMPI DUP1 PUSH4 0x95D89B41 EQ PUSH2 0x33F JUMPI DUP1 PUSH4 0xA22CB465 EQ PUSH2 0x35D JUMPI DUP1 PUSH4 0xB88D4FDE EQ PUSH2 0x379 JUMPI DUP1 PUSH4 0xC87B56DD EQ PUSH2 0x395 JUMPI DUP1 PUSH4 0xE985E9C5 EQ PUSH2 0x3C5 JUMPI PUSH2 0x11F JUMP JUMPDEST DUP1 PUSH4 0x2F745C59 EQ PUSH2 0x263 JUMPI DUP1 PUSH4 0x42842E0E EQ PUSH2 0x293 JUMPI DUP1 PUSH4 0x4F6CCCE7 EQ PUSH2 0x2AF JUMPI DUP1 PUSH4 0x6352211E EQ PUSH2 0x2DF JUMPI DUP1 PUSH4 0x70A08231 EQ PUSH2 0x30F JUMPI PUSH2 0x11F JUMP JUMPDEST DUP1 PUSH4 0x81812FC GT PUSH2 0xF2 JUMPI DUP1 PUSH4 0x81812FC EQ PUSH2 0x1BF JUMPI DUP1 PUSH4 0x95EA7B3 EQ PUSH2 0x1EF JUMPI DUP1 PUSH4 0x1249C58B EQ PUSH2 0x20B JUMPI DUP1 PUSH4 0x18160DDD EQ PUSH2 0x229 JUMPI DUP1 PUSH4 0x23B872DD EQ PUSH2 0x247 JUMPI PUSH2 0x11F JUMP JUMPDEST DUP1 PUSH4 0x1FFC9A7 EQ PUSH2 0x123 JUMPI DUP1 PUSH4 0x49CBC21 EQ PUSH2 0x153 JUMPI DUP1 PUSH4 0x6FDDE03 EQ PUSH2 0x183 JUMPI DUP1 PUSH4 0x7546172 EQ PUSH2 0x1A1 JUMPI JUMPDEST PUSH0 DUP1 REVERT JUMPDEST PUSH2 0x13D PUSH1 0x4 DUP1 CALLDATASIZE SUB DUP2 ADD SWAP1 PUSH2 0x138 SWAP2 SWAP1 PUSH2 0x1CA1 JUMP JUMPDEST PUSH2 0x3F5 JUMP JUMPDEST PUSH1 0x40 MLOAD PUSH2 0x14A SWAP2 SWAP1 PUSH2 0x1CE6 JUMP JUMPDEST PUSH1 0x40 MLOAD DUP1 SWAP2 SUB SWAP1 RETURN JUMPDEST PUSH2 0x16D PUSH1 0x4 DUP1 CALLDATASIZE SUB DUP2 ADD SWAP1 PUSH2 0x168 SWAP2 SWAP1 PUSH2 0x1D59 JUMP JUMPDEST PUSH2 0x596 JUMP JUMPDEST PUSH1 0x40 MLOAD PUSH2 0x17A SWAP2 SWAP1 PUSH2 0x1CE6 JUMP JUMPDEST PUSH1 0x40 MLOAD DUP1 SWAP2 SUB SWAP1 RETURN JUMPDEST PUSH2 0x18B PUSH2 0x5A1 JUMP JUMPDEST PUSH1 0x40 MLOAD PUSH2 0x198 SWAP2 SWAP1 PUSH2 0x1DF4 JUMP JUMPDEST PUSH1 0x40 MLOAD DUP1 SWAP2 SUB SWAP1 RETURN JUMPDEST PUSH2 0x1A9 PUSH2 0x630 JUMP JUMPDEST PUSH1 0x40 MLOAD PUSH2 0x1B6 SWAP2 SWAP1 PUSH2 0x1E23 JUMP JUMPDEST PUSH1 0x40 MLOAD DUP1 SWAP2 SUB SWAP1 RETURN JUMPDEST PUSH2 0x1D9 PUSH1 0x4 DUP1 CALLDATASIZE SUB DUP2 ADD SWAP1 PUSH2 0x1D4 SWAP2 SWAP1 PUSH2 0x1E6F JUMP JUMPDEST PUSH2 0x655 JUMP JUMPDEST PUSH1 0x40 MLOAD PUSH2 0x1E6 SWAP2 SWAP1 PUSH2 0x1E23 JUMP JUMPDEST PUSH1 0x40 MLOAD DUP1 SWAP2 SUB SWAP1 RETURN JUMPDEST PUSH2 0x209 PUSH1 0x4 DUP1 CALLDATASIZE SUB DUP2 ADD SWAP1 PUSH2 0x204 SWAP2 SWAP1 PUSH2 0x1E9A JUMP JUMPDEST PUSH2 0x68E JUMP JUMPDEST STOP JUMPDEST PUSH2 0x213 PUSH2 0x876 JUMP JUMPDEST PUSH1 0x40 MLOAD PUSH2 0x220 SWAP2 SWAP1 PUSH2 0x1EE7 JUMP JUMPDEST PUSH1 0x40 MLOAD DUP1 SWAP2 SUB SWAP1 RETURN JUMPDEST PUSH2 0x231 PUSH2 0xA8C JUMP JUMPDEST PUSH1 0x40 MLOAD PUSH2 0x23E SWAP2 SWAP1 PUSH2 0x1EE7 JUMP JUMPDEST PUSH1 0x40 MLOAD DUP1 SWAP2 SUB SWAP1 RETURN JUMPDEST PUSH2 0x261 PUSH1 0x4 DUP1 CALLDATASIZE SUB DUP2 ADD SWAP1 PUSH2 0x25C SWAP2 SWAP1 PUSH2 0x1F00 JUMP JUMPDEST PUSH2 0xA98 JUMP JUMPDEST STOP JUMPDEST PUSH2 0x27D PUSH1 0x4 DUP1 CALLDATASIZE SUB DUP2 ADD SWAP1 PUSH2 0x278 SWAP2 SWAP1 PUSH2 0x1E9A JUMP JUMPDEST PUSH2 0xAA8 JUMP JUMPDEST PUSH1 0x40 MLOAD PUSH2 0x28A SWAP2 SWAP1 PUSH2 0x1EE7 JUMP JUMPDEST PUSH1 0x40 MLOAD DUP1 SWAP2 SUB SWAP1 RETURN JUMPDEST PUSH2 0x2AD PUSH1 0x4 DUP1 CALLDATASIZE SUB DUP2 ADD SWAP1 PUSH2 0x2A8 SWAP2 SWAP1 PUSH2 0x1F00 JUMP JUMPDEST PUSH2 0xB54 JUMP JUMPDEST STOP JUMPDEST PUSH2 0x2C9 PUSH1 0x4 DUP1 CALLDATASIZE SUB DUP2 ADD SWAP1 PUSH2 0x2C4 SWAP2 SWAP1 PUSH2 0x1E6F JUMP JUMPDEST PUSH2 0xBBD JUMP JUMPDEST PUSH1 0x40 MLOAD PUSH2 0x2D6 SWAP2 SWAP1 PUSH2 0x1EE7 JUMP JUMPDEST PUSH1 0x40 MLOAD DUP1 SWAP2 SUB SWAP1 RETURN JUMPDEST PUSH2 0x2F9 PUSH1 0x4 DUP1 CALLDATASIZE SUB DUP2 ADD SWAP1 PUSH2 0x2F4 SWAP2 SWAP1 PUSH2 0x1E6F JUMP JUMPDEST PUSH2 0xC29 JUMP JUMPDEST PUSH1 0x40 MLOAD PUSH2 0x306 SWAP2 SWAP1 PUSH2 0x1E23 JUMP JUMPDEST PUSH1 0x40 MLOAD DUP1 SWAP2 SUB SWAP1 RETURN JUMPDEST PUSH2 0x329 PUSH1 0x4 DUP1 CALLDATASIZE SUB DUP2 ADD SWAP1 PUSH2 0x324 SWAP2 SWAP1 PUSH2 0x1D59 JUMP JUMPDEST PUSH2 0xC62 JUMP JUMPDEST PUSH1 0x40 MLOAD PUSH2 0x336 SWAP2 SWAP1 PUSH2 0x1EE7 JUMP JUMPDEST PUSH1 0x40 MLOAD DUP1 SWAP2 SUB SWAP1 RETURN JUMPDEST PUSH2 0x347 PUSH2 0xCAB JUMP JUMPDEST PUSH1 0x40 MLOAD PUSH2 0x354 SWAP2 SWAP1 PUSH2 0x1DF4 JUMP JUMPDEST PUSH1 0x40 MLOAD DUP1 SWAP2 SUB SWAP1 RETURN JUMPDEST PUSH2 0x377 PUSH1 0x4 DUP1 CALLDATASIZE SUB DUP2 ADD SWAP1 PUSH2 0x372 SWAP2 SWAP1 PUSH2 0x1F7A JUMP JUMPDEST PUSH2 0xD3B JUMP JUMPDEST STOP JUMPDEST PUSH2 0x393 PUSH1 0x4 DUP1 CALLDATASIZE SUB DUP2 ADD SWAP1 PUSH2 0x38E SWAP2 SWAP1 PUSH2 0x2019 JUMP JUMPDEST PUSH2 0x1139 JUMP JUMPDEST STOP JUMPDEST PUSH2 0x3AF PUSH1 0x4 DUP1 CALLDATASIZE SUB DUP2 ADD SWAP1 PUSH2 0x3AA SWAP2 SWAP1 PUSH2 0x1E6F JUMP JUMPDEST PUSH2 0x11D9 JUMP JUMPDEST PUSH1 0x40 MLOAD PUSH2 0x3BC SWAP2 SWAP1 PUSH2 0x1DF4 JUMP JUMPDEST PUSH1 0x40 MLOAD DUP1 SWAP2 SUB SWAP1 RETURN JUMPDEST PUSH2 0x3DF PUSH1 0x4 DUP1 CALLDATASIZE SUB DUP2 ADD SWAP1 PUSH2 0x3DA SWAP2 SWAP1 PUSH2 0x209D JUMP JUMPDEST PUSH2 0x120D JUMP JUMPDEST PUSH1 0x40 MLOAD PUSH2 0x3EC SWAP2 SWAP1 PUSH2 0x1CE6 JUMP JUMPDEST PUSH1 0x40 MLOAD DUP1 SWAP2 SUB SWAP1 RETURN JUMPDEST PUSH0 PUSH32 0x1FFC9A700000000000000000000000000000000000000000000000000000000 PUSH28 0xFFFFFFFFFFFFFFFFFFFFFFFFFFFFFFFFFFFFFFFFFFFFFFFFFFFFFFFF NOT AND DUP3 PUSH28 0xFFFFFFFFFFFFFFFFFFFFFFFFFFFFFFFFFFFFFFFFFFFFFFFFFFFFFFFF NOT AND EQ DUP1 PUSH2 0x4BF JUMPI POP PUSH32 0x5B5E139F00000000000000000000000000000000000000000000000000000000 PUSH28 0xFFFFFFFFFFFFFFFFFFFFFFFFFFFFFFFFFFFFFFFFFFFFFFFFFFFFFFFF NOT AND DUP3 PUSH28 0xFFFFFFFFFFFFFFFFFFFFFFFFFFFFFFFFFFFFFFFFFFFFFFFFFFFFFFFF NOT AND EQ JUMPDEST DUP1 PUSH2 0x527 JUMPI POP PUSH32 0x80AC58CD00000000000000000000000000000000000000000000000000000000 PUSH28 0xFFFFFFFFFFFFFFFFFFFFFFFFFFFFFFFFFFFFFFFFFFFFFFFFFFFFFFFF NOT AND DUP3 PUSH28 0xFFFFFFFFFFFFFFFFFFFFFFFFFFFFFFFFFFFFFFFFFFFFFFFFFFFFFFFF NOT AND EQ JUMPDEST DUP1 PUSH2 0x58F JUMPI POP PUSH32 0x780E9D6300000000000000000000000000000000000000000000000000000000 PUSH28 0xFFFFFFFFFFFFFFFFFFFFFFFFFFFFFFFFFFFFFFFFFFFFFFFFFFFFFFFF NOT AND DUP3 PUSH28 0xFFFFFFFFFFFFFFFFFFFFFFFFFFFFFFFFFFFFFFFFFFFFFFFFFFFFFFFF NOT AND EQ JUMPDEST SWAP1 POP SWAP2 SWAP1 POP JUMP JUMPDEST PUSH0 DUP2 EXTCODESIZE ISZERO SWAP1 POP SWAP2 SWAP1 POP JUMP JUMPDEST PUSH1 0x60 PUSH0 DUP1 SLOAD PUSH2 0x5AF SWAP1 PUSH2 0x2108 JUMP JUMPDEST DUP1 PUSH1 0x1F ADD PUSH1 0x20 DUP1 SWAP2 DIV MUL PUSH1 0x20 ADD PUSH1 0x40 MLOAD SWAP1 DUP2 ADD PUSH1 0x40 MSTORE DUP1 SWAP3 SWAP2 SWAP1 DUP2 DUP2 MSTORE PUSH1 0x20 ADD DUP3 DUP1 SLOAD PUSH2 0x5DB SWAP1 PUSH2 0x2108 JUMP JUMPDEST DUP1 ISZERO PUSH2 0x626 JUMPI DUP1 PUSH1 0x1F LT PUSH2 0x5FD JUMPI PUSH2 0x100 DUP1 DUP4 SLOAD DIV MUL DUP4 MSTORE SWAP2 PUSH1 0x20 ADD SWAP2 PUSH2 0x626 JUMP JUMPDEST DUP3 ADD SWAP2 SWAP1 PUSH0 MSTORE PUSH1 0x20 PUSH0 KECCAK256 SWAP1 JUMPDEST DUP2 SLOAD DUP2 MSTORE SWAP1 PUSH1 0x1 ADD SWAP1 PUSH1 0x20 ADD DUP1 DUP4 GT PUSH2 0x609 JUMPI DUP3 SWAP1 SUB PUSH1 0x1F AND DUP3 ADD SWAP2 JUMPDEST POP POP POP POP POP SWAP1 POP SWAP1 JUMP JUMPDEST PUSH1 0x3 PUSH0 SWAP1 SLOAD SWAP1 PUSH2 0x100 EXP SWAP1 DIV PUSH20 0xFFFFFFFFFFFFFFFFFFFFFFFFFFFFFFFFFFFFFFFF AND DUP2 JUMP JUMPDEST PUSH0 PUSH1 0x6 PUSH0 DUP4 DUP2 MSTORE PUSH1 0x20 ADD SWAP1 DUP2 MSTORE PUSH1 0x20 ADD PUSH0 KECCAK256 PUSH0 SWAP1 SLOAD SWAP1 PUSH2 0x100 EXP SWAP1 DIV PUSH20 0xFFFFFFFFFFFFFFFFFFFFFFFFFFFFFFFFFFFFFFFF AND SWAP1 POP SWAP2 SWAP1 POP JUMP JUMPDEST DUP2 PUSH20 0xFFFFFFFFFFFFFFFFFFFFFFFFFFFFFFFFFFFFFFFF AND PUSH1 0x6 PUSH0 DUP4 DUP2 MSTORE PUSH1 0x20 ADD SWAP1 DUP2 MSTORE PUSH1 0x20 ADD PUSH0 KECCAK256 PUSH0 SWAP1 SLOAD SWAP1 PUSH2 0x100 EXP SWAP1 DIV PUSH20 0xFFFFFFFFFFFFFFFFFFFFFFFFFFFFFFFFFFFFFFFF AND PUSH20 0xFFFFFFFFFFFFFFFFFFFFFFFFFFFFFFFFFFFFFFFF AND SUB PUSH2 0x72C JUMPI PUSH1 0x40 MLOAD PUSH32 0x8C379A000000000000000000000000000000000000000000000000000000000 DUP2 MSTORE PUSH1 0x4 ADD PUSH2 0x723 SWAP1 PUSH2 0x2182 JUMP JUMPDEST PUSH1 0x40 MLOAD DUP1 SWAP2 SUB SWAP1 REVERT JUMPDEST DUP2 PUSH1 0x6 PUSH0 DUP4 DUP2 MSTORE PUSH1 0x20 ADD SWAP1 DUP2 MSTORE PUSH1 0x20 ADD PUSH0 KECCAK256 PUSH0 PUSH2 0x100 EXP DUP2 SLOAD DUP2 PUSH20 0xFFFFFFFFFFFFFFFFFFFFFFFFFFFFFFFFFFFFFFFF MUL NOT AND SWAP1 DUP4 PUSH20 0xFFFFFFFFFFFFFFFFFFFFFFFFFFFFFFFFFFFFFFFF AND MUL OR SWAP1 SSTORE POP PUSH1 0x8 PUSH0 CALLER PUSH20 0xFFFFFFFFFFFFFFFFFFFFFFFFFFFFFFFFFFFFFFFF AND PUSH20 0xFFFFFFFFFFFFFFFFFFFFFFFFFFFFFFFFFFFFFFFF AND DUP2 MSTORE PUSH1 0x20 ADD SWAP1 DUP2 MSTORE PUSH1 0x20 ADD PUSH0 KECCAK256 PUSH0 DUP4 PUSH20 0xFFFFFFFFFFFFFFFFFFFFFFFFFFFFFFFFFFFFFFFF AND PUSH20 0xFFFFFFFFFFFFFFFFFFFFFFFFFFFFFFFFFFFFFFFF AND DUP2 MSTORE PUSH1 0x20 ADD SWAP1 DUP2 MSTORE PUSH1 0x20 ADD PUSH0 KECCAK256 DUP2 SWAP1 DUP1 PUSH1 0x1 DUP2 SLOAD ADD DUP1 DUP3 SSTORE DUP1 SWAP2 POP POP PUSH1 0x1 SWAP1 SUB SWAP1 PUSH0 MSTORE PUSH1 0x20 PUSH0 KECCAK256 ADD PUSH0 SWAP1 SWAP2 SWAP1 SWAP2 SWAP1 SWAP2 POP SSTORE DUP1 DUP3 PUSH20 0xFFFFFFFFFFFFFFFFFFFFFFFFFFFFFFFFFFFFFFFF AND CALLER PUSH20 0xFFFFFFFFFFFFFFFFFFFFFFFFFFFFFFFFFFFFFFFF AND PUSH32 0x8C5BE1E5EBEC7D5BD14F71427D1E84F3DD0314C0F7B2291E5B200AC8C7C3B925 PUSH1 0x40 MLOAD PUSH1 0x40 MLOAD DUP1 SWAP2 SUB SWAP1 LOG4 POP POP JUMP JUMPDEST PUSH0 PUSH1 0x3 PUSH0 SWAP1 SLOAD SWAP1 PUSH2 0x100 EXP SWAP1 DIV PUSH20 0xFFFFFFFFFFFFFFFFFFFFFFFFFFFFFFFFFFFFFFFF AND PUSH20 0xFFFFFFFFFFFFFFFFFFFFFFFFFFFFFFFFFFFFFFFF AND CALLER PUSH20 0xFFFFFFFFFFFFFFFFFFFFFFFFFFFFFFFFFFFFFFFF AND EQ PUSH2 0x908 JUMPI CALLER PUSH1 0x40 MLOAD PUSH32 0x4C1CDA0D00000000000000000000000000000000000000000000000000000000 DUP2 MSTORE PUSH1 0x4 ADD PUSH2 0x8FF SWAP2 SWAP1 PUSH2 0x1E23 JUMP JUMPDEST PUSH1 0x40 MLOAD DUP1 SWAP2 SUB SWAP1 REVERT JUMPDEST PUSH0 PUSH1 0x4 DUP1 SLOAD SWAP1 POP SWAP1 POP PUSH0 PUSH20 0xFFFFFFFFFFFFFFFFFFFFFFFFFFFFFFFFFFFFFFFF AND PUSH1 0x5 PUSH0 DUP4 DUP2 MSTORE PUSH1 0x20 ADD SWAP1 DUP2 MSTORE PUSH1 0x20 ADD PUSH0 KECCAK256 PUSH0 SWAP1 SLOAD SWAP1 PUSH2 0x100 EXP SWAP1 DIV PUSH20 0xFFFFFFFFFFFFFFFFFFFFFFFFFFFFFFFFFFFFFFFF AND PUSH20 0xFFFFFFFFFFFFFFFFFFFFFFFFFFFFFFFFFFFFFFFF AND EQ PUSH2 0x9AF JUMPI PUSH1 0x40 MLOAD PUSH32 0x8C379A000000000000000000000000000000000000000000000000000000000 DUP2 MSTORE PUSH1 0x4 ADD PUSH2 0x9A6 SWAP1 PUSH2 0x21EA JUMP JUMPDEST PUSH1 0x40 MLOAD DUP1 SWAP2 SUB SWAP1 REVERT JUMPDEST CALLER PUSH1 0x5 PUSH0 DUP4 DUP2 MSTORE PUSH1 0x20 ADD SWAP1 DUP2 MSTORE PUSH1 0x20 ADD PUSH0 KECCAK256 PUSH0 PUSH2 0x100 EXP DUP2 SLOAD DUP2 PUSH20 0xFFFFFFFFFFFFFFFFFFFFFFFFFFFFFFFFFFFFFFFF MUL NOT AND SWAP1 DUP4 PUSH20 0xFFFFFFFFFFFFFFFFFFFFFFFFFFFFFFFFFFFFFFFF AND MUL OR SWAP1 SSTORE POP PUSH1 0x7 PUSH0 CALLER PUSH20 0xFFFFFFFFFFFFFFFFFFFFFFFFFFFFFFFFFFFFFFFF AND PUSH20 0xFFFFFFFFFFFFFFFFFFFFFFFFFFFFFFFFFFFFFFFF AND DUP2 MSTORE PUSH1 0x20 ADD SWAP1 DUP2 MSTORE PUSH1 0x20 ADD PUSH0 KECCAK256 DUP2 SWAP1 DUP1 PUSH1 0x1 DUP2 SLOAD ADD DUP1 DUP3 SSTORE DUP1 SWAP2 POP POP PUSH1 0x1 SWAP1 SUB SWAP1 PUSH0 MSTORE PUSH1 0x20 PUSH0 KECCAK256 ADD PUSH0 SWAP1 SWAP2 SWAP1 SWAP2 SWAP1 SWAP2 POP SSTORE PUSH1 0x4 DUP2 SWAP1 DUP1 PUSH1 0x1 DUP2 SLOAD ADD DUP1 DUP3 SSTORE DUP1 SWAP2 POP POP PUSH1 0x1 SWAP1 SUB SWAP1 PUSH0 MSTORE PUSH1 0x20 PUSH0 KECCAK256 ADD PUSH0 SWAP1 SWAP2 SWAP1 SWAP2 SWAP1 SWAP2 POP SSTORE DUP1 SWAP2 POP POP SWAP1 JUMP JUMPDEST PUSH0 PUSH1 0x4 DUP1 SLOAD SWAP1 POP SWAP1 POP SWAP1 JUMP JUMPDEST PUSH2 0xAA3 DUP4 DUP4 DUP4 PUSH2 0x12D4 JUMP JUMPDEST POP POP POP JUMP JUMPDEST PUSH0 DUP1 PUSH1 0x7 PUSH0 DUP6 PUSH20 0xFFFFFFFFFFFFFFFFFFFFFFFFFFFFFFFFFFFFFFFF AND PUSH20 0xFFFFFFFFFFFFFFFFFFFFFFFFFFFFFFFFFFFFFFFF AND DUP2 MSTORE PUSH1 0x20 ADD SWAP1 DUP2 MSTORE PUSH1 0x20 ADD PUSH0 KECCAK256 SWAP1 POP DUP1 DUP1 SLOAD SWAP1 POP DUP4 LT PUSH2 0xB2F JUMPI PUSH1 0x40 MLOAD PUSH32 0x8C379A000000000000000000000000000000000000000000000000000000000 DUP2 MSTORE PUSH1 0x4 ADD PUSH2 0xB26 SWAP1 PUSH2 0x2252 JUMP JUMPDEST PUSH1 0x40 MLOAD DUP1 SWAP2 SUB SWAP1 REVERT JUMPDEST DUP1 DUP4 DUP2 SLOAD DUP2 LT PUSH2 0xB42 JUMPI PUSH2 0xB41 PUSH2 0x2270 JUMP JUMPDEST JUMPDEST SWAP1 PUSH0 MSTORE PUSH1 0x20 PUSH0 KECCAK256 ADD SLOAD SWAP2 POP POP SWAP3 SWAP2 POP POP JUMP JUMPDEST PUSH2 0xB6E DUP4 DUP4 DUP4 PUSH1 0x40 MLOAD DUP1 PUSH1 0x20 ADD PUSH1 0x40 MSTORE DUP1 PUSH0 DUP2 MSTORE POP PUSH2 0x18D5 JUMP JUMPDEST PUSH2 0xBAD JUMPI PUSH1 0x40 MLOAD PUSH32 0x8C379A000000000000000000000000000000000000000000000000000000000 DUP2 MSTORE PUSH1 0x4 ADD PUSH2 0xBA4 SWAP1 PUSH2 0x22E7 JUMP JUMPDEST PUSH1 0x40 MLOAD DUP1 SWAP2 SUB SWAP1 REVERT JUMPDEST PUSH2 0xBB8 DUP4 DUP4 DUP4 PUSH2 0x12D4 JUMP JUMPDEST POP POP POP JUMP JUMPDEST PUSH0 PUSH1 0x4 DUP1 SLOAD SWAP1 POP DUP3 LT PUSH2 0xC05 JUMPI PUSH1 0x40 MLOAD PUSH32 0x8C379A000000000000000000000000000000000000000000000000000000000 DUP2 MSTORE PUSH1 0x4 ADD PUSH2 0xBFC SWAP1 PUSH2 0x2252 JUMP JUMPDEST PUSH1 0x40 MLOAD DUP1 SWAP2 SUB SWAP1 REVERT JUMPDEST PUSH1 0x4 DUP3 DUP2 SLOAD DUP2 LT PUSH2 0xC19 JUMPI PUSH2 0xC18 PUSH2 0x2270 JUMP JUMPDEST JUMPDEST SWAP1 PUSH0 MSTORE PUSH1 0x20 PUSH0 KECCAK256 ADD SLOAD SWAP1 POP SWAP2 SWAP1 POP JUMP JUMPDEST PUSH0 PUSH1 0x5 PUSH0 DUP4 DUP2 MSTORE PUSH1 0x20 ADD SWAP1 DUP2 MSTORE PUSH1 0x20 ADD PUSH0 KECCAK256 PUSH0 SWAP1 SLOAD SWAP1 PUSH2 0x100 EXP SWAP1 DIV PUSH20 0xFFFFFFFFFFFFFFFFFFFFFFFFFFFFFFFFFFFFFFFF AND SWAP1 POP SWAP2 SWAP1 POP JUMP JUMPDEST PUSH0 PUSH1 0x7 PUSH0 DUP4 PUSH20 0xFFFFFFFFFFFFFFFFFFFFFFFFFFFFFFFFFFFFFFFF AND PUSH20 0xFFFFFFFFFFFFFFFFFFFFFFFFFFFFFFFFFFFFFFFF AND DUP2 MSTORE PUSH1 0x20 ADD SWAP1 DUP2 MSTORE PUSH1 0x20 ADD PUSH0 KECCAK256 DUP1 SLOAD SWAP1 POP SWAP1 POP SWAP2 SWAP1 POP JUMP JUMPDEST PUSH1 0x60 PUSH1 0x1 DUP1 SLOAD PUSH2 0xCBA SWAP1 PUSH2 0x2108 JUMP JUMPDEST DUP1 PUSH1 0x1F ADD PUSH1 0x20 DUP1 SWAP2 DIV MUL PUSH1 0x20 ADD PUSH1 0x40 MLOAD SWAP1 DUP2 ADD PUSH1 0x40 MSTORE DUP1 SWAP3 SWAP2 SWAP1 DUP2 DUP2 MSTORE PUSH1 0x20 ADD DUP3 DUP1 SLOAD PUSH2 0xCE6 SWAP1 PUSH2 0x2108 JUMP JUMPDEST DUP1 ISZERO PUSH2 0xD31 JUMPI DUP1 PUSH1 0x1F LT PUSH2 0xD08 JUMPI PUSH2 0x100 DUP1 DUP4 SLOAD DIV MUL DUP4 MSTORE SWAP2 PUSH1 0x20 ADD SWAP2 PUSH2 0xD31 JUMP JUMPDEST DUP3 ADD SWAP2 SWAP1 PUSH0 MSTORE PUSH1 0x20 PUSH0 KECCAK256 SWAP1 JUMPDEST DUP2 SLOAD DUP2 MSTORE SWAP1 PUSH1 0x1 ADD SWAP1 PUSH1 0x20 ADD DUP1 DUP4 GT PUSH2 0xD14 JUMPI DUP3 SWAP1 SUB PUSH1 0x1F AND DUP3 ADD SWAP2 JUMPDEST POP POP POP POP POP SWAP1 POP SWAP1 JUMP JUMPDEST PUSH0 PUSH20 0xFFFFFFFFFFFFFFFFFFFFFFFFFFFFFFFFFFFFFFFF AND DUP3 PUSH20 0xFFFFFFFFFFFFFFFFFFFFFFFFFFFFFFFFFFFFFFFF AND SUB PUSH2 0xD72 JUMPI PUSH0 DUP1 REVERT JUMPDEST PUSH0 PUSH1 0x7 PUSH0 CALLER PUSH20 0xFFFFFFFFFFFFFFFFFFFFFFFFFFFFFFFFFFFFFFFF AND PUSH20 0xFFFFFFFFFFFFFFFFFFFFFFFFFFFFFFFFFFFFFFFF AND DUP2 MSTORE PUSH1 0x20 ADD SWAP1 DUP2 MSTORE PUSH1 0x20 ADD PUSH0 KECCAK256 DUP1 SLOAD DUP1 PUSH1 0x20 MUL PUSH1 0x20 ADD PUSH1 0x40 MLOAD SWAP1 DUP2 ADD PUSH1 0x40 MSTORE DUP1 SWAP3 SWAP2 SWAP1 DUP2 DUP2 MSTORE PUSH1 0x20 ADD DUP3 DUP1 SLOAD DUP1 ISZERO PUSH2 0xDF8 JUMPI PUSH1 0x20 MUL DUP3 ADD SWAP2 SWAP1 PUSH0 MSTORE PUSH1 0x20 PUSH0 KECCAK256 SWAP1 JUMPDEST DUP2 SLOAD DUP2 MSTORE PUSH1 0x20 ADD SWAP1 PUSH1 0x1 ADD SWAP1 DUP1 DUP4 GT PUSH2 0xDE4 JUMPI JUMPDEST POP POP POP POP POP SWAP1 POP PUSH0 DUP2 MLOAD SWAP1 POP PUSH0 JUMPDEST DUP2 DUP2 LT ISZERO PUSH2 0xEDB JUMPI DUP4 ISZERO PUSH2 0xE82 JUMPI DUP5 PUSH1 0x6 PUSH0 DUP6 DUP5 DUP2 MLOAD DUP2 LT PUSH2 0xE2B JUMPI PUSH2 0xE2A PUSH2 0x2270 JUMP JUMPDEST JUMPDEST PUSH1 0x20 MUL PUSH1 0x20 ADD ADD MLOAD DUP2 MSTORE PUSH1 0x20 ADD SWAP1 DUP2 MSTORE PUSH1 0x20 ADD PUSH0 KECCAK256 PUSH0 PUSH2 0x100 EXP DUP2 SLOAD DUP2 PUSH20 0xFFFFFFFFFFFFFFFFFFFFFFFFFFFFFFFFFFFFFFFF MUL NOT AND SWAP1 DUP4 PUSH20 0xFFFFFFFFFFFFFFFFFFFFFFFFFFFFFFFFFFFFFFFF AND MUL OR SWAP1 SSTORE POP PUSH2 0xED0 JUMP JUMPDEST PUSH1 0x6 PUSH0 DUP5 DUP4 DUP2 MLOAD DUP2 LT PUSH2 0xE98 JUMPI PUSH2 0xE97 PUSH2 0x2270 JUMP JUMPDEST JUMPDEST PUSH1 0x20 MUL PUSH1 0x20 ADD ADD MLOAD DUP2 MSTORE PUSH1 0x20 ADD SWAP1 DUP2 MSTORE PUSH1 0x20 ADD PUSH0 KECCAK256 PUSH0 PUSH2 0x100 EXP DUP2 SLOAD SWAP1 PUSH20 0xFFFFFFFFFFFFFFFFFFFFFFFFFFFFFFFFFFFFFFFF MUL NOT AND SWAP1 SSTORE JUMPDEST DUP1 PUSH1 0x1 ADD SWAP1 POP PUSH2 0xE06 JUMP JUMPDEST POP DUP3 ISZERO PUSH2 0xF74 JUMPI DUP2 PUSH1 0x8 PUSH0 CALLER PUSH20 0xFFFFFFFFFFFFFFFFFFFFFFFFFFFFFFFFFFFFFFFF AND PUSH20 0xFFFFFFFFFFFFFFFFFFFFFFFFFFFFFFFFFFFFFFFF AND DUP2 MSTORE PUSH1 0x20 ADD SWAP1 DUP2 MSTORE PUSH1 0x20 ADD PUSH0 KECCAK256 PUSH0 DUP7 PUSH20 0xFFFFFFFFFFFFFFFFFFFFFFFFFFFFFFFFFFFFFFFF AND PUSH20 0xFFFFFFFFFFFFFFFFFFFFFFFFFFFFFFFFFFFFFFFF AND DUP2 MSTORE PUSH1 0x20 ADD SWAP1 DUP2 MSTORE PUSH1 0x20 ADD PUSH0 KECCAK256 SWAP1 DUP1 MLOAD SWAP1 PUSH1 0x20 ADD SWAP1 PUSH2 0xF6E SWAP3 SWAP2 SWAP1 PUSH2 0x1BDE JUMP JUMPDEST POP PUSH2 0x10CE JUMP JUMPDEST PUSH0 PUSH1 0x8 PUSH0 CALLER PUSH20 0xFFFFFFFFFFFFFFFFFFFFFFFFFFFFFFFFFFFFFFFF AND PUSH20 0xFFFFFFFFFFFFFFFFFFFFFFFFFFFFFFFFFFFFFFFF AND DUP2 MSTORE PUSH1 0x20 ADD SWAP1 DUP2 MSTORE PUSH1 0x20 ADD PUSH0 KECCAK256 PUSH0 DUP7 PUSH20 0xFFFFFFFFFFFFFFFFFFFFFFFFFFFFFFFFFFFFFFFF AND PUSH20 0xFFFFFFFFFFFFFFFFFFFFFFFFFFFFFFFFFFFFFFFF AND DUP2 MSTORE PUSH1 0x20 ADD SWAP1 DUP2 MSTORE PUSH1 0x20 ADD PUSH0 KECCAK256 DUP1 SLOAD SWAP1 POP GT ISZERO PUSH2 0x10CD JUMPI PUSH0 PUSH8 0xFFFFFFFFFFFFFFFF DUP2 GT ISZERO PUSH2 0x1011 JUMPI PUSH2 0x1010 PUSH2 0x2305 JUMP JUMPDEST JUMPDEST PUSH1 0x40 MLOAD SWAP1 DUP1 DUP3 MSTORE DUP1 PUSH1 0x20 MUL PUSH1 0x20 ADD DUP3 ADD PUSH1 0x40 MSTORE DUP1 ISZERO PUSH2 0x103F JUMPI DUP2 PUSH1 0x20 ADD PUSH1 0x20 DUP3 MUL DUP1 CALLDATASIZE DUP4 CALLDATACOPY DUP1 DUP3 ADD SWAP2 POP POP SWAP1 POP JUMPDEST POP PUSH1 0x8 PUSH0 CALLER PUSH20 0xFFFFFFFFFFFFFFFFFFFFFFFFFFFFFFFFFFFFFFFF AND PUSH20 0xFFFFFFFFFFFFFFFFFFFFFFFFFFFFFFFFFFFFFFFF AND DUP2 MSTORE PUSH1 0x20 ADD SWAP1 DUP2 MSTORE PUSH1 0x20 ADD PUSH0 KECCAK256 PUSH0 DUP7 PUSH20 0xFFFFFFFFFFFFFFFFFFFFFFFFFFFFFFFFFFFFFFFF AND PUSH20 0xFFFFFFFFFFFFFFFFFFFFFFFFFFFFFFFFFFFFFFFF AND DUP2 MSTORE PUSH1 0x20 ADD SWAP1 DUP2 MSTORE PUSH1 0x20 ADD PUSH0 KECCAK256 SWAP1 DUP1 MLOAD SWAP1 PUSH1 0x20 ADD SWAP1 PUSH2 0x10CB SWAP3 SWAP2 SWAP1 PUSH2 0x1BDE JUMP JUMPDEST POP JUMPDEST JUMPDEST DUP4 PUSH20 0xFFFFFFFFFFFFFFFFFFFFFFFFFFFFFFFFFFFFFFFF AND CALLER PUSH20 0xFFFFFFFFFFFFFFFFFFFFFFFFFFFFFFFFFFFFFFFF AND PUSH32 0x17307EAB39AB6107E8899845AD3D59BD9653F200F220920489CA2B5937696C31 DUP6 PUSH1 0x40 MLOAD PUSH2 0x112B SWAP2 SWAP1 PUSH2 0x1CE6 JUMP JUMPDEST PUSH1 0x40 MLOAD DUP1 SWAP2 SUB SWAP1 LOG3 POP POP POP POP JUMP JUMPDEST PUSH2 0x1188 DUP6 DUP6 DUP6 DUP6 DUP6 DUP1 DUP1 PUSH1 0x1F ADD PUSH1 0x20 DUP1 SWAP2 DIV MUL PUSH1 0x20 ADD PUSH1 0x40 MLOAD SWAP1 DUP2 ADD PUSH1 0x40 MSTORE DUP1 SWAP4 SWAP3 SWAP2 SWAP1 DUP2 DUP2 MSTORE PUSH1 0x20 ADD DUP4 DUP4 DUP1 DUP3 DUP5 CALLDATACOPY PUSH0 DUP2 DUP5 ADD MSTORE PUSH1 0x1F NOT PUSH1 0x1F DUP3 ADD AND SWAP1 POP DUP1 DUP4 ADD SWAP3 POP POP POP POP POP POP POP PUSH2 0x18D5 JUMP JUMPDEST PUSH2 0x11C7 JUMPI PUSH1 0x40 MLOAD PUSH32 0x8C379A000000000000000000000000000000000000000000000000000000000 DUP2 MSTORE PUSH1 0x4 ADD PUSH2 0x11BE SWAP1 PUSH2 0x22E7 JUMP JUMPDEST PUSH1 0x40 MLOAD DUP1 SWAP2 SUB SWAP1 REVERT JUMPDEST PUSH2 0x11D2 DUP6 DUP6 DUP6 PUSH2 0x12D4 JUMP JUMPDEST POP POP POP POP POP JUMP JUMPDEST PUSH1 0x60 PUSH1 0x2 PUSH2 0x11E6 DUP4 PUSH2 0x19C3 JUMP JUMPDEST PUSH1 0x40 MLOAD PUSH1 0x20 ADD PUSH2 0x11F7 SWAP3 SWAP2 SWAP1 PUSH2 0x23FE JUMP JUMPDEST PUSH1 0x40 MLOAD PUSH1 0x20 DUP2 DUP4 SUB SUB DUP2 MSTORE SWAP1 PUSH1 0x40 MSTORE SWAP1 POP SWAP2 SWAP1 POP JUMP JUMPDEST PUSH0 PUSH1 0x7 PUSH0 DUP5 PUSH20 0xFFFFFFFFFFFFFFFFFFFFFFFFFFFFFFFFFFFFFFFF AND PUSH20 0xFFFFFFFFFFFFFFFFFFFFFFFFFFFFFFFFFFFFFFFF AND DUP2 MSTORE PUSH1 0x20 ADD SWAP1 DUP2 MSTORE PUSH1 0x20 ADD PUSH0 KECCAK256 DUP1 SLOAD SWAP1 POP PUSH1 0x8 PUSH0 DUP6 PUSH20 0xFFFFFFFFFFFFFFFFFFFFFFFFFFFFFFFFFFFFFFFF AND PUSH20 0xFFFFFFFFFFFFFFFFFFFFFFFFFFFFFFFFFFFFFFFF AND DUP2 MSTORE PUSH1 0x20 ADD SWAP1 DUP2 MSTORE PUSH1 0x20 ADD PUSH0 KECCAK256 PUSH0 DUP5 PUSH20 0xFFFFFFFFFFFFFFFFFFFFFFFFFFFFFFFFFFFFFFFF AND PUSH20 0xFFFFFFFFFFFFFFFFFFFFFFFFFFFFFFFFFFFFFFFF AND DUP2 MSTORE PUSH1 0x20 ADD SWAP1 DUP2 MSTORE PUSH1 0x20 ADD PUSH0 KECCAK256 DUP1 SLOAD SWAP1 POP EQ SWAP1 POP SWAP3 SWAP2 POP POP JUMP JUMPDEST PUSH0 PUSH20 0xFFFFFFFFFFFFFFFFFFFFFFFFFFFFFFFFFFFFFFFF AND DUP4 PUSH20 0xFFFFFFFFFFFFFFFFFFFFFFFFFFFFFFFFFFFFFFFF AND EQ ISZERO DUP1 ISZERO PUSH2 0x133C JUMPI POP PUSH0 PUSH20 0xFFFFFFFFFFFFFFFFFFFFFFFFFFFFFFFFFFFFFFFF AND DUP3 PUSH20 0xFFFFFFFFFFFFFFFFFFFFFFFFFFFFFFFFFFFFFFFF AND EQ ISZERO JUMPDEST PUSH2 0x137B JUMPI PUSH1 0x40 MLOAD PUSH32 0x8C379A000000000000000000000000000000000000000000000000000000000 DUP2 MSTORE PUSH1 0x4 ADD PUSH2 0x1372 SWAP1 PUSH2 0x246B JUMP JUMPDEST PUSH1 0x40 MLOAD DUP1 SWAP2 SUB SWAP1 REVERT JUMPDEST DUP3 PUSH20 0xFFFFFFFFFFFFFFFFFFFFFFFFFFFFFFFFFFFFFFFF AND PUSH1 0x5 PUSH0 DUP4 DUP2 MSTORE PUSH1 0x20 ADD SWAP1 DUP2 MSTORE PUSH1 0x20 ADD PUSH0 KECCAK256 PUSH0 SWAP1 SLOAD SWAP1 PUSH2 0x100 EXP SWAP1 DIV PUSH20 0xFFFFFFFFFFFFFFFFFFFFFFFFFFFFFFFFFFFFFFFF AND PUSH20 0xFFFFFFFFFFFFFFFFFFFFFFFFFFFFFFFFFFFFFFFF AND EQ PUSH2 0x1419 JUMPI PUSH1 0x40 MLOAD PUSH32 0x8C379A000000000000000000000000000000000000000000000000000000000 DUP2 MSTORE PUSH1 0x4 ADD PUSH2 0x1410 SWAP1 PUSH2 0x24F9 JUMP JUMPDEST PUSH1 0x40 MLOAD DUP1 SWAP2 SUB SWAP1 REVERT JUMPDEST PUSH0 DUP1 CALLER PUSH20 0xFFFFFFFFFFFFFFFFFFFFFFFFFFFFFFFFFFFFFFFF AND DUP6 PUSH20 0xFFFFFFFFFFFFFFFFFFFFFFFFFFFFFFFFFFFFFFFF AND SUB PUSH2 0x1457 JUMPI PUSH1 0x1 SWAP2 POP PUSH2 0x14B9 JUMP JUMPDEST CALLER PUSH20 0xFFFFFFFFFFFFFFFFFFFFFFFFFFFFFFFFFFFFFFFF AND PUSH1 0x6 PUSH0 DUP6 DUP2 MSTORE PUSH1 0x20 ADD SWAP1 DUP2 MSTORE PUSH1 0x20 ADD PUSH0 KECCAK256 PUSH0 SWAP1 SLOAD SWAP1 PUSH2 0x100 EXP SWAP1 DIV PUSH20 0xFFFFFFFFFFFFFFFFFFFFFFFFFFFFFFFFFFFFFFFF AND PUSH20 0xFFFFFFFFFFFFFFFFFFFFFFFFFFFFFFFFFFFFFFFF AND EQ SWAP1 POP JUMPDEST DUP2 ISZERO DUP1 ISZERO PUSH2 0x14C5 JUMPI POP DUP1 ISZERO JUMPDEST ISZERO PUSH2 0x1509 JUMPI DUP3 DUP6 PUSH1 0x40 MLOAD PUSH32 0xA2E7FDED00000000000000000000000000000000000000000000000000000000 DUP2 MSTORE PUSH1 0x4 ADD PUSH2 0x1500 SWAP3 SWAP2 SWAP1 PUSH2 0x2517 JUMP JUMPDEST PUSH1 0x40 MLOAD DUP1 SWAP2 SUB SWAP1 REVERT JUMPDEST DUP4 PUSH1 0x5 PUSH0 DUP6 DUP2 MSTORE PUSH1 0x20 ADD SWAP1 DUP2 MSTORE PUSH1 0x20 ADD PUSH0 KECCAK256 PUSH0 PUSH2 0x100 EXP DUP2 SLOAD DUP2 PUSH20 0xFFFFFFFFFFFFFFFFFFFFFFFFFFFFFFFFFFFFFFFF MUL NOT AND SWAP1 DUP4 PUSH20 0xFFFFFFFFFFFFFFFFFFFFFFFFFFFFFFFFFFFFFFFF AND MUL OR SWAP1 SSTORE POP PUSH1 0x6 PUSH0 DUP5 DUP2 MSTORE PUSH1 0x20 ADD SWAP1 DUP2 MSTORE PUSH1 0x20 ADD PUSH0 KECCAK256 PUSH0 PUSH2 0x100 EXP DUP2 SLOAD SWAP1 PUSH20 0xFFFFFFFFFFFFFFFFFFFFFFFFFFFFFFFFFFFFFFFF MUL NOT AND SWAP1 SSTORE PUSH1 0x7 PUSH0 DUP6 PUSH20 0xFFFFFFFFFFFFFFFFFFFFFFFFFFFFFFFFFFFFFFFF AND PUSH20 0xFFFFFFFFFFFFFFFFFFFFFFFFFFFFFFFFFFFFFFFF AND DUP2 MSTORE PUSH1 0x20 ADD SWAP1 DUP2 MSTORE PUSH1 0x20 ADD PUSH0 KECCAK256 DUP4 SWAP1 DUP1 PUSH1 0x1 DUP2 SLOAD ADD DUP1 DUP3 SSTORE DUP1 SWAP2 POP POP PUSH1 0x1 SWAP1 SUB SWAP1 PUSH0 MSTORE PUSH1 0x20 PUSH0 KECCAK256 ADD PUSH0 SWAP1 SWAP2 SWAP1 SWAP2 SWAP1 SWAP2 POP SSTORE PUSH0 PUSH1 0x7 PUSH0 DUP8 PUSH20 0xFFFFFFFFFFFFFFFFFFFFFFFFFFFFFFFFFFFFFFFF AND PUSH20 0xFFFFFFFFFFFFFFFFFFFFFFFFFFFFFFFFFFFFFFFF AND DUP2 MSTORE PUSH1 0x20 ADD SWAP1 DUP2 MSTORE PUSH1 0x20 ADD PUSH0 KECCAK256 SWAP1 POP PUSH0 DUP2 DUP1 SLOAD SWAP1 POP GT PUSH2 0x1640 JUMPI PUSH2 0x163F PUSH2 0x253E JUMP JUMPDEST JUMPDEST PUSH0 PUSH1 0x1 DUP3 DUP1 SLOAD SWAP1 POP PUSH2 0x1652 SWAP2 SWAP1 PUSH2 0x2598 JUMP JUMPDEST SWAP1 POP PUSH0 JUMPDEST DUP2 DUP2 LT ISZERO PUSH2 0x16CB JUMPI DUP3 DUP2 DUP2 SLOAD DUP2 LT PUSH2 0x1671 JUMPI PUSH2 0x1670 PUSH2 0x2270 JUMP JUMPDEST JUMPDEST SWAP1 PUSH0 MSTORE PUSH1 0x20 PUSH0 KECCAK256 ADD SLOAD DUP7 SUB PUSH2 0x16C0 JUMPI DUP3 DUP3 DUP2 SLOAD DUP2 LT PUSH2 0x1693 JUMPI PUSH2 0x1692 PUSH2 0x2270 JUMP JUMPDEST JUMPDEST SWAP1 PUSH0 MSTORE PUSH1 0x20 PUSH0 KECCAK256 ADD SLOAD DUP4 DUP3 DUP2 SLOAD DUP2 LT PUSH2 0x16AF JUMPI PUSH2 0x16AE PUSH2 0x2270 JUMP JUMPDEST JUMPDEST SWAP1 PUSH0 MSTORE PUSH1 0x20 PUSH0 KECCAK256 ADD DUP2 SWAP1 SSTORE POP PUSH2 0x16CB JUMP JUMPDEST DUP1 PUSH1 0x1 ADD SWAP1 POP PUSH2 0x1656 JUMP JUMPDEST POP DUP2 DUP1 SLOAD DUP1 PUSH2 0x16DD JUMPI PUSH2 0x16DC PUSH2 0x25CB JUMP JUMPDEST JUMPDEST PUSH1 0x1 SWAP1 SUB DUP2 DUP2 SWAP1 PUSH0 MSTORE PUSH1 0x20 PUSH0 KECCAK256 ADD PUSH0 SWAP1 SSTORE SWAP1 SSTORE DUP5 DUP7 PUSH20 0xFFFFFFFFFFFFFFFFFFFFFFFFFFFFFFFFFFFFFFFF AND DUP9 PUSH20 0xFFFFFFFFFFFFFFFFFFFFFFFFFFFFFFFFFFFFFFFF AND PUSH32 0xDDF252AD1BE2C89B69C2B068FC378DAA952BA7F163C4A11628F55A4DF523B3EF PUSH1 0x40 MLOAD PUSH1 0x40 MLOAD DUP1 SWAP2 SUB SWAP1 LOG4 PUSH1 0x8 PUSH0 DUP9 PUSH20 0xFFFFFFFFFFFFFFFFFFFFFFFFFFFFFFFFFFFFFFFF AND PUSH20 0xFFFFFFFFFFFFFFFFFFFFFFFFFFFFFFFFFFFFFFFF AND DUP2 MSTORE PUSH1 0x20 ADD SWAP1 DUP2 MSTORE PUSH1 0x20 ADD PUSH0 KECCAK256 PUSH0 DUP8 PUSH20 0xFFFFFFFFFFFFFFFFFFFFFFFFFFFFFFFFFFFFFFFF AND PUSH20 0xFFFFFFFFFFFFFFFFFFFFFFFFFFFFFFFFFFFFFFFF AND DUP2 MSTORE PUSH1 0x20 ADD SWAP1 DUP2 MSTORE PUSH1 0x20 ADD PUSH0 KECCAK256 SWAP2 POP PUSH0 DUP3 DUP1 SLOAD SWAP1 POP SUB PUSH2 0x17D9 JUMPI POP POP POP POP PUSH2 0x18D0 JUMP JUMPDEST PUSH1 0x1 DUP3 DUP1 SLOAD SWAP1 POP PUSH2 0x17EA SWAP2 SWAP1 PUSH2 0x2598 JUMP JUMPDEST SWAP1 POP PUSH0 JUMPDEST DUP2 DUP2 LT ISZERO PUSH2 0x1883 JUMPI DUP3 DUP2 DUP2 SLOAD DUP2 LT PUSH2 0x1809 JUMPI PUSH2 0x1808 PUSH2 0x2270 JUMP JUMPDEST JUMPDEST SWAP1 PUSH0 MSTORE PUSH1 0x20 PUSH0 KECCAK256 ADD SLOAD DUP7 SUB PUSH2 0x1878 JUMPI DUP3 DUP3 DUP2 SLOAD DUP2 LT PUSH2 0x182B JUMPI PUSH2 0x182A PUSH2 0x2270 JUMP JUMPDEST JUMPDEST SWAP1 PUSH0 MSTORE PUSH1 0x20 PUSH0 KECCAK256 ADD SLOAD DUP4 DUP3 DUP2 SLOAD DUP2 LT PUSH2 0x1847 JUMPI PUSH2 0x1846 PUSH2 0x2270 JUMP JUMPDEST JUMPDEST SWAP1 PUSH0 MSTORE PUSH1 0x20 PUSH0 KECCAK256 ADD DUP2 SWAP1 SSTORE POP DUP6 DUP4 DUP4 DUP2 SLOAD DUP2 LT PUSH2 0x1867 JUMPI PUSH2 0x1866 PUSH2 0x2270 JUMP JUMPDEST JUMPDEST SWAP1 PUSH0 MSTORE PUSH1 0x20 PUSH0 KECCAK256 ADD DUP2 SWAP1 SSTORE POP PUSH2 0x1883 JUMP JUMPDEST DUP1 PUSH1 0x1 ADD SWAP1 POP PUSH2 0x17EE JUMP JUMPDEST POP DUP2 DUP2 DUP2 SLOAD DUP2 LT PUSH2 0x1897 JUMPI PUSH2 0x1896 PUSH2 0x2270 JUMP JUMPDEST JUMPDEST SWAP1 PUSH0 MSTORE PUSH1 0x20 PUSH0 KECCAK256 ADD SLOAD DUP6 SUB PUSH2 0x18CB JUMPI DUP2 DUP1 SLOAD DUP1 PUSH2 0x18B7 JUMPI PUSH2 0x18B6 PUSH2 0x25CB JUMP JUMPDEST JUMPDEST PUSH1 0x1 SWAP1 SUB DUP2 DUP2 SWAP1 PUSH0 MSTORE PUSH1 0x20 PUSH0 KECCAK256 ADD PUSH0 SWAP1 SSTORE SWAP1 SSTORE JUMPDEST POP POP POP POP JUMPDEST POP POP POP JUMP JUMPDEST PUSH0 PUSH2 0x18DF DUP5 PUSH2 0x596 JUMP JUMPDEST ISZERO PUSH2 0x18ED JUMPI PUSH1 0x1 SWAP1 POP PUSH2 0x19BB JUMP JUMPDEST PUSH0 DUP5 PUSH20 0xFFFFFFFFFFFFFFFFFFFFFFFFFFFFFFFFFFFFFFFF AND PUSH4 0x150B7A02 DUP7 DUP9 DUP8 DUP8 PUSH1 0x40 MLOAD DUP6 PUSH4 0xFFFFFFFF AND PUSH1 0xE0 SHL DUP2 MSTORE PUSH1 0x4 ADD PUSH2 0x192D SWAP5 SWAP4 SWAP3 SWAP2 SWAP1 PUSH2 0x264A JUMP JUMPDEST PUSH1 0x20 PUSH1 0x40 MLOAD DUP1 DUP4 SUB DUP2 PUSH0 DUP8 GAS CALL ISZERO DUP1 ISZERO PUSH2 0x1949 JUMPI RETURNDATASIZE PUSH0 DUP1 RETURNDATACOPY RETURNDATASIZE PUSH0 REVERT JUMPDEST POP POP POP POP PUSH1 0x40 MLOAD RETURNDATASIZE PUSH1 0x1F NOT PUSH1 0x1F DUP3 ADD AND DUP3 ADD DUP1 PUSH1 0x40 MSTORE POP DUP2 ADD SWAP1 PUSH2 0x196D SWAP2 SWAP1 PUSH2 0x26A8 JUMP JUMPDEST SWAP1 POP PUSH4 0x150B7A02 PUSH1 0xE0 SHL PUSH28 0xFFFFFFFFFFFFFFFFFFFFFFFFFFFFFFFFFFFFFFFFFFFFFFFFFFFFFFFF NOT AND DUP2 PUSH28 0xFFFFFFFFFFFFFFFFFFFFFFFFFFFFFFFFFFFFFFFFFFFFFFFFFFFFFFFF NOT AND EQ SWAP2 POP POP JUMPDEST SWAP5 SWAP4 POP POP POP POP JUMP JUMPDEST PUSH1 0x60 PUSH0 PUSH1 0x1 PUSH2 0x19D1 DUP5 PUSH2 0x1A8D JUMP JUMPDEST ADD SWAP1 POP PUSH0 DUP2 PUSH8 0xFFFFFFFFFFFFFFFF DUP2 GT ISZERO PUSH2 0x19EF JUMPI PUSH2 0x19EE PUSH2 0x2305 JUMP JUMPDEST JUMPDEST PUSH1 0x40 MLOAD SWAP1 DUP1 DUP3 MSTORE DUP1 PUSH1 0x1F ADD PUSH1 0x1F NOT AND PUSH1 0x20 ADD DUP3 ADD PUSH1 0x40 MSTORE DUP1 ISZERO PUSH2 0x1A21 JUMPI DUP2 PUSH1 0x20 ADD PUSH1 0x1 DUP3 MUL DUP1 CALLDATASIZE DUP4 CALLDATACOPY DUP1 DUP3 ADD SWAP2 POP POP SWAP1 POP JUMPDEST POP SWAP1 POP PUSH0 DUP3 PUSH1 0x20 ADD DUP3 ADD SWAP1 POP JUMPDEST PUSH1 0x1 ISZERO PUSH2 0x1A82 JUMPI DUP1 DUP1 PUSH1 0x1 SWAP1 SUB SWAP2 POP POP PUSH32 0x3031323334353637383961626364656600000000000000000000000000000000 PUSH1 0xA DUP7 MOD BYTE DUP2 MSTORE8 PUSH1 0xA DUP6 DUP2 PUSH2 0x1A77 JUMPI PUSH2 0x1A76 PUSH2 0x26D3 JUMP JUMPDEST JUMPDEST DIV SWAP5 POP PUSH0 DUP6 SUB PUSH2 0x1A2E JUMPI JUMPDEST DUP2 SWAP4 POP POP POP POP SWAP2 SWAP1 POP JUMP JUMPDEST PUSH0 DUP1 PUSH0 SWAP1 POP PUSH27 0x184F03E93FF9F4DAA797ED6E38ED64BF6A1F010000000000000000 DUP4 LT PUSH2 0x1AE9 JUMPI PUSH27 0x184F03E93FF9F4DAA797ED6E38ED64BF6A1F010000000000000000 DUP4 DUP2 PUSH2 0x1ADF JUMPI PUSH2 0x1ADE PUSH2 0x26D3 JUMP JUMPDEST JUMPDEST DIV SWAP3 POP PUSH1 0x40 DUP2 ADD SWAP1 POP JUMPDEST PUSH14 0x4EE2D6D415B85ACEF8100000000 DUP4 LT PUSH2 0x1B26 JUMPI PUSH14 0x4EE2D6D415B85ACEF8100000000 DUP4 DUP2 PUSH2 0x1B1C JUMPI PUSH2 0x1B1B PUSH2 0x26D3 JUMP JUMPDEST JUMPDEST DIV SWAP3 POP PUSH1 0x20 DUP2 ADD SWAP1 POP JUMPDEST PUSH7 0x2386F26FC10000 DUP4 LT PUSH2 0x1B55 JUMPI PUSH7 0x2386F26FC10000 DUP4 DUP2 PUSH2 0x1B4B JUMPI PUSH2 0x1B4A PUSH2 0x26D3 JUMP JUMPDEST JUMPDEST DIV SWAP3 POP PUSH1 0x10 DUP2 ADD SWAP1 POP JUMPDEST PUSH4 0x5F5E100 DUP4 LT PUSH2 0x1B7E JUMPI PUSH4 0x5F5E100 DUP4 DUP2 PUSH2 0x1B74 JUMPI PUSH2 0x1B73 PUSH2 0x26D3 JUMP JUMPDEST JUMPDEST DIV SWAP3 POP PUSH1 0x8 DUP2 ADD SWAP1 POP JUMPDEST PUSH2 0x2710 DUP4 LT PUSH2 0x1BA3 JUMPI PUSH2 0x2710 DUP4 DUP2 PUSH2 0x1B99 JUMPI PUSH2 0x1B98 PUSH2 0x26D3 JUMP JUMPDEST JUMPDEST DIV SWAP3 POP PUSH1 0x4 DUP2 ADD SWAP1 POP JUMPDEST PUSH1 0x64 DUP4 LT PUSH2 0x1BC6 JUMPI PUSH1 0x64 DUP4 DUP2 PUSH2 0x1BBC JUMPI PUSH2 0x1BBB PUSH2 0x26D3 JUMP JUMPDEST JUMPDEST DIV SWAP3 POP PUSH1 0x2 DUP2 ADD SWAP1 POP JUMPDEST PUSH1 0xA DUP4 LT PUSH2 0x1BD5 JUMPI PUSH1 0x1 DUP2 ADD SWAP1 POP JUMPDEST DUP1 SWAP2 POP POP SWAP2 SWAP1 POP JUMP JUMPDEST DUP3 DUP1 SLOAD DUP3 DUP3 SSTORE SWAP1 PUSH0 MSTORE PUSH1 0x20 PUSH0 KECCAK256 SWAP1 DUP2 ADD SWAP3 DUP3 ISZERO PUSH2 0x1C18 JUMPI SWAP2 PUSH1 0x20 MUL DUP3 ADD JUMPDEST DUP3 DUP2 GT ISZERO PUSH2 0x1C17 JUMPI DUP3 MLOAD DUP3 SSTORE SWAP2 PUSH1 0x20 ADD SWAP2 SWAP1 PUSH1 0x1 ADD SWAP1 PUSH2 0x1BFC JUMP JUMPDEST JUMPDEST POP SWAP1 POP PUSH2 0x1C25 SWAP2 SWAP1 PUSH2 0x1C29 JUMP JUMPDEST POP SWAP1 JUMP JUMPDEST JUMPDEST DUP1 DUP3 GT ISZERO PUSH2 0x1C40 JUMPI PUSH0 DUP2 PUSH0 SWAP1 SSTORE POP PUSH1 0x1 ADD PUSH2 0x1C2A JUMP JUMPDEST POP SWAP1 JUMP JUMPDEST PUSH0 DUP1 REVERT JUMPDEST PUSH0 DUP1 REVERT JUMPDEST PUSH0 PUSH32 0xFFFFFFFF00000000000000000000000000000000000000000000000000000000 DUP3 AND SWAP1 POP SWAP2 SWAP1 POP JUMP JUMPDEST PUSH2 0x1C80 DUP2 PUSH2 0x1C4C JUMP JUMPDEST DUP2 EQ PUSH2 0x1C8A JUMPI PUSH0 DUP1 REVERT JUMPDEST POP JUMP JUMPDEST PUSH0 DUP2 CALLDATALOAD SWAP1 POP PUSH2 0x1C9B DUP2 PUSH2 0x1C77 JUMP JUMPDEST SWAP3 SWAP2 POP POP JUMP JUMPDEST PUSH0 PUSH1 0x20 DUP3 DUP5 SUB SLT ISZERO PUSH2 0x1CB6 JUMPI PUSH2 0x1CB5 PUSH2 0x1C44 JUMP JUMPDEST JUMPDEST PUSH0 PUSH2 0x1CC3 DUP5 DUP3 DUP6 ADD PUSH2 0x1C8D JUMP JUMPDEST SWAP2 POP POP SWAP3 SWAP2 POP POP JUMP JUMPDEST PUSH0 DUP2 ISZERO ISZERO SWAP1 POP SWAP2 SWAP1 POP JUMP JUMPDEST PUSH2 0x1CE0 DUP2 PUSH2 0x1CCC JUMP JUMPDEST DUP3 MSTORE POP POP JUMP JUMPDEST PUSH0 PUSH1 0x20 DUP3 ADD SWAP1 POP PUSH2 0x1CF9 PUSH0 DUP4 ADD DUP5 PUSH2 0x1CD7 JUMP JUMPDEST SWAP3 SWAP2 POP POP JUMP JUMPDEST PUSH0 PUSH20 0xFFFFFFFFFFFFFFFFFFFFFFFFFFFFFFFFFFFFFFFF DUP3 AND SWAP1 POP SWAP2 SWAP1 POP JUMP JUMPDEST PUSH0 PUSH2 0x1D28 DUP3 PUSH2 0x1CFF JUMP JUMPDEST SWAP1 POP SWAP2 SWAP1 POP JUMP JUMPDEST PUSH2 0x1D38 DUP2 PUSH2 0x1D1E JUMP JUMPDEST DUP2 EQ PUSH2 0x1D42 JUMPI PUSH0 DUP1 REVERT JUMPDEST POP JUMP JUMPDEST PUSH0 DUP2 CALLDATALOAD SWAP1 POP PUSH2 0x1D53 DUP2 PUSH2 0x1D2F JUMP JUMPDEST SWAP3 SWAP2 POP POP JUMP JUMPDEST PUSH0 PUSH1 0x20 DUP3 DUP5 SUB SLT ISZERO PUSH2 0x1D6E JUMPI PUSH2 0x1D6D PUSH2 0x1C44 JUMP JUMPDEST JUMPDEST PUSH0 PUSH2 0x1D7B DUP5 DUP3 DUP6 ADD PUSH2 0x1D45 JUMP JUMPDEST SWAP2 POP POP SWAP3 SWAP2 POP POP JUMP JUMPDEST PUSH0 DUP2 MLOAD SWAP1 POP SWAP2 SWAP1 POP JUMP JUMPDEST PUSH0 DUP3 DUP3 MSTORE PUSH1 0x20 DUP3 ADD SWAP1 POP SWAP3 SWAP2 POP POP JUMP JUMPDEST DUP3 DUP2 DUP4 MCOPY PUSH0 DUP4 DUP4 ADD MSTORE POP POP POP JUMP JUMPDEST PUSH0 PUSH1 0x1F NOT PUSH1 0x1F DUP4 ADD AND SWAP1 POP SWAP2 SWAP1 POP JUMP JUMPDEST PUSH0 PUSH2 0x1DC6 DUP3 PUSH2 0x1D84 JUMP JUMPDEST PUSH2 0x1DD0 DUP2 DUP6 PUSH2 0x1D8E JUMP JUMPDEST SWAP4 POP PUSH2 0x1DE0 DUP2 DUP6 PUSH1 0x20 DUP7 ADD PUSH2 0x1D9E JUMP JUMPDEST PUSH2 0x1DE9 DUP2 PUSH2 0x1DAC JUMP JUMPDEST DUP5 ADD SWAP2 POP POP SWAP3 SWAP2 POP POP JUMP JUMPDEST PUSH0 PUSH1 0x20 DUP3 ADD SWAP1 POP DUP2 DUP2 SUB PUSH0 DUP4 ADD MSTORE PUSH2 0x1E0C DUP2 DUP5 PUSH2 0x1DBC JUMP JUMPDEST SWAP1 POP SWAP3 SWAP2 POP POP JUMP JUMPDEST PUSH2 0x1E1D DUP2 PUSH2 0x1D1E JUMP JUMPDEST DUP3 MSTORE POP POP JUMP JUMPDEST PUSH0 PUSH1 0x20 DUP3 ADD SWAP1 POP PUSH2 0x1E36 PUSH0 DUP4 ADD DUP5 PUSH2 0x1E14 JUMP JUMPDEST SWAP3 SWAP2 POP POP JUMP JUMPDEST PUSH0 DUP2 SWAP1 POP SWAP2 SWAP1 POP JUMP JUMPDEST PUSH2 0x1E4E DUP2 PUSH2 0x1E3C JUMP JUMPDEST DUP2 EQ PUSH2 0x1E58 JUMPI PUSH0 DUP1 REVERT JUMPDEST POP JUMP JUMPDEST PUSH0 DUP2 CALLDATALOAD SWAP1 POP PUSH2 0x1E69 DUP2 PUSH2 0x1E45 JUMP JUMPDEST SWAP3 SWAP2 POP POP JUMP JUMPDEST PUSH0 PUSH1 0x20 DUP3 DUP5 SUB SLT ISZERO PUSH2 0x1E84 JUMPI PUSH2 0x1E83 PUSH2 0x1C44 JUMP JUMPDEST JUMPDEST PUSH0 PUSH2 0x1E91 DUP5 DUP3 DUP6 ADD PUSH2 0x1E5B JUMP JUMPDEST SWAP2 POP POP SWAP3 SWAP2 POP POP JUMP JUMPDEST PUSH0 DUP1 PUSH1 0x40 DUP4 DUP6 SUB SLT ISZERO PUSH2 0x1EB0 JUMPI PUSH2 0x1EAF PUSH2 0x1C44 JUMP JUMPDEST JUMPDEST PUSH0 PUSH2 0x1EBD DUP6 DUP3 DUP7 ADD PUSH2 0x1D45 JUMP JUMPDEST SWAP3 POP POP PUSH1 0x20 PUSH2 0x1ECE DUP6 DUP3 DUP7 ADD PUSH2 0x1E5B JUMP JUMPDEST SWAP2 POP POP SWAP3 POP SWAP3 SWAP1 POP JUMP JUMPDEST PUSH2 0x1EE1 DUP2 PUSH2 0x1E3C JUMP JUMPDEST DUP3 MSTORE POP POP JUMP JUMPDEST PUSH0 PUSH1 0x20 DUP3 ADD SWAP1 POP PUSH2 0x1EFA PUSH0 DUP4 ADD DUP5 PUSH2 0x1ED8 JUMP JUMPDEST SWAP3 SWAP2 POP POP JUMP JUMPDEST PUSH0 DUP1 PUSH0 PUSH1 0x60 DUP5 DUP7 SUB SLT ISZERO PUSH2 0x1F17 JUMPI PUSH2 0x1F16 PUSH2 0x1C44 JUMP JUMPDEST JUMPDEST PUSH0 PUSH2 0x1F24 DUP7 DUP3 DUP8 ADD PUSH2 0x1D45 JUMP JUMPDEST SWAP4 POP POP PUSH1 0x20 PUSH2 0x1F35 DUP7 DUP3 DUP8 ADD PUSH2 0x1D45 JUMP JUMPDEST SWAP3 POP POP PUSH1 0x40 PUSH2 0x1F46 DUP7 DUP3 DUP8 ADD PUSH2 0x1E5B JUMP JUMPDEST SWAP2 POP POP SWAP3 POP SWAP3 POP SWAP3 JUMP JUMPDEST PUSH2 0x1F59 DUP2 PUSH2 0x1CCC JUMP JUMPDEST DUP2 EQ PUSH2 0x1F63 JUMPI PUSH0 DUP1 REVERT JUMPDEST POP JUMP JUMPDEST PUSH0 DUP2 CALLDATALOAD SWAP1 POP PUSH2 0x1F74 DUP2 PUSH2 0x1F50 JUMP JUMPDEST SWAP3 SWAP2 POP POP JUMP JUMPDEST PUSH0 DUP1 PUSH1 0x40 DUP4 DUP6 SUB SLT ISZERO PUSH2 0x1F90 JUMPI PUSH2 0x1F8F PUSH2 0x1C44 JUMP JUMPDEST JUMPDEST PUSH0 PUSH2 0x1F9D DUP6 DUP3 DUP7 ADD PUSH2 0x1D45 JUMP JUMPDEST SWAP3 POP POP PUSH1 0x20 PUSH2 0x1FAE DUP6 DUP3 DUP7 ADD PUSH2 0x1F66 JUMP JUMPDEST SWAP2 POP POP SWAP3 POP SWAP3 SWAP1 POP JUMP JUMPDEST PUSH0 DUP1 REVERT JUMPDEST PUSH0 DUP1 REVERT JUMPDEST PUSH0 DUP1 REVERT JUMPDEST PUSH0 DUP1 DUP4 PUSH1 0x1F DUP5 ADD SLT PUSH2 0x1FD9 JUMPI PUSH2 0x1FD8 PUSH2 0x1FB8 JUMP JUMPDEST JUMPDEST DUP3 CALLDATALOAD SWAP1 POP PUSH8 0xFFFFFFFFFFFFFFFF DUP2 GT ISZERO PUSH2 0x1FF6 JUMPI PUSH2 0x1FF5 PUSH2 0x1FBC JUMP JUMPDEST JUMPDEST PUSH1 0x20 DUP4 ADD SWAP2 POP DUP4 PUSH1 0x1 DUP3 MUL DUP4 ADD GT ISZERO PUSH2 0x2012 JUMPI PUSH2 0x2011 PUSH2 0x1FC0 JUMP JUMPDEST JUMPDEST SWAP3 POP SWAP3 SWAP1 POP JUMP JUMPDEST PUSH0 DUP1 PUSH0 DUP1 PUSH0 PUSH1 0x80 DUP7 DUP9 SUB SLT ISZERO PUSH2 0x2032 JUMPI PUSH2 0x2031 PUSH2 0x1C44 JUMP JUMPDEST JUMPDEST PUSH0 PUSH2 0x203F DUP9 DUP3 DUP10 ADD PUSH2 0x1D45 JUMP JUMPDEST SWAP6 POP POP PUSH1 0x20 PUSH2 0x2050 DUP9 DUP3 DUP10 ADD PUSH2 0x1D45 JUMP JUMPDEST SWAP5 POP POP PUSH1 0x40 PUSH2 0x2061 DUP9 DUP3 DUP10 ADD PUSH2 0x1E5B JUMP JUMPDEST SWAP4 POP POP PUSH1 0x60 DUP7 ADD CALLDATALOAD PUSH8 0xFFFFFFFFFFFFFFFF DUP2 GT ISZERO PUSH2 0x2082 JUMPI PUSH2 0x2081 PUSH2 0x1C48 JUMP JUMPDEST JUMPDEST PUSH2 0x208E DUP9 DUP3 DUP10 ADD PUSH2 0x1FC4 JUMP JUMPDEST SWAP3 POP SWAP3 POP POP SWAP3 SWAP6 POP SWAP3 SWAP6 SWAP1 SWAP4 POP JUMP JUMPDEST PUSH0 DUP1 PUSH1 0x40 DUP4 DUP6 SUB SLT ISZERO PUSH2 0x20B3 JUMPI PUSH2 0x20B2 PUSH2 0x1C44 JUMP JUMPDEST JUMPDEST PUSH0 PUSH2 0x20C0 DUP6 DUP3 DUP7 ADD PUSH2 0x1D45 JUMP JUMPDEST SWAP3 POP POP PUSH1 0x20 PUSH2 0x20D1 DUP6 DUP3 DUP7 ADD PUSH2 0x1D45 JUMP JUMPDEST SWAP2 POP POP SWAP3 POP SWAP3 SWAP1 POP JUMP JUMPDEST PUSH32 0x4E487B7100000000000000000000000000000000000000000000000000000000 PUSH0 MSTORE PUSH1 0x22 PUSH1 0x4 MSTORE PUSH1 0x24 PUSH0 REVERT JUMPDEST PUSH0 PUSH1 0x2 DUP3 DIV SWAP1 POP PUSH1 0x1 DUP3 AND DUP1 PUSH2 0x211F JUMPI PUSH1 0x7F DUP3 AND SWAP2 POP JUMPDEST PUSH1 0x20 DUP3 LT DUP2 SUB PUSH2 0x2132 JUMPI PUSH2 0x2131 PUSH2 0x20DB JUMP JUMPDEST JUMPDEST POP SWAP2 SWAP1 POP JUMP JUMPDEST PUSH32 0x746F6B656E20697320417070726F766564207965740000000000000000000000 PUSH0 DUP3 ADD MSTORE POP JUMP JUMPDEST PUSH0 PUSH2 0x216C PUSH1 0x15 DUP4 PUSH2 0x1D8E JUMP JUMPDEST SWAP2 POP PUSH2 0x2177 DUP3 PUSH2 0x2138 JUMP JUMPDEST PUSH1 0x20 DUP3 ADD SWAP1 POP SWAP2 SWAP1 POP JUMP JUMPDEST PUSH0 PUSH1 0x20 DUP3 ADD SWAP1 POP DUP2 DUP2 SUB PUSH0 DUP4 ADD MSTORE PUSH2 0x2199 DUP2 PUSH2 0x2160 JUMP JUMPDEST SWAP1 POP SWAP2 SWAP1 POP JUMP JUMPDEST PUSH32 0x746F6B656E496420657869737473000000000000000000000000000000000000 PUSH0 DUP3 ADD MSTORE POP JUMP JUMPDEST PUSH0 PUSH2 0x21D4 PUSH1 0xE DUP4 PUSH2 0x1D8E JUMP JUMPDEST SWAP2 POP PUSH2 0x21DF DUP3 PUSH2 0x21A0 JUMP JUMPDEST PUSH1 0x20 DUP3 ADD SWAP1 POP SWAP2 SWAP1 POP JUMP JUMPDEST PUSH0 PUSH1 0x20 DUP3 ADD SWAP1 POP DUP2 DUP2 SUB PUSH0 DUP4 ADD MSTORE PUSH2 0x2201 DUP2 PUSH2 0x21C8 JUMP JUMPDEST SWAP1 POP SWAP2 SWAP1 POP JUMP JUMPDEST PUSH32 0x696E64657820746F6F206C617267650000000000000000000000000000000000 PUSH0 DUP3 ADD MSTORE POP JUMP JUMPDEST PUSH0 PUSH2 0x223C PUSH1 0xF DUP4 PUSH2 0x1D8E JUMP JUMPDEST SWAP2 POP PUSH2 0x2247 DUP3 PUSH2 0x2208 JUMP JUMPDEST PUSH1 0x20 DUP3 ADD SWAP1 POP SWAP2 SWAP1 POP JUMP JUMPDEST PUSH0 PUSH1 0x20 DUP3 ADD SWAP1 POP DUP2 DUP2 SUB PUSH0 DUP4 ADD MSTORE PUSH2 0x2269 DUP2 PUSH2 0x2230 JUMP JUMPDEST SWAP1 POP SWAP2 SWAP1 POP JUMP JUMPDEST PUSH32 0x4E487B7100000000000000000000000000000000000000000000000000000000 PUSH0 MSTORE PUSH1 0x32 PUSH1 0x4 MSTORE PUSH1 0x24 PUSH0 REVERT JUMPDEST PUSH32 0x5F636865636B4552433732315265636569766572206661696C65640000000000 PUSH0 DUP3 ADD MSTORE POP JUMP JUMPDEST PUSH0 PUSH2 0x22D1 PUSH1 0x1B DUP4 PUSH2 0x1D8E JUMP JUMPDEST SWAP2 POP PUSH2 0x22DC DUP3 PUSH2 0x229D JUMP JUMPDEST PUSH1 0x20 DUP3 ADD SWAP1 POP SWAP2 SWAP1 POP JUMP JUMPDEST PUSH0 PUSH1 0x20 DUP3 ADD SWAP1 POP DUP2 DUP2 SUB PUSH0 DUP4 ADD MSTORE PUSH2 0x22FE DUP2 PUSH2 0x22C5 JUMP JUMPDEST SWAP1 POP SWAP2 SWAP1 POP JUMP JUMPDEST PUSH32 0x4E487B7100000000000000000000000000000000000000000000000000000000 PUSH0 MSTORE PUSH1 0x41 PUSH1 0x4 MSTORE PUSH1 0x24 PUSH0 REVERT JUMPDEST PUSH0 DUP2 SWAP1 POP SWAP3 SWAP2 POP POP JUMP JUMPDEST PUSH0 DUP2 SWAP1 POP DUP2 PUSH0 MSTORE PUSH1 0x20 PUSH0 KECCAK256 SWAP1 POP SWAP2 SWAP1 POP JUMP JUMPDEST PUSH0 DUP2 SLOAD PUSH2 0x235A DUP2 PUSH2 0x2108 JUMP JUMPDEST PUSH2 0x2364 DUP2 DUP7 PUSH2 0x2332 JUMP JUMPDEST SWAP5 POP PUSH1 0x1 DUP3 AND PUSH0 DUP2 EQ PUSH2 0x237E JUMPI PUSH1 0x1 DUP2 EQ PUSH2 0x2393 JUMPI PUSH2 0x23C5 JUMP JUMPDEST PUSH1 0xFF NOT DUP4 AND DUP7 MSTORE DUP2 ISZERO ISZERO DUP3 MUL DUP7 ADD SWAP4 POP PUSH2 0x23C5 JUMP JUMPDEST PUSH2 0x239C DUP6 PUSH2 0x233C JUMP JUMPDEST PUSH0 JUMPDEST DUP4 DUP2 LT ISZERO PUSH2 0x23BD JUMPI DUP2 SLOAD DUP2 DUP10 ADD MSTORE PUSH1 0x1 DUP3 ADD SWAP2 POP PUSH1 0x20 DUP2 ADD SWAP1 POP PUSH2 0x239E JUMP JUMPDEST DUP4 DUP9 ADD SWAP6 POP POP POP JUMPDEST POP POP POP SWAP3 SWAP2 POP POP JUMP JUMPDEST PUSH0 PUSH2 0x23D8 DUP3 PUSH2 0x1D84 JUMP JUMPDEST PUSH2 0x23E2 DUP2 DUP6 PUSH2 0x2332 JUMP JUMPDEST SWAP4 POP PUSH2 0x23F2 DUP2 DUP6 PUSH1 0x20 DUP7 ADD PUSH2 0x1D9E JUMP JUMPDEST DUP1 DUP5 ADD SWAP2 POP POP SWAP3 SWAP2 POP POP JUMP JUMPDEST PUSH0 PUSH2 0x2409 DUP3 DUP6 PUSH2 0x234E JUMP JUMPDEST SWAP2 POP PUSH2 0x2415 DUP3 DUP5 PUSH2 0x23CE JUMP JUMPDEST SWAP2 POP DUP2 SWAP1 POP SWAP4 SWAP3 POP POP POP JUMP JUMPDEST PUSH32 0x756E737570706F7274207A65726F206164647265737300000000000000000000 PUSH0 DUP3 ADD MSTORE POP JUMP JUMPDEST PUSH0 PUSH2 0x2455 PUSH1 0x16 DUP4 PUSH2 0x1D8E JUMP JUMPDEST SWAP2 POP PUSH2 0x2460 DUP3 PUSH2 0x2421 JUMP JUMPDEST PUSH1 0x20 DUP3 ADD SWAP1 POP SWAP2 SWAP1 POP JUMP JUMPDEST PUSH0 PUSH1 0x20 DUP3 ADD SWAP1 POP DUP2 DUP2 SUB PUSH0 DUP4 ADD MSTORE PUSH2 0x2482 DUP2 PUSH2 0x2449 JUMP JUMPDEST SWAP1 POP SWAP2 SWAP1 POP JUMP JUMPDEST PUSH32 0x746F6B656E4964206F776E6572206973206E6F7420657175616C2066726F6D20 PUSH0 DUP3 ADD MSTORE PUSH32 0x6164647265737300000000000000000000000000000000000000000000000000 PUSH1 0x20 DUP3 ADD MSTORE POP JUMP JUMPDEST PUSH0 PUSH2 0x24E3 PUSH1 0x27 DUP4 PUSH2 0x1D8E JUMP JUMPDEST SWAP2 POP PUSH2 0x24EE DUP3 PUSH2 0x2489 JUMP JUMPDEST PUSH1 0x40 DUP3 ADD SWAP1 POP SWAP2 SWAP1 POP JUMP JUMPDEST PUSH0 PUSH1 0x20 DUP3 ADD SWAP1 POP DUP2 DUP2 SUB PUSH0 DUP4 ADD MSTORE PUSH2 0x2510 DUP2 PUSH2 0x24D7 JUMP JUMPDEST SWAP1 POP SWAP2 SWAP1 POP JUMP JUMPDEST PUSH0 PUSH1 0x40 DUP3 ADD SWAP1 POP PUSH2 0x252A PUSH0 DUP4 ADD DUP6 PUSH2 0x1ED8 JUMP JUMPDEST PUSH2 0x2537 PUSH1 0x20 DUP4 ADD DUP5 PUSH2 0x1E14 JUMP JUMPDEST SWAP4 SWAP3 POP POP POP JUMP JUMPDEST PUSH32 0x4E487B7100000000000000000000000000000000000000000000000000000000 PUSH0 MSTORE PUSH1 0x1 PUSH1 0x4 MSTORE PUSH1 0x24 PUSH0 REVERT JUMPDEST PUSH32 0x4E487B7100000000000000000000000000000000000000000000000000000000 PUSH0 MSTORE PUSH1 0x11 PUSH1 0x4 MSTORE PUSH1 0x24 PUSH0 REVERT JUMPDEST PUSH0 PUSH2 0x25A2 DUP3 PUSH2 0x1E3C JUMP JUMPDEST SWAP2 POP PUSH2 0x25AD DUP4 PUSH2 0x1E3C JUMP JUMPDEST SWAP3 POP DUP3 DUP3 SUB SWAP1 POP DUP2 DUP2 GT ISZERO PUSH2 0x25C5 JUMPI PUSH2 0x25C4 PUSH2 0x256B JUMP JUMPDEST JUMPDEST SWAP3 SWAP2 POP POP JUMP JUMPDEST PUSH32 0x4E487B7100000000000000000000000000000000000000000000000000000000 PUSH0 MSTORE PUSH1 0x31 PUSH1 0x4 MSTORE PUSH1 0x24 PUSH0 REVERT JUMPDEST PUSH0 DUP2 MLOAD SWAP1 POP SWAP2 SWAP1 POP JUMP JUMPDEST PUSH0 DUP3 DUP3 MSTORE PUSH1 0x20 DUP3 ADD SWAP1 POP SWAP3 SWAP2 POP POP JUMP JUMPDEST PUSH0 PUSH2 0x261C DUP3 PUSH2 0x25F8 JUMP JUMPDEST PUSH2 0x2626 DUP2 DUP6 PUSH2 0x2602 JUMP JUMPDEST SWAP4 POP PUSH2 0x2636 DUP2 DUP6 PUSH1 0x20 DUP7 ADD PUSH2 0x1D9E JUMP JUMPDEST PUSH2 0x263F DUP2 PUSH2 0x1DAC JUMP JUMPDEST DUP5 ADD SWAP2 POP POP SWAP3 SWAP2 POP POP JUMP JUMPDEST PUSH0 PUSH1 0x80 DUP3 ADD SWAP1 POP PUSH2 0x265D PUSH0 DUP4 ADD DUP8 PUSH2 0x1E14 JUMP JUMPDEST PUSH2 0x266A PUSH1 0x20 DUP4 ADD DUP7 PUSH2 0x1E14 JUMP JUMPDEST PUSH2 0x2677 PUSH1 0x40 DUP4 ADD DUP6 PUSH2 0x1ED8 JUMP JUMPDEST DUP2 DUP2 SUB PUSH1 0x60 DUP4 ADD MSTORE PUSH2 0x2689 DUP2 DUP5 PUSH2 0x2612 JUMP JUMPDEST SWAP1 POP SWAP6 SWAP5 POP POP POP POP POP JUMP JUMPDEST PUSH0 DUP2 MLOAD SWAP1 POP PUSH2 0x26A2 DUP2 PUSH2 0x1C77 JUMP JUMPDEST SWAP3 SWAP2 POP POP JUMP JUMPDEST PUSH0 PUSH1 0x20 DUP3 DUP5 SUB SLT ISZERO PUSH2 0x26BD JUMPI PUSH2 0x26BC PUSH2 0x1C44 JUMP JUMPDEST JUMPDEST PUSH0 PUSH2 0x26CA DUP5 DUP3 DUP6 ADD PUSH2 0x2694 JUMP JUMPDEST SWAP2 POP POP SWAP3 SWAP2 POP POP JUMP JUMPDEST PUSH32 0x4E487B7100000000000000000000000000000000000000000000000000000000 PUSH0 MSTORE PUSH1 0x12 PUSH1 0x4 MSTORE PUSH1 0x24 PUSH0 REVERT INVALID LOG2 PUSH5 0x6970667358 0x22 SLT KECCAK256 DUP16 MULMOD 0x2F PUSH6 0xE4405897DFF5 0xD9 0xAF DUP4 DUP1 SWAP3 0xEF DUP4 EXTCODESIZE 0xD9 0xB5 0xB2 0x27 0xAA SDIV REVERT 0xB2 SWAP5 SWAP12 REVERT CALLDATACOPY EXP PUSH31 0x64736F6C634300081A00330000000000000000000000000000000000000000 "
				},
				"gasEstimates": {
					"creation": {
						"codeDepositCost": "2007600",
						"executionCost": "infinite",
						"totalCost": "infinite"
					},
					"external": {
						"approve(address,uint256)": "75770",
						"balanceOf(address)": "2948",
						"getApproved(uint256)": "2875",
						"isApprovedForAll(address,address)": "infinite",
						"isEOA(address)": "3296",
						"mint()": "124201",
						"minter()": "2598",
						"name()": "infinite",
						"ownerOf(uint256)": "2941",
						"safeTransferFrom(address,address,uint256)": "infinite",
						"safeTransferFrom(address,address,uint256,bytes)": "infinite",
						"setApprovalForAll(address,bool)": "infinite",
						"supportsInterface(bytes4)": "791",
						"symbol()": "infinite",
						"tokenByIndex(uint256)": "infinite",
						"tokenOfOwnerByIndex(address,uint256)": "infinite",
						"tokenURI(uint256)": "infinite",
						"totalSupply()": "2529",
						"transferFrom(address,address,uint256)": "infinite"
					},
					"internal": {
						"_checkERC721Receiver(address,address,uint256,bytes memory)": "infinite",
						"_transferFrom(address,address,uint256)": "infinite"
					}
				},
				"methodIdentifiers": {
					"approve(address,uint256)": "095ea7b3",
					"balanceOf(address)": "70a08231",
					"getApproved(uint256)": "081812fc",
					"isApprovedForAll(address,address)": "e985e9c5",
					"isEOA(address)": "049cbc21",
					"mint()": "1249c58b",
					"minter()": "07546172",
					"name()": "06fdde03",
					"ownerOf(uint256)": "6352211e",
					"safeTransferFrom(address,address,uint256)": "42842e0e",
					"safeTransferFrom(address,address,uint256,bytes)": "b88d4fde",
					"setApprovalForAll(address,bool)": "a22cb465",
					"supportsInterface(bytes4)": "01ffc9a7",
					"symbol()": "95d89b41",
					"tokenByIndex(uint256)": "4f6ccce7",
					"tokenOfOwnerByIndex(address,uint256)": "2f745c59",
					"tokenURI(uint256)": "c87b56dd",
					"totalSupply()": "18160ddd",
					"transferFrom(address,address,uint256)": "23b872dd"
				}
			},
			"storageLayout": {
				"storage": [
					{
						"astId": 1672,
						"contract": "src/My721.sol:RMB",
						"label": "_name",
						"offset": 0,
						"slot": "0",
						"type": "t_string_storage"
					},
					{
						"astId": 1674,
						"contract": "src/My721.sol:RMB",
						"label": "_symbol",
						"offset": 0,
						"slot": "1",
						"type": "t_string_storage"
					},
					{
						"astId": 1676,
						"contract": "src/My721.sol:RMB",
						"label": "_baseURI",
						"offset": 0,
						"slot": "2",
						"type": "t_string_storage"
					},
					{
						"astId": 1678,
						"contract": "src/My721.sol:RMB",
						"label": "minter",
						"offset": 0,
						"slot": "3",
						"type": "t_address"
					},
					{
						"astId": 1681,
						"contract": "src/My721.sol:RMB",
						"label": "_tokens",
						"offset": 0,
						"slot": "4",
						"type": "t_array(t_uint256)dyn_storage"
					},
					{
						"astId": 1685,
						"contract": "src/My721.sol:RMB",
						"label": "tokenOwner",
						"offset": 0,
						"slot": "5",
						"type": "t_mapping(t_uint256,t_address)"
					},
					{
						"astId": 1689,
						"contract": "src/My721.sol:RMB",
						"label": "tokenSpender",
						"offset": 0,
						"slot": "6",
						"type": "t_mapping(t_uint256,t_address)"
					},
					{
						"astId": 1694,
						"contract": "src/My721.sol:RMB",
						"label": "ownerTokens",
						"offset": 0,
						"slot": "7",
						"type": "t_mapping(t_address,t_array(t_uint256)dyn_storage)"
					},
					{
						"astId": 1701,
						"contract": "src/My721.sol:RMB",
						"label": "allowences",
						"offset": 0,
						"slot": "8",
						"type": "t_mapping(t_address,t_mapping(t_address,t_array(t_uint256)dyn_storage))"
					}
				],
				"types": {
					"t_address": {
						"encoding": "inplace",
						"label": "address",
						"numberOfBytes": "20"
					},
					"t_array(t_uint256)dyn_storage": {
						"base": "t_uint256",
						"encoding": "dynamic_array",
						"label": "uint256[]",
						"numberOfBytes": "32"
					},
					"t_mapping(t_address,t_array(t_uint256)dyn_storage)": {
						"encoding": "mapping",
						"key": "t_address",
						"label": "mapping(address => uint256[])",
						"numberOfBytes": "32",
						"value": "t_array(t_uint256)dyn_storage"
					},
					"t_mapping(t_address,t_mapping(t_address,t_array(t_uint256)dyn_storage))": {
						"encoding": "mapping",
						"key": "t_address",
						"label": "mapping(address => mapping(address => uint256[]))",
						"numberOfBytes": "32",
						"value": "t_mapping(t_address,t_array(t_uint256)dyn_storage)"
					},
					"t_mapping(t_uint256,t_address)": {
						"encoding": "mapping",
						"key": "t_uint256",
						"label": "mapping(uint256 => address)",
						"numberOfBytes": "32",
						"value": "t_address"
					},
					"t_string_storage": {
						"encoding": "bytes",
						"label": "string",
						"numberOfBytes": "32"
					},
					"t_uint256": {
						"encoding": "inplace",
						"label": "uint256",
						"numberOfBytes": "32"
					}
				}
			},
			"userdoc": {
				"kind": "user",
				"methods": {},
				"version": 1
			}
		}
	}
}